:020000040020DA
:10000000002000204D5B2000A95A2000AB5A2000A0
:100010001D5C2000AD5A2000AF5A200000000000F7
:10002000000000000000000000000000B15A2000A5
:10003000B35A200000000000B55A2000B75A200033
:10004000215C2000255C2000295C20002D5C200024
:10005000315C2000355C2000395C20003D5C2000D4
:10006000415C2000455C2000495C20004D5C200084
:10007000515C2000555C2000595C20005D5C200034
:10008000615C2000655C2000695C20006D5C2000E4
:10009000715C2000755C2000795C20007D5C200094
:1000A000815C2000855C2000895C20008D5C200044
:1000B000915C2000955C2000995C20009D5C2000F4
:1000C000A15C2000A55C2000A95C2000AD5C2000A4
:1000D000B15C2000B55C2000B95C2000BD5C200054
:1000E000C15C2000C55C2000C95C2000CD5C200004
:1000F000D15C2000D55C2000D95C2000DD5C2000B4
:10010000E15C2000E55C2000E95C2000ED5C200063
:10011000F15C2000F55C2000F95C2000FD5C200013
:10012000015D2000055D2000095D20000D5D2000BF
:10013000115D2000155D2000195D20001D5D20006F
:10014000215D2000255D2000295D20002D5D20001F
:10015000315D2000355D2000395D20003D5D2000CF
:10016000415D2000455D2000495D20004D5D20007F
:10017000515D2000555D2000595D20000000000009
:100180005D5D2000615D2000655D2000695D2000EF
:100190006D5D2000715D2000755D2000795D20009F
:1001A0007D5D2000815D2000855D2000895D20004F
:1001B0008D5D2000915D2000955D2000995D2000FF
:1001C0009D5D2000A15D200000000000A55D2000D5
:1001D000A95D2000AD5D2000B15D2000B55D20006F
:1001E000B95D2000BD5D2000C15D2000C55D20001F
:1001F000C95D2000CD5D20002DE9F04383B00400EF
:100200000D0016001F00DDF848805FF00009DFF8E0
:1002100054050078002804D047F24A10A8F80000DE
:10022000BDE0002C04D147F2AD10A8F80000B6E004
:100230003000002804D147F24F10A8F80000AEE0CB
:100240000B98002804D146F62F60A8F80000A6E01D
:100250000D98DFF818150968884204D246F6306018
:10026000A8F800009BE00C980D99884204D346F64C
:100270003160A8F8000092E00A981F2807D30A9876
:100280001F2804D046F27320A8F8000087E00A98DF
:100290001F2808D1DFF81806844204D046F27320E4
:1002A000A8F800007BE0200000F02AFB0020A8F85E
:1002B0000000119810F0030F0CD01198800709D599
:1002C0000B98002103E000220260001D491C0D9ADA
:1002D0009142F8D30B980C9900EB81091198019089
:1002E0000D9800904B460B9A3900300000F067FCE7
:1002F0000B99884204D246F62C60A8F800004EE024
:10030000A662E762A5600A9984F83F100A9984F80A
:1003100040102060C4F80C90109860600B986062E8
:100320000D98A0641198A4F84C00002006E000216C
:10033000C0B204EB8002C2F88010401CC0B200289A
:10034000F5D00E9914F1680000F0E1FD200000F0F6
:1003500024FCEFF3108972B600F0B4FE94F83F006D
:1003600000F05EFF200001F0DDFA200000F0A2FAAC
:10037000DFF888050088401CDFF880150880DFF86A
:10038000E8030078012804D000F0B0FE89F310885B
:1003900005E000F0ABFE89F3108801F00FF8BDE82E
:1003A000F78370B504000E000025DFF8B80300786D
:1003B000002803D047F25510308035E0EFF3108568
:1003C00072B600F07FFE002C04D0DFF85C070068F6
:1003D000844207D100F08AFE85F3108847F2571057
:1003E000308021E000F082FE85F31088EFF3108565
:1003F00072B600F067FE0020308094F83E000028BE
:10040000032808D9001F10D0401E22D0401E31D032
:10041000401E40D050E000F069FE85F3108847F29E
:100420005310308000F0CAFF70BD94F89800401E51
:1004300084F8980094F89800002805D1002084F8EA
:100440003E00200001F03DFA00F050FE85F31088D8
:10045000E8E794F89800401E84F8980094F8980013
:10046000002802D1012084F83E0000F03FFE85F311
:100470001088D7E794F89800401E84F8980094F804
:100480009800002802D1022084F83E0000F02EFEE1
:1004900085F31088C6E794F89800401E84F8980009
:1004A00094F89800002802D1032084F83E0000F060
:1004B0001DFE85F31088B5E700F018FE85F310885F
:1004C00046F62D603080AFE72DE9F0410700884601
:1004D00014001D000026DFF88C020078002804D0EC
:1004E00046F2AE1028800020E0E01FFA88F840466F
:1004F000002802D0B0F5004F1CD1EFF3108672B681
:1005000000F0E0FDDFF820060068406D002816D1FD
:100510001FFA88F85FEA08404FD500F0E7FD86F340
:100520001088002C01D00020206046F2B0102880F6
:100530000020BBE045F6256028800020B6E0DFF80B
:10054000E8050068406D401EDFF8DC150968486565
:10055000DFF8D4050068476D002C04D0DFF8C8052B
:100560000068006D206001F0ACFADFF8BC15096886
:10057000096D401ADFF8B0150968C1F8B400DFF85A
:10058000A8050068D0F8B800DFF89C150968D1F814
:10059000B410884209D2DFF890050068D0F8B400A2
:1005A000DFF884150968C1F8B80000F09FFD86F3F4
:1005B000108800202880380078E0DFF88804007870
:1005C00000280CD0002C01D00020206000F08EFD0F
:1005D00086F3108846F663502880002066E03A00D3
:1005E0000721002001F02BF800F080FD86F3108831
:1005F00000F0E4FEEFF3108672B600F063FDDFF862
:100600002805006890F83D00002804D001282ED06D
:10061000032837D03EE0002C26D0DFF80C05006818
:10062000006D206001F04DFADFF8FC140968096DD7
:10063000401ADFF8F4140968C1F8B400DFF8E804E0
:100640000068D0F8B800DFF8E0140968D1F8B410F9
:10065000884209D2DFF8D0040068D0F8B400DFF88F
:10066000C8140968C1F8B8000020288015E0002CE3
:1006700004D0DFF8B4040068006D206046F2A910D1
:1006800028800AE0002C01D00020206047F2D92009
:10069000288002E046F62E602880DFF88C0400688F
:1006A000476D00F023FD86F310883800BDE8F08127
:1006B0002DE9F04104000D0016001F005FF0000856
:1006C00028480078002803D047F25910388046E0C7
:1006D000002D03D146F2D520388040E0002E03D112
:1006E00046F2D52038803AE0EFF3108872B600F079
:1006F000E9FC002C02D1DFF83004046820680028EF
:100700000BD100F0F3FC88F3108800202860002053
:10071000306047F25210388021E094F84C00C00756
:100720000BD400F0E3FC88F3108800202860002040
:10073000306047F25410388011E000F0D7FC88F3A5
:1007400010880021626A01E0121D491C106800280F
:10075000FAD02960A06C411A316000203880BDE8D1
:10076000F0810000D2360120D3360120EC5B20005E
:1007700070B504000D000026DFF8B40300780028EF
:1007800003D047F25D10288052E04948844203D1EB
:1007900047F25B1028804BE0EFF3108672B600F052
:1007A00091FC002C0FD1DFF88C030078012807D0D2
:1007B00000F09CFC86F3108845F68960288037E0BD
:1007C000DFF864030468DFF86003006884420BD13B
:1007D0009C480078002807D000F088FC86F3108839
:1007E00046F66350288023E00020288094F83E00DD
:1007F000002809D0401E1CD0401E25D0401E2ED0FF
:10080000401E032836D94BE0042084F83E00012026
:1008100084F89800200001F0A3F800F067FC86F34C
:100820001088DFF810030078012801D100F0C6FD20
:1008300070BD052084F83E00012084F8980000F087
:1008400055FC86F31088ECE7062084F83E00012072
:1008500084F8980000F04AFC86F31088E1E707204E
:1008600084F83E00012084F8980000F03FFC86F3F5
:100870001088D6E794F89800FF2807D100F036FCDE
:1008800086F3108847F260102880D1E794F898002A
:10089000401C84F8980000F029FC86F31088C0E71B
:1008A00000F024FC86F3108846F62D602880BFE710
:1008B000A83101200021C0F8C8109F49096800290B
:1008C00003D10021C0F8CC1007E09B490968C0F8AB
:1008D000CC1099490968C1F8C80097490860704769
:1008E0000021954A11600021044A11800021934A99
:1008F000116000210180704700000000CE36012009
:1009000010B50400002020600020E060002060603E
:1009100000202061002060610020A0610020E061D3
:10092000002020628648A060002060620020A06253
:100930000020E06200202065002020660020A4F84E
:100940006400002114F1680000F0E1FA0020A067C3
:100950000020E0670020C4F884000020A4F88C0088
:100960000020C4F888000020C4F890000020C4F8DB
:100970009400002006E00021C0B204EB8002C2F81F
:100980008010401CC0B20028F5D000206065002017
:10099000C4F8B4000020C4F8B8000020A06400200F
:1009A00084F898000020C4F8C0000020C4F8BC00FF
:1009B0000020A4F84C000020A0650020E065002085
:1009C000A4F89A000020A4F89C000020C4F8A0001D
:1009D0000020C4F8A40001F074F8C4F8A8000020B6
:1009E000C4F8AC000020C4F8C4000020206300203C
:1009F00060630020A063002084F83C00002084F89D
:100A00003D00002084F83E00202084F83F00202094
:100A100084F84000002060640020C4F8C800002072
:100A2000C4F8CC0041A0C4F8D00010BD80B53E4849
:100A3000006800F0BBF86A4600214248006801F0F7
:100A40004FF8F8E7D7360120F8B504000D0000266E
:100A500094F83F7094F83E0000280BD0022821D073
:100A60001DD304281BD01DD306281BD017D307285D
:100A700018D058E0200000F073FF84F83F5094F83D
:100A80003F0000F0CDFB28480068844203D12000DD
:100A900000F02BFF02E0200000F044FF3FE084F86C
:100AA0003F503CE084F83F5094F83C00012805D0CA
:100AB000042807D0052801D0062830D1200000F0F6
:100AC0001BFE2CE0200000F017FEA06B466A2800F9
:100AD0003900C0B2C9B2884207D2280096F83F1048
:100AE000C0B288421AD3002618E096F83F00FFB241
:100AF000B84213D1300001F02AFB050096F84000FF
:100B00002900C9B2884202D296F84050FFE7280077
:100B100096F83F10C0B2884200D10026FFE73400AB
:100B2000002C94D1F1BDFDE7B0360120200000007B
:100B3000D2360120D33601208C36012088360120A0
:100B4000B45B2000F05B200080B5A448006800285A
:100B500002D0A2480068804701BDA1480068A149B1
:100B6000096800EB8100A04908609F480068C00840
:100B7000C0009D4908609D48006810F04040B0F1F9
:100B8000404F00D0FEE7704780B5994800680028C4
:100B900002D097480068804701BD80B59549096833
:100BA000002902D093490968884701BD80B5924960
:100BB0000968002902D090490968884701BD10B42E
:100BC000019C02EB8402D208D200121F121F5FF0B8
:100BD00000741460121F894C1460121F884C14603A
:100BE000121F884C1460121F874C1460121F874C10
:100BF0001460121F864C1460121F864C1460121F62
:100C00005FF082441460121F834C1460121F834CE7
:100C10001460121F824C1460121F5FF08144146034
:100C2000121F804C1460121F5FF080441460121F6A
:100C30005FF07E541460121F00241460121F5FF0D6
:100C400080741460121F1060121F77481060121F0A
:100C50005FF012301060121F5FF003301060121F3F
:100C60005FF002301060121F1360121F1160121F1C
:100C70007FF012001060121F5FF011301060121F21
:100C80005FF010301060121F5FF009301060121F0B
:100C90005FF008301060121F5FF007301060121F05
:100CA0005FF006301060121F5FF005301060121FF9
:100CB0005FF004301060121F5C481060121F5C4827
:100CC0001060121F5B481060121F5B481060121FFB
:100CD0005A481060121F5A481060121F594810607D
:100CE000121F59481060121F58481060121F5848B0
:100CF0001060121F57481060121F57481060121FD3
:100D000056481060121F56481060121F5548106058
:100D1000121F5FF083401060100010BC704780B558
:100D200051480068006801F02FFA50480068002818
:100D300002D04E480068804700F0C3FE4A49096867
:100D40004B4A1268914215D047490968D1F8A8105A
:100D5000411A454A1268C2F8A41043490968D1F8FB
:100D6000AC2041490968D1F8A4108A183E490968A5
:100D7000C1F8AC203E490968C1F8A80000F07DF92F
:100D800039490968D1F8C410814203D2364909684B
:100D9000C1F8C40036480068006801F0FEF901BDE2
:100DA00080B534490968B0FBF1F000F001F801BDED
:100DB000401E314908603148006820F07F402F49CB
:100DC00008602F48006850F005002D4908602C4845
:100DD000006850F002002A49086070474C36012034
:100DE000D05B2000D45B20003836012034EF00E0D7
:100DF0005036012040360120483601200000704165
:100E000000006041000050410000404100003041BE
:100E100000002041000010410000E0400000C04000
:100E20000000A040000040402D0A20000000F841D2
:100E30000000F0410000E8410000E0410000D8411E
:100E40000000D0410000C8410000C0410000B8418E
:100E50000000B0410000A8410000A04100009841FE
:100E60000000904100008841B03601205436012036
:100E7000B4360120F05B200014E000E020ED00E03B
:100E800010E000E070B46B490968002903D145F215
:100E90001E71018039E068490988002903D145F2B3
:100EA0001D71018031E063490968624A126810329D
:100EB000614B1B885C1E002309E00A6000254D6021
:100EC00000250D810025CD60103110325B1C1D0006
:100ED0002600ADB2B6B2B542EFD300220A600022BE
:100EE0004A6000220A810022CA6052490968534AB6
:100EF000116051490988514A918000214F4AD1809F
:100F000000214E4A11810021018070BC704701818F
:100F10000021418100218181002101600021416087
:100F2000704770B44489002C0AD100200880002A40
:100F300001D00020106046F292501880002026E078
:100F400045686C682E890E80002A01D0E96811601E
:100F5000296841604168002904D100210160002115
:100F6000418102E04189491E41813448006828607E
:100F70003248056031488088401C304988802F48BD
:100F8000C088401E2D49C88000201880200070BCF9
:100F90007047F0B4059D44890689B44203D346F2F4
:100FA0009350288044E0254CA488002C03D145F2BE
:100FB0001D7028803CE0214C266834681F4F3C603F
:100FC0001E4CA488641E1D4FBC801C4CE488641C0D
:100FD0001A4FFC80194C2489184FFF88BC4203D259
:100FE000164CE488154F3C814489002C06D10660DC
:100FF000466001234381002333600DE0DB0605D406
:1010000003681E6006600023336002E043683360BB
:10101000466043895B1C438183894489A34201D292
:1010200043898381716032810498F06000202880B8
:10103000F0BC7047D85B200086212000FC350120E1
:1010400080B500F07BF800F080F800F073F801BD87
:10105000FEE710B50024EFF3108472B600F032F80A
:101060001021DFF8700101F02FF900F03FF884F350
:10107000108810BD58490860704780B5002100F005
:1010800009F8EFF3108172B60022544B1A6081F315
:10109000108802BD80B50021EFF3108172B64F4871
:1010A000006881F3108800F089F802BD80B5002146
:1010B000EFF3108172B64A48006881F3108800F09F
:1010C0007DF802BD80B547480088401C454908802E
:1010D00045480088002803D100F0F3FC434908602C
:1010E00041480088401C4049088001BD80B53E4809
:1010F0000088401E3C4908803B480088002814D1E5
:1011000000F0DFFC3A490860394801683748006858
:10111000081A32490968814201D2304908603049D1
:101120000968814201D22E49086001BD00202C4986
:101130000860704780B5FFF78CFF01BD80B50020C7
:101140002549086000F09EFC01BD70B50025002017
:101150002449088000202449088000202349086091
:1011600000202349086000201C49086000201C4919
:10117000086000201F4908600026EFF3108572B652
:1011800000240AE0002015490860FFF79BFFFFF7E5
:10119000ADFF124800688619641CA4B2002CF1D07F
:1011A0000120B6FBF0F01349086000200B490860ED
:1011B00000200B49086085F3108870BD0D4909684F
:1011C000814203D20B490968401A00E000207047B1
:1011D00000000000EC3501201836012028360120DF
:1011E0002C360120BC360120BE3601201C360120E1
:1011F0002036012024360120002004E000211B4A73
:1012000042F82010401C0028F8D0704710B5002488
:101210001648006801F0CBF804192000C0B210BDD8
:101220000022C0B20121D0F11F0011FA00F001002C
:101230000E48D2B250F8220001430C48D2B240F816
:10124000221070470022C0B20121D0F11F0011FA14
:1012500000F001000548D2B250F8220030EA010146
:101260000248D2B240F82210704700003C360120FC
:1012700010B50400FFF771FC0020DFF86817087054
:101280000020DFF8641708700020DFF8601708708E
:101290000020DFF85C1708600020DFF858170860AE
:1012A0000020DFF8541708700020DFF8501708708E
:1012B000DFF84C070168002909D0DFF8480700680B
:1012C00003E0401E00220A60091D0028F9D1002019
:1012D000DFF8341708600020DFF8301708600020BE
:1012E000DFF82C1708600020DFF8281708600020BE
:1012F000DFF8241708600020DFF8201708600020BE
:10130000DFF81C1708600020DFF818170870FFF7D7
:1013100073FF00F0C5FA0020DFF80C17086000200A
:10132000DFF808170880200001F04CF8208800281A
:1013300043D12000FFF7A6FD208800283DD10020E2
:10134000DFF8EC1608600020DFF8E81608800020BF
:10135000DFF8E41608600020DFF8E01608800020BF
:10136000DFF8DC1608600020DFF8D81608802000BF
:10137000FFF7B6FA208800281FD1200000F037F9C7
:101380002088002819D1200001F059F82088002871
:1013900013D1200001F098FC208800280DD12000F6
:1013A00001F014FD2088002807D101F011FE01F0A2
:1013B000D7FE0120DFF89016087010BD10B500248C
:1013C000DFF82006007800283AD1DFF82006007800
:1013D000002835D1EFF3108472B6FFF717FFDFF85E
:1013E0001C160870DFF86416DFF8100602780C206F
:1013F00042438858DFF8FC150860DFF8F8050068FC
:10140000DFF8EC150968884202D184F3108817E0F0
:10141000DFF8E0050068D0F8A000401CDFF8D41524
:101420000968C1F8A000DFF828060068401CDFF852
:101430002016086000F0F4FE84F31088BFF36F8F6D
:1014400010BD38B504000025DFF8980500780028A5
:1014500003D046F66250208023E0DFF88C05007848
:10146000012803D045F6896020801AE0DFF87C056A
:101470000078FA2803D345F20920208011E0EFF329
:10148000108572B6FFF71EFEDFF860050078401C7D
:10149000DFF858150870FFF729FE85F31088002043
:1014A000208031BD38B504000025DFF8380500780C
:1014B000002803D046F66550208032E0DFF828058A
:1014C0000078012803D045F68960208029E0DFF804
:1014D0001C050078002803D146F66450208020E0E7
:1014E000EFF3108572B6FFF7EDFDDFF80005007829
:1014F000401EDFF8F8140870DFF8F00400780028C8
:1015000007D0FFF7F3FD85F3108846F6635020807F
:1015100007E0FFF7EBFD85F31088FFF74FFF002092
:10152000208031BD10B50400DFF81C0500780128CB
:1015300003D045F68B6020803CE00020401C401C1E
:10154000401C401CDFF80C15098880B2884203D388
:1015500045F68C6020802DE0DFF88C0400780028B0
:1015600025D1FFF753FEDFF894140870DFF88C04E0
:101570000078DFF884140870DFF8D014DFF87C04FA
:1015800002780C2042438858DFF868140860DFF8BE
:1015900064040068DFF8581408600120DFF848147C
:1015A000087000F000FE43F69920208002E045F626
:1015B0008A60208010BD10B50024EFF3108472B64D
:1015C000FFF780FDDFF890040068401CDFF8881406
:1015D0000860DFF888040068401CDFF880140860A9
:1015E000FFF784FD84F31088FFF7AEFAE5E700B556
:1015F00089B00021DFF86024116008900B2007906B
:10160000002006900020059000200490DFF8500490
:1016100000680390DFF84C0400680290DFF848048B
:10162000006801901F2000900023DFF84024DFF8BD
:101630004014DFF84004FEF7DFFD09B000BD10B52F
:101640000400DFF8AC03006880F83C100020DFF8ED
:10165000A013096881F83D001100DFF894030068C9
:1016600000F0ACF9002C0BD014F10800DFF8801367
:1016700009688C63DFF87813096800F056F804E015
:101680000020DFF86C1309688863DFF864030168E1
:10169000200000F001F810BD002808D04268C1F811
:1016A000D02010F1080109688968C16113E091F840
:1016B0003C00022802D0072805D009E0DFF8B80373
:1016C000C1F8D00007E0DFF8B403C1F8D00002E0B1
:1016D000A2A0C1F8D0007047A0A2C1F8D020002875
:1016E00009D010F108010968002902D08968C16198
:1016F00001E09AA1C161704770B50400A66B16F1B4
:1017000008052868006B002807D0200000F046F884
:10171000A6632100280000F008F870BD00210160D8
:101720000021416000210181704730B4020091F82E
:101730003F301068002808D1012010810020086384
:10174000002048631160516026E01089401C108120
:10175000106800E0006B002805D01C0090F83F5096
:10176000E4B2AC42F6D2002807D1002008635068EA
:101770004863486B016351600EE0436B002B05D159
:10178000086300234B634163116005E00863426B0B
:101790004A634A6B1163416330BC7047816B002917
:1017A00028D0816B11F108021168096B002904D15E
:1017B000002111600021516013E0416B002904D128
:1017C000016B00234B6311600BE0016B002904D116
:1017D000436B00211963536003E0436B016B196392
:1017E0004B631189491E118100210163002141636E
:1017F00000218163704738B504000D00049895F806
:101800003E1000290BD002290AD008D3042906D0A3
:1018100006D3062925D002D3072922D03FE03EE097
:101820002A66A5F864302865002C02D02800FFF74E
:10183000B5FF29002000FFF74FFF95F83E00032871
:1018400002D1280000F0E9FE280000F03AF800205C
:1018500085F83E00002085F83D00002085F83C001A
:101860001DE02A66A5F864302865002C02D0280007
:10187000FFF794FF29002000FFF72EFF95F83E00A8
:10188000072802D1280000F0C8FE042085F83E0099
:10189000002085F83D00002085F83C00FFE731BDC1
:1018A00000200BE069490C2202FB00F211440022E7
:1018B0000A8100220A6000224A60401C2028F1D3DD
:1018C000704710B5040094F83F00FFF7A9FC94F8A6
:1018D0003F0049490978884203D1200000F022F8EE
:1018E00002E0200000F001F810BD584A90F83F30A7
:1018F0000C214B431A441168002908D101211181A0
:1019000000210161002141611060506009E01189EE
:10191000491C118111680161002141611168486110
:1019200010607047494A90F83F300C214B431A44ED
:101930001168002908D101211181002101610021D4
:1019400041611060506008E01189491C118100213B
:1019500001615168416108615060704720000000DA
:1019600010B50400394994F83F200C2042430A4442
:1019700061692069002913D100280AD10020108153
:10198000002010600020506094F83F00FFF75AFCE0
:101990000FE01189491E118100214161106008E0AA
:1019A00013895B1E13810861002801D1516000E09A
:1019B0004161002060610020206110BD10B504006D
:1019C0000A00002A07D021002D4800F098FD0320CE
:1019D00084F83E0002E0022084F83E002000FFF779
:1019E000BFFF10BDD2360120D3360120D7360120EB
:1019F000B0360120B4360120D5360120D63601207C
:101A0000D05B2000D45B200040360120443601200A
:101A1000483601204C360120503601205436012032
:101A200058360120DA36012064360120C036012004
:101A30006C360120C436012070360120C6360120E4
:101A400074360120C8360120D4360120042C012030
:101A500088360120CE3601205C3601207836012000
:101A6000CC5B2000C85B2000C45B2000B7152000C1
:101A7000D05A2000A8310120AC5B20008C5B2000F4
:101A80001036012080B510480068C10704D58007D2
:101A900002D50E480E490860012001F09CFB0D495B
:101AA000096851F080710B4A116000210A4A1160E7
:101AB0000A49096851F00101084A1160FFF7DAFA92
:101AC00001BD054800687047B41F00E055CEACC5A5
:101AD000B01F00E0FCED00E0041000E0001000E0AA
:101AE000F8B504000E00150000278848007800288B
:101AF00003D047F2752028803BE085480078002815
:101B000003D046F66350288033E0B6B23000002898
:101B100005D0022803D004281CD008281BD1002C93
:101B200003D147F27E20288023E0EFF3108772B6BE
:101B3000FFF7C8FA2B00320092B221007548006806
:101B400000F023FD2888002809D0FFF7CFFA87F39B
:101B500010880EE0E9E745F62560288009E06D4829
:101B60000068FFF7FDFEFFF7C1FA87F31088FFF763
:101B700025FCF1BDF8B5079D0026644C2478002CA7
:101B800003D047F275202880ACE0614C2478002C0B
:101B900003D046F663502880A4E0069F17F00E0796
:101BA000BFB23C00002C05D0022C03D0042C17D06F
:101BB000082C16D1002B0CD192B2002A09D189B27F
:101BC000002906D180B2002803D147F27E20288068
:101BD00088E0069C4FF6E176344206D1002405E009
:101BE000F7E745F6256028807CE00124E4B2012C6B
:101BF00003D145F62560288074E0069CC4F30014E8
:101C000014F00104E4B2012C1BD0B3F57A7F03D3A6
:101C100047F27B20288065E092B23C2A03D347F24A
:101C20007A2028805EE089B23C2903D347F27920EC
:101C3000288057E080B2642814D347F278202880A7
:101C400050E089B242F21074A14203D347F27920E6
:101C5000288047E080B2B0F57A7F03D347F278203E
:101C600028803FE02C4C246880B24FF4616C89B22C
:101C70003C2671430CFB001010FA82F14FF4FA700D
:101C8000B0FBF4F0C31803FB04F34FF47A70B3FB1A
:101C9000F0F004FB0104002C21D0EFF3108672B6A3
:101CA000FFF710FA2B003A0092B2210019480068A1
:101CB00000F06BFC2888002804D0FFF717FA86F3A1
:101CC00010880FE013480068FFF74AFEFFF70EFA8E
:101CD00086F31088FFF772FB0020288002E047F2AD
:101CE0007E202880F1BD70B504000026EFF3108639
:101CF00072B6FFF7E7F909480568FFF7F7F986F3C9
:101D0000108800202080280070BD0000D2360120FD
:101D1000D7360120B0360120F05B2000903601203C
:101D2000F8B504000F0015000026DFF8E80300787E
:101D3000002803D042F6E16028802BE0002C03D17C
:101D400045F6C350288025E0EFF3108672B6FFF702
:101D5000B9F9DFF8C403206067600020206200202A
:101D60006062002084F828000020E06214F108007E
:101D7000FFF7D4FC200000F0B6F9DFF8A0030088DC
:101D8000401CDFF898130880FFF7B0F986F310883D
:101D900000202880F1BD2DE9F84305000E00914692
:101DA0001C00089F5FF00008DFF868030078002837
:101DB00003D046F2AE103880D6E0002D03D145F6B0
:101DC000C3503880D0E01FFA89F94846002802D075
:101DD000B0F5004F25D12868DFF83C13884224D1A4
:101DE000EFF3108872B6FFF76DF995F82800002818
:101DF0001FD1DFF82C0300686862012085F82800F5
:101E0000002C01D0E86A20602900DFF81403006884
:101E100000F08EF9FFF76AF988F310880020388007
:101E2000A2E045F6256038809EE045F6C450388033
:101E30009AE0DFF8EC020068696A88421CD195F8E4
:101E40002800FF2807D1FFF751F988F3108845F2E1
:101E50008470388088E095F82800401C85F82800B8
:101E6000002C01D0E86A2060FFF740F988F3108861
:101E700045F28270388077E01FFA89F95FEA0940FD
:101E80000BD5FFF733F988F31088002C01D0002020
:101E9000206046F2B010388066E0A2480078002842
:101EA0000BD0FFF723F988F31088002C01D0002015
:101EB000206046F66350388056E0686A98490968A1
:101EC00091F83F1090F83F20914205D2944909685B
:101ED00091F83F10FEF7B8FD320004212800FFF70B
:101EE000AEFBFFF703F988F31088FFF767FAEFF30B
:101EF000108872B6FFF7E6F88948006890F83D0050
:101F0000002805D002281ED00BD3032813D024E0CC
:101F1000002C03D082480068006D206000203880CB
:101F20001EE0002C03D07E480068006D206046F261
:101F3000A910388014E0002C01D00020206047F266
:101F4000D92038800CE0002C03D075480068006D63
:101F5000206045F6C250388002E046F62E60388098
:101F6000FFF7C4F888F31088BDE8F1832DE9F04746
:101F700082B004000D0016005FF00008654800788C
:101F8000002803D046F20E203080AAE0002C03D1B6
:101F900045F6C3503080A4E0ADB22800002802D03E
:101FA000B0F5004F15D120685B49884215D1EFF399
:101FB000108872B6FFF786F859480068616A88424F
:101FC0000FD0FFF793F888F3108845F281703080C6
:101FD00087E045F62560308083E045F6C4503080C8
:101FE0007FE0FFF76EFD0700E76294F82800401ECF
:101FF00084F8280094F82800002807D0FFF776F826
:1020000088F3108845F2837030806AE021004448EC
:10201000006800F091F814F10809D9F800000028D0
:102020000BD100206062002084F82800FFF75EF8E2
:1020300088F310880020308053E03948006890F819
:102040003F003749096891F8401088422CD0344845
:10205000006800F07CF882463148006890F8400043
:102060005146C9B2884204D22D48006890F840A079
:10207000FFE72B48006890F83F005146C9B28842FC
:1020800012D227480068FFF76BFC2548006880F8EB
:102090003FA05046C0B2FFF7C3F821480068FFF7E1
:1020A00041FC214880F800A0D9F80090C4F82490A1
:1020B000012084F828002100484600F039F80097F4
:1020C0000023002249462000FFF795FBFFF70EF89A
:1020D00088F31088ADB2280401D4FFF76FF900200F
:1020E0003080BDE8F3870AA1C161002141610F4939
:1020F0000968002902D10021816105E00B490968C6
:1021000081610A4909684861084908607047000010
:1021100020000000D23601204D555458C43601200D
:10212000B0360120D7360120D53601206C3601208B
:10213000426C0A6241647047443001E0006820301C
:1021400002688A42FAD10168096A0160704710B4D6
:1021500001001F2011F144020FE011688968002975
:1021600008D091F83F100B000400DBB2E4B2A342A8
:1021700000D20800116811F1200211680029ECD189
:10218000C0B210BC70472000EFF3098121B120EDEF
:10219000108A3B490A6810607047B0EC108A3949D0
:1021A0000A681060704772B64EF62250CEF20000F8
:1021B00040F2FF01C0F200010170002080F30988A5
:1021C00043F23860C2F20100016881F30888FEF72B
:1021D000A6FD43F2D560C2F2010043F2D661C2F21D
:1021E00001010A78027043F2B060C2F2010043F2CA
:1021F000B461C2F201010A680260106880F30988C4
:10220000EFF3148040F0020080F31488BFF36F8F67
:10221000BDE8F04F0FBCBDE8005006BC62B60847F1
:1022200019481A49016070471748184901607047FA
:1022300072B6EFF3098020E9F04F43F2B065C2F2C5
:102240000105296808607446FEF769FD43F2D56010
:10225000C2F2010043F2D661C2F201010A780270B3
:1022600043F2B461C2F201010A682A6044F0040E2C
:102270001068B0E8F04F80F3098862B6704700003C
:10228000B0360120B436012004ED00E0000000105B
:10229000E0B50020DFF8E8100860DFF8E82002A8C9
:1022A0000190012000904FF48063DFF8DC10DFF82C
:1022B000DC0000F034F8BDF9080042F210718842E9
:1022C00001D0FEF7C5FE07BD80B50A00002100F071
:1022D00001F801BD10B40024002303E02402C9B2B8
:1022E0000C435B1C042BF9D310F00303002B08D024
:1022F00003E00170401C521E5B1C002A01D0042B1D
:10230000F7D302E00460001D121F042AFAD202E093
:102310000170401C521E002AFAD110BC70472DE9F2
:10232000F04782B004000D0016001F00DDF8288081
:10233000DDF82C905FF0000AEFF3108A72B6FEF71A
:10234000C1FE0097434632002900200000F00AF841
:10235000FEF7CCFE8AF3108842F21070A9F8000054
:10236000BDE8F38700980A608018401E48608A60C4
:1023700003480068C8600B610148016070470000B5
:1023800034360120041C0120D8350120A45B200034
:1023900072B6704762B67047EFF3108072B670473E
:1023A00080F31088704730BF704720BF7047B0FA85
:1023B00080F0704790FAA0F0B0FA80F0704790FA81
:1023C000A0F070470021054A11600021024A1180E7
:1023D0000021018070470000C236012068360120CC
:1023E00070B582B000246B46002200210020FEF769
:1023F0006BF8BDF800000028F5D1EFF3108472B639
:10240000FEF760FE0126DFF850040068401CDFF88C
:1024100048140860300000F038F90500300000F082
:1024200087F94519DFF834040068A84202D2DFF8C2
:102430002C040560FEF75AFE84F31088D3E700B53C
:1024400089B00021DFF8102411600021DFF810248A
:1024500011600021DFF80C2411600021DFF8002456
:1024600091800021DFF8F823D1800021DFF8F423E8
:1024700091800021DFF8EC23D180DFF8EC130968AC
:10248000002903D147F21221018036E0DFF8DC1386
:102490000968DFF8DC231268914203D247F2132166
:1024A00001802AE0DFF8CC1309781F2903D347F213
:1024B0001121018021E008900B2007900020069058
:1024C0000020059000200490DFF8A003006803902E
:1024D000DFF8A40300680290DFF88C030068019025
:1024E000DFF89003007800900023DFF89023DFF8F6
:1024F0009013DFF89003FDF77FFE09B000BD30B404
:10250000030014001868002809D18C650020886138
:102510000020C8610B6219600120988033E01A68BE
:10252000186803E0826DA41A02008069002821D097
:10253000826DA242F6D3C269002A0DD18C650022B9
:10254000CA6188610B62826D141B8465C161196068
:102550009888401C98800CE0C2698C65CA618861CB
:102560000B62856D2C1B8465C16191619888401C4C
:10257000988008E08C65CA61002088610B629161D7
:102580009888401C988030BC704738B5B24C25689C
:1025900092B2042A0CD1491B0A00BB498A4201D2DB
:1025A000002A2CD10021816547F27E20188033E07B
:1025B00092B2082A22D1C26DAA1A914203D20A000D
:1025C0004919C1651BE04A1BC46DA218AE4CA2425A
:1025D00001D2002A0ED1C46DC26DAD1AB5FBF1F265
:1025E00002FB01110919C1650021816547F27E20B6
:1025F000188011E0C46D0919C16500E00A000021CE
:102600001980012180F83E10AA1893490968521ACE
:1026100001009348FFF773FF31BD10B401000B6A4E
:10262000CA698869002A1BD1002808D100201860D7
:1026300000209880002088650020086223E00022A6
:10264000C261846D8A6D1419846518609888401E73
:10265000988000208861002088650020086212E0D0
:102660009061002804D0C261846D8A6D141984655C
:102670000020C8619888401E988000208861002052
:1026800088650020086210BC70472DE9F041050004
:10269000FFF717FA06000027DFF8C481D8F80040DA
:1026A000002C2FD0A06D854204D3A06D2D1A0020E0
:1026B000A06507E0A06D401BA06503E0A06D2D1A8A
:1026C0000020A065A06D00281CD17F1C94F83E005E
:1026D000012806D1002084F83E002000FFF7F1F821
:1026E00006E094F83E00052802D1042084F83E005C
:1026F000A069C8F80000D8F80040002C0AD10020DA
:10270000A8F80400A8F80670FFF7DBF9861B300074
:10271000BDE8F081B8F80400401EA8F804000020CD
:10272000E061A06D8542C9D2A06D401BA065C9E7DC
:102730002DE9F8438146FFF7C4F906000027DFF8CA
:102740002481D8F80040002C6FD0A06D814505D3BE
:10275000A06DB9EB00090020A06509E0A06DB0EB09
:102760000900A06504E0A06DB9EB00090020A06598
:10277000A06D002859D17F1C002594F83C00042846
:1027800001D1A06B456A002020660020A4F86400F7
:10279000FFF797F920652000FFF700F894F83E0056
:1027A000032806D12000FFF78CF8002084F83E00B3
:1027B00006E094F83E00072802D1042084F83E0089
:1027C000032084F83D00002084F83C00002D22D036
:1027D00095F83F0095F8401088421CD095F83F00CE
:1027E00094F83F10884216D12800FFF7B0FC010092
:1027F00095F840000A00D2B2904202D295F84010FB
:10280000FFE7080095F83F20C0B2904203D0C9B25C
:102810002800FEF719F9A069C8F80000D8F80040B0
:10282000002C0AD10020A8F80400A8F80670FFF7D1
:1028300048F9861B3000BDE8F283B8F80400401E5A
:10284000A8F804000020E061A06D81458BD2A06D46
:10285000B0EB0900A0658BE790360120943601208B
:102860000836012010360120F45B2000FC5B2000BC
:10287000EC5B2000EB5D2000F85B2000E1232000F2
:10288000F85A2000503301200100FFFF70B5050009
:102890000026EFF3108672B6FEF714FC0020DFF876
:1028A000B81408800020DFF8B41408600020DFF8B6
:1028B000B01408600020DFF8AC1408600020DFF8D6
:1028C000A8140860FEF732FC0020DFF8A01408818D
:1028D000FEF70CFC86F31088EFF3108672B6FEF755
:1028E000F1FBDFF88C040468FEF700FC86F3108827
:1028F00029E0EFF3108672B6FEF7E4FB0020C4F87F
:10290000C4000020E0670020C4F8B8000020C4F82C
:10291000A0000020A4F89A000020A4F89C00002049
:10292000C4F8AC000020C4F8B000FFF7CAF8C4F83F
:10293000A80014F1680000218181D4F8CC40FEF792
:10294000D5FB86F31088002CD3D1EFF3108672B636
:10295000FEF7B8FBDFF81C040468FEF7C7FB86F33C
:1029600010880DE0EFF3108672B6FEF7ABFB14F1A2
:10297000200000218181A469FEF7B8FB86F310884E
:10298000002CEFD10020288070BD38B50400002550
:102990006946DFF8E403FDF7EBFEBDF80000002810
:1029A00003D0BDF8000020805CE06A4600210220D0
:1029B000FFF796F8BDF80000002803D0BDF800002E
:1029C00020804FE0EFF3108572B6FEF77BFB00200E
:1029D000DFF8A8130860FEF789FB85F31088002054
:1029E000DFF89C130968DFF89C231268914207D234
:1029F000DFF890030068DFF888130968B0FBF1F096
:102A0000002805D1DFF87C0300680A21B0FBF1F053
:102A10006A460021FFF764F86946DFF85C03FDF7BA
:102A2000C0FCBDF80000002803D0BDF800002080E5
:102A300018E0EFF3108572B6FEF744FB0020DFF8D4
:102A40001C130860DFF834030068DFF83C130860EB
:102A50000120DFF838130870FEF748FB85F3108873
:102A60000020208031BD2DE9F8435FF0000907E028
:102A70006A460021DFF8080300684000FFF730F8DD
:102A8000DFF8080300780128F2D16846FFF7FEFE60
:102A90000025BB480068BB490968884205D2B9488F
:102AA0000068B7490968B0FBF1F5002D49D1B54878
:102AB00000680A21B0FBF1F543E0D4F8B00000FB58
:102AC00008F0B0FBF6F080B242F21171884201D3F7
:102AD00042F21070A4F89A00B4F89C10020092B26E
:102AE000914201D2A4F89C006B4614F1BC0214F18F
:102AF000C0012000FDF7DCFDEFF3108972B6FEF790
:102B0000E1FAD4F8CC40FEF7F1FA89F31088002CF2
:102B1000D3D19F480078012805D100209C49087036
:102B20006846FFF7B3FEFEF7CCFFC71B8B48006873
:102B3000B84201D2894807606A4600212800FEF7A2
:102B4000CFFFFEF7BEFF0700FEF7B0FA8649086028
:102B5000EFF3108972B6FEF7B5FA884800688D4920
:102B60000860002085490860FEF7C0FA89F31088E4
:102B7000884800688449096888423ED282480068D3
:102B80008549884203D242F2107201201CE07E483F
:102B900000688249884203D24FF47A720A2013E017
:102BA000794800687E49884202D2642264200BE0A2
:102BB000754800687B49884203D20A224FF47A7034
:102BC00002E0012242F210706F490968B1FBF0F196
:102BD00042F210736F4800684243B2FBF1F01B1AD7
:102BE000714803805C4800886F490988884207D291
:102BF0006D4800885849088002E000206A49088032
:102C0000FDF7C2FF0026EFF3108972B6FEF75AFAFD
:102C100057480468FEF76AFA89F310881DE0EFF35D
:102C2000108972B6FEF74EFAD4F8AC00C4F8B000C2
:102C30000020C4F8AC00FEF759FA89F31088D4F8E4
:102C4000B0008619EFF3108972B6FEF73BFAD4F89C
:102C5000CC40FEF74BFA89F31088002CDFD1002E10
:102C600023D04D48864203D242F21078012019E069
:102C70004A48864203D24FF47A780A2012E0484844
:102C8000864203D25FF0640864200BE04548864228
:102C900004D25FF00A084FF47A7003E05FF0010895
:102CA00042F21070B6FBF0F602E05FF00008012679
:102CB000EFF3108972B6FEF705FA2D480468FEF7A7
:102CC00015FA89F3108822E700B589B000212B4A54
:102CD000116000212F4A116000212B4A1160002150
:102CE0002A4A117000212A4A1170304909680029C6
:102CF00003D146F62B6101802CE02D4909682D4A4D
:102D00001268914203D246F62C61018022E02A49E2
:102D100009781F2903D346F62A6101801AE008903A
:102D200003200790002006900020059000200490CA
:102D30001F48006803902148006802901B48006803
:102D400001901D480078009000231D4A1D491E482F
:102D5000FDF752FA09B000BDCC36012084360120BF
:102D600094360120A036012060360120FC35012078
:102D70008C36012070360120243401207836012061
:102D8000DC5B2000F05B20007C360120D93601207E
:102D9000D836012080360120801A060000093D0047
:102DA000005A62020084D717CA360120E05B200077
:102DB000E85B2000EC5B2000EA5D2000E45B200083
:102DC000672A2000E45A20007C32012010B58AB026
:102DD000040000206E49086000206B490860002054
:102DE0006A4908806B480068002808D06A48006873
:102DF00068490968B0FBF1F06849086006E0664878
:102E000000680A21B0FBF1F064490860634800687B
:102E10006349086000206349086000206249086037
:102E2000220062496248FEF77BFF2088002835D1E6
:102E300060480068002803D147F2473020802DE029
:102E40005D4800685D490968884203D247F248300E
:102E5000208023E05A4800781F2803D347F24630E9
:102E600020801BE008940B20079000200690002093
:102E70000590002004905048006803905148006875
:102E800002904C48006801904D4800780090002363
:102E90000FF24D024C494D48FDF7AEF90AB010BD96
:102EA00039490968814207D1026937490A60002A15
:102EB00008D00021516105E04269016911610029D2
:102EC00000D04A61012180F8261000210161002113
:102ED00041612E480088401E2C4908807047000040
:102EE0007CB50AE0FEF7EDFD451B2F480068A842BF
:102EF00001D22D48056000F040F86B4601AA002180
:102F00000020FDF7E1FA00F02EF8FEF7DAFD0500EB
:102F100024480068401C234908601B480468002CB2
:102F2000E0D06846FEF78DFA2669A069401EA061D0
:102F3000A069002812D1A08C022806D02000FFF73B
:102F4000AFFF032084F8260001E0206AA061A26898
:102F50001000002802D0E168200090473400684645
:102F6000FEF7A0FADBE7E0B501A8009002AB002273
:102F700000210F48FEF70FFF07BD80B56A4600210C
:102F80000B48FEF7F3FF01BD9C360120D03601202F
:102F900098360120005C2000F05B2000A83601205C
:102FA000AC360120A4360120A03601202C5B200085
:102FB00058350120045C20000C5C2000EC5B2000F4
:102FC000EC5D2000085C2000905A20002434012091
:102FD0002148224A22482348234A24482449254894
:102FE0002548264826482749274928492848294965
:102FF00029482A492A492B492B492C482C482D4835
:103000002D492E482E492F492F4930493049314901
:1030100031483248324833483349344934493548D5
:1030200035483648364937493749384A38493948A2
:1030300039483A483A483B483B483C483C493D4877
:103040003D483E493E493F483F4840494048414845
:1030500041494249704700BFED5D2000185C2000E7
:10306000EE5D2000EF5D2000105C2000F05D200090
:1030700050592000F15D2000F25D2000F35D20003A
:10308000F45D2000063220006E402000145A20001B
:10309000F55D200076412000F65D2000105A2000EA
:1030A000565A2000625A200094582000F75D2000F4
:1030B000F85D2000F95D2000BE5A2000FA5D200076
:1030C000D05D2000D25D2000D45D2000D65D2000C0
:1030D000D85D2000C4582000FB5D2000FC5D20006E
:1030E000FD5D2000FE5D2000DA5D2000FF5D200018
:1030F00078592000005E2000015E2000025E200062
:10310000035E2000DC5D2000DE5D2000145C2000FA
:10311000045E2000055E2000065E2000075E2000A1
:10312000085E2000095E20000A5E20000B5E200081
:10313000E05D20000C5E20000D5E2000E25D2000BE
:10314000E45D20000E5E20000F5E2000F458200099
:10315000105E2000115E2000E65D2000E85D20008A
:10316000704700B593B0012005905FF48030069061
:103170000020089002200B905FF480000C90192032
:103180000D904FF4D8700E9002200F9009201090EF
:1031900005A800F039F8C0B2002800D0FEE700F022
:1031A000E1FBC0B2002800D0FEE70F200090022013
:1031B0000190002002904FF4A05003904FF48050F3
:1031C00004900721684600F076FAC0B2002800D0CB
:1031D000FEE713B000BD80B5C0B2002805D00228BC
:1031E00009D005D3032809D00BE000F035FB09E036
:1031F00000F078FB06E000F078FB03E000F085FBD0
:1032000000E0012002BD280070B582B00400002655
:1032100000252078C00740F18480DFF8140700689B
:1032200010F00C0004280BD0DFF80407006810F041
:103230000C0008280ED1DFF8FC060068400209D512
:10324000DFF8E806006880036BD56068002868D165
:1032500001202FE26068B0F5803F08D1DFF8CC068E
:10326000006850F48030DFF8C416086038E0606809
:10327000002810D1DFF8B406006830F48030DFF8A1
:10328000AC160860DFF8A406006830F48020DFF890
:103290009C16086024E06068B0F5A02F10D1DFF81C
:1032A0008C06006850F48020DFF880160860DFF894
:1032B0007C06006850F48030DFF8701608600FE07C
:1032C000DFF86806006830F48030DFF860160860C8
:1032D000DFF85806006830F48020DFF850160860E8
:1032E000606800280ED000F08EFB0600DFF83C0678
:1032F0000068800315D400F086FB801B6528F5D399
:103300000320D7E100F07FFB0600DFF8200600680D
:10331000800306D500F077FB801B6528F5D30320DA
:10332000C8E1207880072BD5DFF80406006810F08C
:103330000C0F0BD0DFF8F805006810F00C0008281F
:103340003BD1DFF8F0050068400236D4DFF8DC0539
:103350000068800704D5E068012801D00120A9E1B8
:10336000DFF8C80500685FF0F851B1FA81F130F07C
:10337000F800226912FA01F10843DFF8B01508607D
:103380002078000772D56069002858D0DFF8B005B2
:10339000006850F00100DFF8A815086000F033FB6A
:1033A0000600DFF89C05006880075FD400F02BFB67
:1033B000801B0328F5D303207CE1E068002827D098
:1033C000DFF86805006850F00100DFF8601508605C
:1033D00000F019FB0600DFF854050068800706D4EA
:1033E00000F011FB801B0328F5D3032062E1DFF816
:1033F0003C0500685FF0F851B1FA81F130F0F80057
:10340000226912FA01F10843DFF820150860B7E7D6
:10341000DFF81805006840084000DFF81015086064
:1034200000F0F1FA0600DFF8040500688007A7D570
:1034300000F0E9FA801B0328F5D303203AE1DFF816
:103440000005006840084000DFF8F414086000F050
:10345000DAFA0600DFF8E8040068800706D500F015
:10346000D2FA801B0328F5D3032023E120784007FC
:1034700040F1A580DFF8CC040068C0000FD4DFF86D
:10348000C404006850F08050DFF8B8140860DFF81A
:10349000B404006810F08050009000980125DFF817
:1034A000A8040068C00516D4DFF89C04006850F436
:1034B0008070DFF89414086000F0A5FA0600DFF8C9
:1034C00088040068C00506D400F09DFA801B6528BA
:1034D000F5D30320EEE0A068012808D1DFF86C04E2
:1034E000006850F00100DFF86414086037E0A0685D
:1034F000002810D1DFF85404006840084000DFF8CD
:103500004C140860DFF84404006830F00400DFF871
:103510003C14086023E0A068052810D1DFF82C04D3
:10352000006850F00400DFF824140860DFF81C0481
:10353000006850F00100DFF8141408600FE0DFF8B5
:103540000C04006840084000DFF800140860DFF851
:10355000FC03006830F00400DFF8F0130860A06896
:10356000002810D000F04FFA0600DFF8E0030068F2
:10357000800719D400F047FA801B41F28931884254
:10358000F3D3032096E000F03EFA0600DFF8BC0318
:103590000068800708D500F036FA801B41F28931B7
:1035A0008842F3D3032085E0EDB2012D07D1DFF887
:1035B0009403006830F08050DFF888130860A06939
:1035C000002876D0DFF86803006810F00C000828A7
:1035D0006DD0A069022853D1DFF85003006830F0A5
:1035E0008070DFF84813086000F00DFA0600DFF87D
:1035F0003C030068800106D500F005FA801B032813
:10360000F5D3032056E0DFF84803B0FA80F14FF419
:103610004040B0FA80F2F020B0FA80F30E20B0FA09
:1036200080F5E669206A0643606A10FA01F13143C9
:10363000A06A4008401E10FA02F21143E06A10FA34
:1036400003F31943206B10FA05F52943DFF8E40270
:103650000160DFF8D802006850F08070DFF8CC120B
:10366000086000F0D0F90600DFF8C00200688001B1
:103670001FD400F0C8F9801B0328F5D3032019E0FC
:10368000DFF8A802006830F08070DFF8A012086050
:1036900000F0B9F90600DFF894020068800108D54F
:1036A00000F0B1F9801B0328F5D3032002E00120CC
:1036B00000E0002076BD70B504000D000026DFF8A4
:1036C0009402006810F00F00A84211D2DFF88402C3
:1036D0000068000900012843DFF878120860DFF86D
:1036E0007402006810F00F00A84201D00120B2E07F
:1036F0002078800709D5DFF83802016831F0F00141
:10370000A0680143DFF8280201602078C0075CD57B
:103710006068012806D1DFF814020068800312D423
:10372000012098E06068022806D1DFF800020068F6
:10373000800108D401208EE0DFF8F00100688007E6
:1037400001D4012087E0DFF8E801016889088900D9
:1037500060680143DFF8D801016000F054F9060009
:10376000606801280FD1DFF8C801006810F00C0074
:1037700004282AD000F047F9801B41F289318842A1
:10378000F1D3032067E0606802280FD1DFF8A001C1
:10379000006810F00C00082817D000F034F9801BE6
:1037A00041F289318842F1D3032054E0DFF88001EF
:1037B000006810F00C0F08D000F025F9801B41F2D2
:1037C00089318842F2D3032045E0DFF888010068A0
:1037D00010F00F00854211D2DFF87801006800096F
:1037E00000012843DFF86C110860DFF86801006809
:1037F00010F00F00A84201D001202CE020784007F3
:1038000008D5DFF82C01016831F4E051E06801438C
:10381000474801602078000708D54548006830F423
:103820006040216950EAC1004149086000F014F885
:103830003F490968DFF8202111F0F0015FF0706363
:10384000B3FA83F3D940515CC8403C4908600F206B
:1038500000F0D3F8002070BD0020002100200020DF
:103860003348006810F00C00002804D0042804D06D
:10387000082804D034E0304833E0384831E02D489F
:10388000006810F03F002B49096849020DD529490D
:103890000A683249B1FBF0F147F6C07002402C488B
:1038A000B0FA80F0C24051430CE022490A68224934
:1038B000B1FBF0F147F6C07002402548B0FA80F045
:1038C000C24051431B48006810F440304FF440425E
:1038D000B2FA82F2D040401C4000B1FBF0F000E0B0
:1038E0001548704715480068704780B5FFF7FAFF24
:1038F0000F4909681A4A11F4E0515FF46013B3FAF2
:1039000083F3D940515CC84002BD80B5FFF7EAFFA0
:1039100007490968124A11F460415FF4E023B3FAE1
:1039200083F3D940515CC84002BD0000003802401A
:1039300008380240043802400024F400000001204E
:103940007438024040380240007000407038024035
:103950000000FE03003C02403C5B200040787D01FB
:10396000BC5B200010B582B000241F48006850F0F6
:1039700080501D4908601C48006810F0805000907D
:1039800000981848006850F480301649086000F02C
:103990003AF8040012480068C00308D400F033F875
:1039A000001B40F2E9318842F4D3032016E00D48B1
:1039B000006850F400300B49086000F024F804005F
:1039C00007480068800308D400F01DF8001B40F28F
:1039D000E9318842F4D3032000E0002016BD000046
:1039E00004700040007000404038024080B5012063
:1039F000FFF7F1FBFDF7D4F901BD80B5002000F021
:103A000015F8002002BD80B56846FEF76CF902BDCE
:103A100010F0070007490A684FF6FF010A400649FF
:103A200051EA00210A4303480260704780B5FFF75E
:103A3000EFFF01BD0CED00E00000FA0500B58BB012
:103A400000F000FBFFF78DFBFDF7FAFAFEF720FC14
:103A500000F00EFBFEF79CFC09A8FDF709FC00F046
:103A60003BFB09A808900320079000200690002047
:103A70000590002004904FF480700390DFF86805F3
:103A8000406E0290DFF86005019002200090002354
:103A90000FF21502DFF85415DFF89405FCF7ACFBC4
:103AA00009A8FDF73FFDFEE7E0B500F05EFB02A8C8
:103AB000FEF76BFFFDF7E1FA00F092F800F00EF868
:103AC000002000F081FB02A80190002000906423F8
:103AD000002200210020FEF74DF8F1E700B58BB081
:103AE00009A8089003200790002006900020059068
:103AF000002004904FF480700390DFF8F404406ECF
:103B00000290DFF8EC0401900320009000230FF2F4
:103B10001512DFF8E014DFF8E004FCF76DFB09A8EC
:103B200008900320079000200690002005900020B8
:103B300004904FF480700390DFF8C004406E029050
:103B4000DFF8B80401900320009000230FF24D121B
:103B5000DFF8A014DFF8A804FCF74EFB09A80890D2
:103B60000720079000200690002005900020049078
:103B70004FF400700390DFF88C04D0F8CC00029072
:103B8000DFF8800401900420009000230FF27D12E2
:103B9000DFF87414DFF87404FCF72EFB09A8089012
:103BA0000720079000200690002005900020049038
:103BB0004FF400700390DFF85804D0F8CC00029066
:103BC000DFF84C0401900420009000230FF2D5226E
:103BD000DFF83414DFF85C04FCF70EFB0BB000BD1B
:103BE00080B56B460022DFF82C14DFF82C0400F0BF
:103BF000F7FA6A46DFF82414DFF82404FEF790F899
:103C00006B460122DFF81C14DFF81C0400F076FC80
:103C10006B460022DFF81414DFF81C0400F028FEC5
:103C200001BD0000E0B502AA0021DFF8EC0300F0BE
:103C3000D0FB02A80090002300220021DFF8E0035F
:103C4000FEF7A9F802A8019000200090642300224A
:103C500000210020FDF78EFF02AA0021DFF8C0033B
:103C6000FEF784F902A80090002301220121DFF869
:103C7000B80300F05DFD02AB00220121DFF8B803BC
:103C800000F0C1FF02A80190002000900A2300224A
:103C900000210020FDF76EFFC5E70000E0B502A897
:103CA0000090002300220021DFF86C0300F0D1FA1D
:103CB00002A80090002300220021D948FEF76BF8EB
:103CC00002AA0021D648FEF751F902A8019000206F
:103CD00000900DF10A0300220021D34800F051FCAE
:103CE00002A80190002000904FF48273002201216D
:103CF000D14800F0F6FD02A80190002000900A23B0
:103D0000002200210020FDF735FFC8E710B52DED9A
:103D10000A8B84B012E0401E0028FCD1E4B2112CC2
:103D200022D3FFE7E4B2102C02A8019000200090FB
:103D30000A23002200210020FDF71CFF9FEDA99A15
:103D4000B0EE088AF1EE008A78EE689A0024F5EE6B
:103D5000409AF1EE10FA07D5B7EEE90ABFEE002B54
:103D600020EE020BF7EEC09BB7EEE90AB7EEC91AD8
:103D7000B0EE003B21EE031BB4EE401BF1EE10FA57
:103D800002D4E4B2152CCDD338EE280AB7EEC00A1F
:103D9000B0EE002B80EE020BF7EEC09BB7EEC80A28
:103DA000BFEE002B20EE020B01F024F8B0EE40AB8A
:103DB000B7EEC80A01F0ACF99FEDA02B20EE02BBD4
:103DC000B7EEC80A01F0A2F9B6EE002B00EE42BB36
:103DD0002BEE0A0BB7EEC0BBB7EEE90ABFEE002B25
:103DE00020EE020B01F006F8B0EE40ABB7EEE90AA8
:103DF00001F08EF99FED912B20EE02CBB7EEE90A90
:103E000001F084F9B6EE002B00EE42CB2CEE0A0B4B
:103E1000B7EEC00BB5EE40BAF1EE10FA04DDB5EE28
:103E2000400AF1EE10FA09D4B5EE40BAF1EE10FAFC
:103E300007D5B5EE400AF1EE10FA02DDF0EE698A20
:103E400017E0B5EE40BAF1EE10FA04DDB5EE400A27
:103E5000F1EE10FA0BDCB5EE40BAF1EE10FA7FF598
:103E600061AFB5EE400AF1EE10FA7FF55BAFB0EE50
:103E7000698A78EE689AF5EE409AF1EE10FA07D565
:103E8000B7EEE90ABFEE002B20EE020BF7EEC09B67
:103E9000641C00F001F94FF47A71B0FBF1F201FB00
:103EA000120039E710B52DED048B84B012E0401EEE
:103EB0000028FCD1E4B2132C22D3FFE7E4B2122C89
:103EC00002A80190002000900A2300220021002077
:103ED000FDF750FE9FED438AF7EE008AB1EE009A9F
:103EE00078EEC99A0024F5EE409AF1EE10FA07D563
:103EF000B7EEE90ABFEE002B20EE020BF7EEC09BF7
:103F0000B7EEE90AB7EEC81AB0EE003B21EE031B8C
:103F1000B4EE401BF1EE10FAD0D538EE890AB7EEB8
:103F2000C00AB0EE002B80EE020BB7EEC00B68EEBD
:103F3000A80AB7EEE01AB8EE083B31EE031BF7EE25
:103F4000C10B20EE001AB7EEC11AB8EE083B31EEF5
:103F5000031BB7EEC11BF5EE400AF1EE10FA04DDCB
:103F6000B5EE401AF1EE10FA09D4F5EE400AF1EE82
:103F700010FA07D5B5EE401AF1EE10FA02DDB0EEF8
:103F8000409A15E0F5EE400AF1EE10FA04DDB5EEC8
:103F9000401AF1EE10FA09DCF5EE400AF1EE10FAE3
:103FA0008CD5B5EE401AF1EE10FA87D5F0EE408AC6
:103FB00078EEC99AF5EE409AF1EE10FA07D5B7EE11
:103FC000E90ABFEE002B20EE020BF7EEC09B641C4B
:103FD00000F062F84FF47A71B0FBF1F201FB1200CD
:103FE00066E70000ACC52737041001200C5B2000F9
:103FF00004140120785A2000582E012004180120B2
:104000002C2F0120040001201C5B20000030012027
:10401000040801205C5B200088350120685B2000DB
:10402000F8340120745B200028350120805B2000DB
:10403000842D0120D4300120B03501209A9999991E
:104040009999094080B50848006850F40070064905
:1040500008600320FFF7EAFC0F20FFF7CEFC00F01A
:1040600005F8002002BD0000003C0240704704003B
:1040700080B5012000F001F801BD38B5040000252D
:10408000EFF3108572B6FDF71DF811480460FDF7D7
:104090002DF885F3108831BD38B50025EFF3108574
:1040A00072B6FDF70FF80A48006800F009F804003E
:1040B00007480460FDF71AF885F31088200032BD28
:1040C000044A43F2390102FB001020F0004070471F
:1040D000303601206D4EC64110B50024EFF3108438
:1040E00072B6FCF7EFFF0FF25D000F4908600FF2A8
:1040F00059000E4908600FF255000D4908600FF293
:1041000055000C4908600FF255000B4908600FF28A
:1041100055000A4908600FF2510009490860FCF790
:10412000E5FF84F3108810BD4C3601205036012085
:104130004036012044360120483601205436012003
:1041400058360120704700007047000081B0684673
:1041500001B0704781B0684601B0704781B06846D1
:1041600001B0704770470000704780B5FFF73EFC14
:1041700000F002F801BD200000B587B016480068C5
:1041800050F02000144908601348006810F0200027
:10419000009000984FF4806001900120029001206F
:1041A00003900320049001A90C4800F0B3FF002005
:1041B00000F002F807B000BD80B501224FF4806125
:1041C000064801F0A4F801BD80B54FF480610348B2
:1041D00001F0A7F801BD0000303802400014024091
:1041E0002DE9F04104000E0090461D000027DFF885
:1041F000F4020078002803D042F6E160288026E02F
:10420000002C03D145F6C350288020E0EFF310873F
:1042100072B6FCF757FFDFF8D0022060C4F82080A8
:1042200000206062666014F10800FDF777FA200054
:1042300000F042F9DFF8B4020088401CDFF8AC124D
:104240000880FCF753FF87F3108800202880BDE822
:10425000F0812DE9F84305000E0091461C00089FEF
:104260005FF00008DFF87C020078002804D046F2F6
:10427000AE103880002085E0002D04D145F6C350F3
:10428000388000207EE01FFA89F94846002802D0D5
:10429000B0F5004F1CD12868DFF84C1288421CD1C1
:1042A000EFF3108872B6FCF70DFF286A002819D0CA
:1042B000286A401E2862002C01D0686A20602C6A9F
:1042C000FCF714FF88F3108800203880200059E0A4
:1042D00045F625603880002054E045F6C45038800B
:1042E00000204FE01FFA89F95FEA09400DD5002C44
:1042F00001D0002020602C6AFCF7F8FE88F31088BB
:1043000046F2B010388020003CE0DFF8E40100788D
:1043100000280CD0002C01D000202060FCF7E6FE25
:1043200088F3108846F66350388000202AE0320077
:1043300006212800FDF783F9FCF7D8FE88F31088E2
:10434000FDF73CF8EFF3108872B6FCF7BBFEDFF820
:10435000A401006890F83D00002805D0022825D06F
:1043600012D303281AD02BE0002C03D06148006838
:10437000006D2060002038802C6AFCF7B7FE88F3BF
:1043800010882000BDE8F283002C03D05948006853
:10439000006D206046F2A9103880EDE7002C01D0B6
:1043A0000020206047F2D9203880E5E7002C03D0B8
:1043B00050480068006D206045F6C2503880DBE749
:1043C00046F62E603880FCF791FE88F310880020B6
:1043D000D8E72DE9F8430400884615000027002C93
:1043E00004D145F6C3502880002063E01FFA88F806
:1043F0004046002808D0B0F5007F05D0B0F5004F4A
:1044000002D0B0F5024F1DD12068374988421ED135
:10441000FDF757FB0600EFF3108772B6FCF752FE6C
:1044200014F108010868002824D1206A10F1010F56
:1044300012D1FCF75BFE87F3108846F6C550288042
:10444000002037E045F625602880002032E045F660
:10445000C450288000202DE0206A401C2062D4F83F
:1044600020806662FCF742FE87F3108800202880D7
:1044700040461FE0096800E0494600290CD0D1F809
:1044800030900096002300222000FDF7B4F91FFAB7
:1044900088F85FEA8850EFD4FCF728FE87F310888D
:1044A0001FFA88F85FEA084001D4FCF787FF002074
:1044B00028800020BDE8F28309A1C161002141618B
:1044C0000D490968002902D10021816105E00A49EE
:1044D00009688161084909684861074908607047AF
:1044E00020000000D236012053454D41C83601203E
:1044F000D7360120B0360120743601202DE9F04175
:104500000500884614001E000027DFF84C030078E1
:10451000002803D042F6E160308030E0002D03D166
:1045200045F6C35030802AE0A4B2002C03D146F2F5
:104530009450308023E0EFF3108772B6FCF7C2FD91
:10454000DFF818032860C5F80480210089B215F14E
:104550002000FCF7DCFC15F10800FDF7DFF828006F
:1045600000F064F9DFF8F8020088401CDFF8F01270
:104570000880FCF7BBFD87F3108800203080BDE881
:10458000F0812DE9F04704000E0090461D00099FC0
:104590005FF00009DFF8C0020078002804D046F27E
:1045A000AE1038800020C1E0002C04D145F6C35085
:1045B00038800020BAE0002D04D146F2D5203880A2
:1045C0000020B3E01FFA88F84046002802D0B0F57A
:1045D000004F20D12068DFF88412884220D108984B
:1045E000002802D0002008990860EFF3108972B605
:1045F000FCF768FD3B00089A290014F12000FCF745
:1046000090FC8246388800280FD1FCF76FFD89F3B3
:10461000108850468AE045F625603880002085E005
:1046200045F6C4503880002080E01FFA88F85FEA21
:10463000084008D5FCF75AFD89F3108846F2B010FF
:104640003880002072E0DFF81C020078002808D0D3
:10465000FCF74CFD89F3108846F663503880002043
:1046600064E0320005212000FCF7E9FFFCF73EFD85
:1046700089F31088FCF7A2FEEFF3108972B6FCF7FD
:1046800021FDDFF8E401006890F83D00002805D026
:1046900002282FD016D3032824D03BE072480068AC
:1046A000D0F860A070480068B0F8640028800898CE
:1046B000002804D06C480068006D0899086000204C
:1046C00038802EE05FF0000A00202880089800283B
:1046D00004D065480068006D0899086046F2A9108A
:1046E00038801EE05FF0000A0020288047F2D920C1
:1046F000388016E05FF0000A002028800898002823
:1047000004D059480068006D0899086045F6C25009
:10471000388006E05FF0000A0020288046F62E6010
:104720003880FCF7E3FC89F310885046BDE8F08739
:104730002DE9F04F83B004000D0016001F00DDF8D6
:1047400030805FF0000A002C04D145F6C350A8F871
:10475000000069E0BFB23800002815D0102813D03F
:10476000B0F5007F10D0B0F5047F0DD0B0F5004F4C
:104770000AD048F21001884206D0B0F5024F03D0AB
:1047800048F21021884215D120683449884216D158
:10479000FDF797F98146EFF3108A72B6FCF792FCA9
:1047A00014F108010868002820D1BFB2F8060BD424
:1047B00000230AE045F62560A8F8000034E045F63D
:1047C000C450A8F800002FE01023CDF80480CDF8E5
:1047D00000909BB2320092B2290014F12000FCF745
:1047E000D8FBFCF783FC8AF310881DE0096800E021
:1047F000594600290CD0D1F830B0CDF800903300E4
:104800009BB22A002000FCF7F6FFBFB2B805EFD438
:10481000FCF76CFC8AF31088BFB2380401D4FCF7B3
:10482000CDFD0020A8F80000BDE8F78F09A1C16107
:10483000002141610D490968002902D100218161EF
:1048400005E00A4909688161084909684861074922
:104850000860704720000000D236012051554555B0
:10486000C6360120D7360120B0360120703601202F
:104870002DE9F04104000F0090461D000026DFF8EE
:1048800008050078002803D042F6E160288026E081
:10489000002C03D145F6C350288020E0EFF31086AA
:1048A00072B6FCF70FFCDFF8E40420606760C4F820
:1048B00020800020606214F10800FCF72FFF200028
:1048C00000F04BFADFF8C8040088401CDFF8C01481
:1048D0000880FCF70BFC86F3108800202880BDE8D8
:1048E000F0812DE9F84F04000E0017009846DDF81E
:1048F0002C905FF0000BDFF890040078002805D0C2
:1049000046F2AE10A9F80000002070E1002C05D19D
:1049100045F6C350A9F80000002068E11FFA88F8A6
:104920004046401E01281AD9C01E18D0001F16D0BC
:10493000F938012813D9C01E11D0001F0FD047F637
:10494000F961401A01280AD9C01E08D0001F06D0FC
:10495000F938012803D9C01E01D0001F0CD12068EE
:10496000DFF8281488420DD11FFA88F85FEAC85092
:104970000ED55FF0010A0DE045F62560A9F80000AC
:10498000002034E145F6C450A9F8000000202EE1D3
:104990005FF0000A0A98002802D000200A990860F7
:1049A00018F00F00ADF80000EFF3108B72B6FCF7B3
:1049B00089FBBDF80000042802D008286BD0B3E0C2
:1049C000256A3540B5421BD15FFA8AFABAF1010F68
:1049D00002D1206AA8432062DFF8B8030068C0F85B
:1049E00088500A98002802D0606A0A990860FCF78B
:1049F0007DFB8BF310880020A9F800002800F6E06A
:104A00001FFA88F85FEA084009D5FCF76FFB8BF3C3
:104A1000108846F2B010A9F800000020E7E0DFF8A7
:104A200078030078002809D0FCF760FB8BF310882E
:104A300046F66350A9F800000020D8E03B0042464B
:104A400092B23100200000F075F9FCF74FFB8BF3B8
:104A50001088FCF7B3FCEFF3108B72B6FCF732FB57
:104A6000DFF83003006890F83D00002806D00228E7
:104A700000F0848062D3032871D090E00A98002867
:104A800005D0DFF810030068006D0A990860002067
:104A9000A9F800008BE0256A3540002D1BD05FFA95
:104AA0008AFABAF1010F02D1206AA8432062DFF826
:104AB000E4020068C0F888500A98002802D0606AB2
:104AC0000A990860FCF712FB8BF310880020A9F804
:104AD000000028008BE01FFA88F85FEA084009D53B
:104AE000FCF704FB8BF3108846F2B010A9F8000025
:104AF00000207CE0A8480078002809D0FCF7F6FAEE
:104B00008BF3108846F66350A9F8000000206EE091
:104B10003B00424692B23100200000F00BF9FCF756
:104B2000E5FA8BF3108894E7FCF7E0FA8BF3108832
:104B300045F62560A9F80000002058E00A980028F2
:104B400004D094480068006D0A990860FCF7CEFA1A
:104B50008BF3108846F2A910A9F8000027E00A9804
:104B6000002802D000200A990860FCF7BFFA8BF3F6
:104B7000108847F2D920A9F8000018E00A98002808
:104B800004D084480068006D0A990860FCF7AEFA0A
:104B90008BF3108845F6C250A9F8000007E0FCF737
:104BA000A5FA8BF3108846F62E60A9F80000B9F834
:104BB0000000002801D0002019E076480068D0F8F5
:104BC00088505FFA8AFABAF1010F08D1BDF80000E7
:104BD000042801D008280CD1206AA8432062FCF7E1
:104BE00085FA8BF310880020A9F800002800BDE8A2
:104BF000F28FFCF77BFA8BF3108845F62560A9F855
:104C000000000020F3E72DE9F84304008946150071
:104C10001E005FF00008002C04D145F6C350308020
:104C2000002085E020685949884204D045F6C450E8
:104C3000308000207CE0FCF744FF0700ADB2280084
:104C4000002809D001281FD0B0F5004F04D048F249
:104C50000101884218D022E0EFF3108872B6FCF709
:104C600031FA206A59EA0009C4F82090676214F109
:104C700008010868002817D1FCF738FA88F3108873
:104C800000203080206A53E0EFF3108872B6FCF702
:104C900019FA206A30EA0909C4F82090E6E745F6D7
:104CA00025603080002043E0086815E0216AD0F8D4
:104CB00084201140D0F88420914202D13A0000F0C3
:104CC0006FF808E0216AD0F884201140002902D052
:104CD0003A0000F065F84846002813D0D0F830902C
:104CE00090F88C1011F00F0189B20429DED0082948
:104CF000E8D0FCF7FBF988F3108843F6FF203080FA
:104D0000002015E0FCF7F2F988F31088ADB2280412
:104D100001D4FCF753FBEFF3108872B6FCF7D2F91D
:104D2000246AFCF7E3F988F3108800203080200023
:104D3000BDE8F28310B5174C2468C4F884101549F7
:104D40000968A1F88C200021124A1268C2F8881064
:104D50001A000121FCF773FC10BD0AA1C1610021FA
:104D600041610E490968002902D10021816105E0F5
:104D70000A49096881610949096848610749086069
:104D80007047000020000000D2360120464C414709
:104D9000C0360120B0360120D7360120643601200C
:104DA00010B50400C4F88810002084F83D000020ED
:104DB00084F83C00226594F83E00801E012803D947
:104DC000001F01280ED911E094F83E00032802D1FB
:104DD0002000FDF722FC2000FCF773FD002084F882
:104DE0003E0003E0042084F83E00FFE72000FCF7CB
:104DF000D5FC10BD51EC100B48004015401C0CD1E7
:104E000048004015401C01D109030BD151EC100B97
:104E1000C80F07D09FED040B70470020B7EE001BB2
:104E200000F0A4BA704700BF0000000000000000BE
:104E30009FED8A2B034620EE021B70B451EC110B40
:104E400021F0004055EC114B054645EC124B9FED0F
:104E5000854BB4EE442BF1EE10FA2ED5B6EE002BB6
:104E600051EC120B084655EC114B05F0004108437C
:104E700055EC124B054645EC124B31EE021BBDEED4
:104E8000C11B11EE100A002800F09380BAEEC21B7D
:104E90009FED763B01EE430B9FED763B01EE430B1E
:104EA0009FED763B01EE430B9FED763B01EE430B0E
:104EB0009FED763B01EE430B7BE051EC100B48007D
:104EC0004015401C51EC100B0AD148004015401C05
:104ED00002D1090340F0C0809FED6E0B70BC70479B
:104EE00021F000410024A14208BFA04206D1002BBE
:104EF00000F0B280B7EE000B70BC7047B6EE002B2E
:104F0000002651EC120B084655EC114B05F0004100
:104F1000084355EC124B054645EC124B31EE021B93
:104F200051EC110B4D00440045EAD075B54208BF65
:104F3000B44219D040F23342A2EB5554352C04DB75
:104F400000F0000001F000410CE0202C03DD203CCB
:104F5000E140A14000E001D1002003E0012CA4BF0A
:104F6000E040A04041EC110B51EC110B20F000048B
:104F700031F0004508BFB44217D09FED483B21EE09
:104F8000032B9FED3A4B02EE440B9FED3A4B02EEA2
:104F9000440B9FED3A4B02EE440B9FED3A4B02EE71
:104FA000440B9FED3A4B02EE440BBDEEC11B11EEDC
:104FB000100A55EC104B00F0030025F00045C31813
:104FC00045EC114B03F001009FED363BB4EE431B63
:104FD000F1EE10FA04D500283AD0B7EE000B37E016
:104FE00020EE001BD0B19FED312B9FED324B01EE37
:104FF000024B9FED325B04EE015B9FED324B05EE01
:10500000014B9FED325B04EE015B9FED324B05EEF1
:10501000014BB7EE000B04EE010B19E09FED2F4B97
:105020009FED306B01EE046B9FED307B06EE017B54
:105030009FED306B07EE016B9FED307B06EE017B41
:105040009FED306B20EE012B07EE016B02EE060B9D
:10505000980748BFB1EE400B70BC704783C8C96D5C
:10506000305FE43F0000A0FFFFFFDF410000005081
:10507000FB21B94100000060B41011400000002085
:1050800026A6513E000000005C14D33C0000002026
:105090009A833B3BFFFFFFFFFFFFFF7F0000000005
:1050A0000000303E000000000000403E09260A10CB
:1050B00039BA213E3BA861C6F97D92BE63AC3090FF
:1050C0009F01FA3EF6FB51166CC156BFB102555511
:1050D0005555A53FAEFFFFFFFFFFDFBFB08F2FC3CA
:1050E00010D8E53D8F0C73A1E1E55ABE4DADE44FFC
:1050F000E31DC73E3EE3B519A0012ABFFAF0101127
:105100001111813F425555555555C5BF01208FE6B8
:1051100000208DE678B4002300220024002500231F
:1051200041E00A2604E0DFF804229042F9D1092682
:10513000F6B213F00302D2B2920096403543DFF884
:10514000F0211E00B60842F82650DFF8E821156865
:10515000A5434A68D20300D52543DFF8D82115605E
:10516000DFF8D4211568A5434A68920300D525438A
:10517000DFF8C4211560DFF8C4211568A5434A682B
:10518000D20200D52543DFF8B4211560DFF8B02145
:105190001568A5434A68920201D52C432500DFF823
:1051A000A02115605B1C102B80F0AF8001229A407B
:1051B0000C6814409442F5D14A68022A02D04A6829
:1051C000122A17D11A00D20800EB8202156A0F26A4
:1051D00013F00702D2B292009640B5430E6913F065
:1051E0000702D2B29200964035431A00D20800EB73
:1051F00082021562056803261A00D2B25200964058
:10520000B5430E7916F003061A00D2B2520096404A
:10521000354305604A68012A08D04A68022A05D049
:105220004A68112A02D04A68122A17D185680326D3
:105230001A00D2B252009640B543CE681A00D2B2DC
:105240005200964035438560456801229A40954357
:105250004A68C2F300129A4015434560C5680326A8
:105260001A00D2B252009640B5438E681A00D2B2EC
:10527000520096403543C5604A68D20092D5314A03
:10528000126852F480422F4D2A602E4A126812F49E
:1052900080420092009A264A1D00AD0852F825501F
:1052A0000F2613F00302D2B292009640B543264A6D
:1052B000904201D100263BE7244A904201D10126C9
:1052C00036E7234A904201D1022631E7214A904233
:1052D00001D103262CE7204A904201D1042627E77A
:1052E0001E4A904201D1052622E71D4A904201D173
:1052F00006261DE71B4A904201D1072618E71A4AE5
:1053000090427FF410AF082612E771BC7047D2B20A
:10531000002A02D089B2816102E089B20904816168
:105320007047426989B25140416170470024024090
:1053300008380140003C0140043C0140083C014069
:105340000C3C01404438024000000240000402408E
:1053500000080240000C024000100240001402400D
:1053600000180240001C02400020024038B553ECF7
:10537000102B59004915491C2DED029B23D023F019
:1053800000430024A34208BFA2421CD053EC112BBF
:1053900059004915491C16D033F0004308BFA242FA
:1053A00011D09FEDBB3BB4EE430BF1EE10FA40F190
:1053B000B38053EC112B9FEDB80B03F0004153EC7D
:1053C000102B0B46BEE053EC102B59004915491C1D
:1053D00002D11A0340F0598153EC112B59004915A1
:1053E000491C01D11A035BD153EC112B002423F08B
:1053F0000043A34208BFA24208D151EC100B480061
:105400004015401C4CD109034AD10FE053EC112B3D
:1054100059004915491C10D11A030ED151EC100B3B
:1054200048004015401C3BD1090339D1AFF300803F
:10543000BDEC029B9FED9A0B31BD53EC102B33F06A
:10544000004308BFA24230D153EC112B1A46510041
:10545000490D00EB010335D153EC112B22F0000470
:1054600023F000450022954208BF944205D0B0EEDB
:10547000410B00F041F9B0EE401B51EC110B20F054
:10548000000221F000430020834208BF824205D081
:1054900048004015401C03D1090301D1AFF300803F
:1054A000BDEC029BB0EE410B31BD51EC100B48003E
:1054B0004015401C26D1090324D1BDEC029B20EEEF
:1054C000010B31BD002BC7DD40F2FF7083420FDBC3
:1054D0009FED752B51EC120B084653EC112B03F08A
:1054E0000041084353EC122B034643EC112BC4E755
:1054F0006FF31E5251EC110B42EA0352114641EC7C
:10550000110BBAE753EC112B9FED630B03F0004135
:1055100053EC102B0B4615E09FED653BB4EE430BAF
:10552000F1EE10FA13DB9FED602B51EC120B0846E5
:1055300053EC112B03F00041084353EC122B0346AC
:10554000AFF30080BDEC029B43EC102B31BDB6EEF7
:10555000002B9FED593B53EC122B20EE033B1946D9
:1055600053EC132B03F00042114353EC122B0B4668
:1055700043EC142B33EE043BBDEEC33B13EE101A89
:10558000B8EEC33B9FED4E5B03EE450B9FED4E5BCC
:1055900003EE450B53EC102B23F0004255EC104B5F
:1055A000154645EC134B9FED4A5BB4EE453BF1EEDF
:1055B00010FA48BFB0EE410B21D420EE003B9FED26
:1055C000465B9FED477B03EE057B27EE034B9FED8C
:1055D000467B9FED479B03EE079B09EE032B22EED4
:1055E000000BB7EE002B34EE003B34EE400B33EEF5
:1055F000023B30EE020B83EE000B20EE010B53EC6E
:10560000102B40181A465100490D00EB01031FD022
:10561000002B1DDD40F2FF7083420FDB9FED222B3C
:1056200051EC120B084653EC102B03F000410843D9
:1056300053EC122B034643EC102B13E06FF31E5276
:1056400051EC100B42EA0352114641EC100B09E0F9
:1056500053EC102B002423F00043A3420CBFA242C2
:1056600000F04AF851EC100B20F0000421F0004546
:105670000020854208BF844205D048004015401CE8
:1056800003D1090301D1AFF30080BDEC029B31BD12
:105690000000000000C89CC00000000000000000E6
:1056A000FFFFFFFFFFFFFF7F000000000000F07F13
:1056B0000100000000C89C40FE822B654715F73FA3
:1056C000000000F8422EE63FF2E4D5BCE7E84B3E8E
:1056D000000000000000903C112E5781A03F503F79
:1056E0005843128C8F71BC3F4BE8A541B752013F24
:1056F0000BBDF3DAE8708C3F020030EE101B40F275
:10570000FF7C37D41CEA115313D063456BD09B1830
:10571000634504D201EB025120EE101B704701F0EB
:10572000004141EA0C51002041EC100BAFF3008026
:10573000704710EE100B50EA410054D0B2F57F7F55
:1057400008D202EB5C010905002041EC110B20EEB0
:10575000010B70474FF0FE41002341EC113B20EE5E
:10576000010BB2F57E7230EE101B4FEA410342EBA3
:105770005353CDE752421CEA115316D0634532D041
:105780009A4204D2A1EB025120EE101B70475B1E1F
:10579000D21AA1EB035120EE101B372A0CD30020A4
:1057A00001F0004141EC100BC0E710EE100B50EA85
:1057B000410018D0372AF2D2C2EB5C02110500205A
:1057C00041EC110BF1EE100A20F01F0121F4F85109
:1057D000E1EE101A20EE010BF1EE101AE1EE100AC4
:1057E00011F0080FA2D170471248006850F4700001
:1057F000104908601048006850F001000E49086028
:1058000000200E4908600C4801680D4801400A4814
:1058100001600C480C4908600748006830F480209B
:10582000054908600020094908605FF000600849E8
:105830000860704788ED00E00038024008380240F8
:10584000FFFFF6FE10300024043802400C380240FE
:1058500008ED00E019E050F8042BD30744BFA9F18C
:1058600001039A18091F0023042942F8043BF9D2C6
:105870005FEA817C134604D54FF0000CA2F800C00B
:105880009B1CC90744BF0021197050F8041B002954
:10589000E1D170470000000000000000000000009F
:1058A00000000000000000000000000000000000F8
:1058B00000000000000000000000000000000000E8
:1058C00000000000000000000000000000000000D8
:1058D00000000000000000000000000000000000C8
:1058E00000000000000000000000000000000000B8
:1058F00000000000000000000000000000000000A8
:105900000000000000000000000000000000000097
:105910000000000000000000000000000000000087
:105920000000000010B450F8041B79B1026843680D
:1059300002440830DC0744BFA9F10104E31852F81F
:10594000044B43F8044B091FF9D1ECE710BC704736
:105950000000000000000000000000000000000047
:105960000000000000000000000000000000000037
:105970000000000000000000000000000000000027
:105980000000000000000000000000000000000017
:105990000000000000000000000000000000000007
:1059A00010B5074979441831064C7C44163404E09C
:1059B0000A68081D114488470146A142F8D110BD6C
:1059C0002C0000004C0000004EF68851CEF2000181
:1059D000086840F470000860BFF34F8FBFF36F8F0B
:1059E0004FF00070E1EE100A7047000069FEFFFF03
:1059F000D8360000040001200000000029FFFFFF4E
:105A0000040000001004000000000120000000005D
:105A10001000000000000000000000000000000076
:105A20000000000000000000000000000000000076
:105A30000000000000F00BF8002801D0FFF7B0FFD5
:105A40000020AFF30080FDF7F9FF00F002F801201D
:105A5000704700F001B80C000746384600F002F825
:105A6000FBE7100080B5AFF30080024A1100182058
:105A7000ABBEFBE7260002004B65726E656C204FE3
:105A8000626A65637473205461736B203000000098
:105A900075432F4F532D4949492054696D65722034
:105AA0005461736B000000007047FEE7FEE7FEE7FD
:105AB00070477047704780B500F002F801BD3000B4
:105AC00002480068401C014908607047B836012050
:105AD00075432F4F532D4949492049646C65205423
