S014000075636F736969692D663736372E73726563E4
S2142000000020002061072000390720003B07200041
S2142000107D0720003D0720003F072000000000004D
S2142000200000000000000000000000004107200043
S2142000304307200000000000450720004707200057
S2142000408107200085072000890720008D072000D3
S2142000509107200095072000990720009D07200083
S214200060A1072000A5072000A9072000AD07200033
S214200070B1072000B5072000B9072000BD072000E3
S214200080C1072000C5072000C9072000CD07200093
S214200090D1072000D5072000D9072000DD07200043
S2142000A0E1072000E5072000E9072000ED072000F3
S2142000B0F1072000F5072000F9072000FD072000A3
S2142000C00108200005082000090820000D0820004F
S2142000D01108200015082000190820001D082000FF
S2142000E02108200025082000290820002D082000AF
S2142000F03108200035082000390820003D0820005F
S2142001004108200045082000490820004D0820000E
S2142001105108200055082000590820005D082000BE
S2142001206108200065082000690820006D0820006E
S2142001307108200075082000790820007D0820001E
S2142001408108200085082000890820008D082000CE
S2142001509108200095082000990820009D0820007E
S214200160A1082000A5082000A9082000AD0820002E
S214200170B1082000B5082000B908200000000000C3
S214200180BD082000C1082000C5082000C90820009E
S214200190CD082000D1082000D5082000D90820004E
S2142001A0DD082000E1082000E5082000E9082000FE
S2142001B0ED082000F1082000F5082000F9082000AE
S2142001C0FD0820000109200000000000050920008D
S2142001D0090920000D09200011092000150920001A
S2142001E0190920001D0920002109200025092000CA
S2142001F0290920002D09200078B40023002200249D
S2142002000025002341E00A2604E0DFF8FC21904286
S214200210F9D10926F6B213F00302D2B29200964024
S2142002203543DFF8E8211E00B60842F82650DFF8EE
S214200230E0211568A5434A68D20300D52543DFF898
S214200240D0211560DFF8CC211568A5434A689203B3
S21420025000D52543DFF8BC211560DFF8BC211568E2
S214200260A5434A68D20200D52543DFF8AC211560A5
S214200270DFF8A8211568A5434A68920201D52C43C9
S2142002802500DFF8982115605B1C102B80F0AF80CE
S21420029001229A400C6814409442F5D14A68022AFA
S2142002A002D04A68122A17D11A00D20800EB82021E
S2142002B0156A0F2613F00702D2B292009640B54375
S2142002C00E6913F00702D2B29200964035431A0008
S2142002D0D20800EB82021562056803261A00D2B205
S2142002E052009640B5430E7916F003061A00D2B295
S2142002F052009640354305604A68012A08D04A686D
S214200300022A05D04A68112A02D04A68122A17D132
S214200310856803261A00D2B252009640B543CE68AE
S2142003201A00D2B2520096403543856045680122B5
S2142003309A4095434A68C2F300129A401543456096
S214200340C56803261A00D2B252009640B5438E687E
S2142003501A00D2B2520096403543C5604A68D20091
S21420036092D52F4A126852F480422D4D2A602C4A8C
S214200370126812F480420092009A244A1D00AD08AA
S21420038052F825500F2613F00302D2B29200964060
S214200390B543244A904201D100263BE7224A9042A8
S2142003A001D1012636E7214A904201D1022631E7C3
S2142003B01F4A904201D103262CE71E4A904201D1C3
S2142003C0042627E71C4A904201D1052622E71B4A2D
S2142003D0904201D106261DE7194A904201D10726F0
S2142003E018E7184A90427FF410AF082612E771BC2F
S2142003F07047D2B2002A02D089B2816102E089B267
S214200400090481617047000000240240083801403A
S214200410003C0140043C0140083C01400C3C0140AB
S2142004204438024000000240000402400008024017
S214200430000C024000100240001402400018024047
S214200440001C02400020024010F0070038490A68CD
S2142004504FF6FF010A40374951EA00210A43344843
S2142004600260704732480068C0F30220704740B2EE
S214200470002808D50901304A40B210F00F00104479
S21420048000F8041C03E009012C4A40B211547047BE
S21420049010B410F00700D0F10703052B01D3042376
S2142004A001E0D0F10703041D072C01D2002000E054
S2142004B0C01E012414FA03F35B1E19408140012359
S2142004C013FA00F0401E1040084310BC704780B559
S2142004D0411EB1F1807F01D301200EE0401E184955
S2142004E008600F215FF0FF30FFF7C1FF002015499D
S2142004F00860072014490860002002BD80B5FFF779
S214200500A3FF01BD70B504000D0016000020FFF704
S214200510A9FF32002900FFF7BBFF0100200040B2F0
S214200520FFF7A5FF70BD80B5FFF7D1FF02BD000025
S2142005300CED00E00000FA0518ED00E000E400E015
S21420054014E000E018E000E010E000E01248006848
S21420055050F47000104908601048006850F0010000
S2142005600E49086000200E4908600C4801680D48B6
S21420057001400A4801600C480C490860074800689A
S21420058030F48020054908600020094908605FF0A3
S214200590006008490860704788ED00E00038024097
S2142005A008380240FFFFF6FE1030002404380240D0
S2142005B00C38024008ED00E000B587B000F02AF8BD
S2142005C01248006850F00200104908600F48006882
S2142005D010F0020000900098232001900120029045
S2142005E0012003900320049001A90948FFF704FE88
S2142005F0002201210648FFF7FCFE012202210448C2
S214200600FFF7F7FE002007B000BD00BF30380240DD
S2142006100004024080B50848006850F4007006497F
S21420062008600320FFF76AFF0F2000F009F800F0AB
S21420063005F8002002BD0000003C02407047000084
S21420064010B50400074800684FF47A71B0FBF1F04B
S214200650FFF769FF002221005FF0FF30FFF752FF0F
S214200660002010BD0000012010B450F8041B79B102
S2142006700268436802440830DC0744BFA9F101043D
S214200680E31852F8044B43F8044B091FF9D1ECE762
S21420069010BC704710B5074979441831064C7C4485
S2142006A0163404E00A68081D114488470146A14212
S2142006B0F8D110BD2C0000003C0000004EF68851FA
S2142006C0CEF20001086840F470000860BFF34F8F38
S2142006D0BFF36F8F4FF00070E1EE100A70470000F6
S2142006E089FFFFFF080000004802000000000120EC
S2142006F00000000000F00BF8002801D0FFF7CAFF2A
S2142007000020AFF30080FFF757FF00F002F801202B
S214200710704700F001B800000746384600F002F89F
S214200720FBE7000080B5AFF30080024A11001820D6
S214200730ABBEFBE7260002007047FEE7FEE7FEE7BB
S21420074070477047704780B500F002F801BD000082
S21420075002480068401C01490860704704000120D8
S21420076001488047014800474D05200071072000BA
S214200770AFF30080FFF7A2FFFFF7BCFFFFF7FEBF37
S214200780FFF7FEBFFFF7FEBFFFF7FEBFFFF7FEBF78
S214200790FFF7FEBFFFF7FEBFFFF7FEBFFFF7FEBF68
S2142007A0FFF7FEBFFFF7FEBFFFF7FEBFFFF7FEBF58
S2142007B0FFF7FEBFFFF7FEBFFFF7FEBFFFF7FEBF48
S2142007C0FFF7FEBFFFF7FEBFFFF7FEBFFFF7FEBF38
S2142007D0FFF7FEBFFFF7FEBFFFF7FEBFFFF7FEBF28
S2142007E0FFF7FEBFFFF7FEBFFFF7FEBFFFF7FEBF18
S2142007F0FFF7FEBFFFF7FEBFFFF7FEBFFFF7FEBF08
S214200800FFF7FEBFFFF7FEBFFFF7FEBFFFF7FEBFF7
S214200810FFF7FEBFFFF7FEBFFFF7FEBFFFF7FEBFE7
S214200820FFF7FEBFFFF7FEBFFFF7FEBFFFF7FEBFD7
S214200830FFF7FEBFFFF7FEBFFFF7FEBFFFF7FEBFC7
S214200840FFF7FEBFFFF7FEBFFFF7FEBFFFF7FEBFB7
S214200850FFF7FEBFFFF7FEBFFFF7FEBFFFF7FEBFA7
S214200860FFF7FEBFFFF7FEBFFFF7FEBFFFF7FEBF97
S214200870FFF7FEBFFFF7FEBFFFF7FEBFFFF7FEBF87
S214200880FFF7FEBFFFF7FEBFFFF7FEBFFFF7FEBF77
S214200890FFF7FEBFFFF7FEBFFFF7FEBFFFF7FEBF67
S2142008A0FFF7FEBFFFF7FEBFFFF7FEBFFFF7FEBF57
S2142008B0FFF7FEBFFFF7FEBFFFF7FEBFFFF7FEBF47
S2142008C0FFF7FEBFFFF7FEBFFFF7FEBFFFF7FEBF37
S2142008D0FFF7FEBFFFF7FEBFFFF7FEBFFFF7FEBF27
S2142008E0FFF7FEBFFFF7FEBFFFF7FEBFFFF7FEBF17
S2142008F0FFF7FEBFFFF7FEBFFFF7FEBFFFF7FEBF07
S214200900FFF7FEBFFFF7FEBFFFF7FEBFFFF7FEBFF6
S214200910FFF7FEBFFFF7FEBFFFF7FEBFFFF7FEBFE6
S214200920FFF7FEBFFFF7FEBFFFF7FEBFFFF7FEBFD6
S20C2009300024F4000000000082
S80420077163
