:020000040020DA
:1000000000200020DD452000294620002B4620004E
:10001000B94620002D4620002F4620000000000099
:100020000000000000000000000000003146200039
:1000300033462000000000008D232000B70E200072
:10004000BD462000C1462000C5462000C94620000C
:10005000CD462000D1462000D5462000D9462000BC
:10006000DD462000E1462000E5462000E94620006C
:10007000ED462000F1462000F5462000F94620001C
:10008000FD462000014720000547200009472000C9
:100090000D47200011472000154720001947200078
:1000A0001D47200021472000254720002947200028
:1000B0002D472000314720003547200039472000D8
:1000C0003D47200041472000454720004947200088
:1000D0004D47200051472000554720005947200038
:1000E0005D472000614720006547200069472000E8
:1000F0006D47200071472000754720007947200098
:100100007D47200081472000854720008947200047
:100110008D472000914720009547200099472000F7
:100120009D472000A1472000A5472000A9472000A7
:10013000AD472000B1472000B5472000B947200057
:10014000BD472000C1472000C5472000C947200007
:10015000CD472000D1472000D5472000D9472000B7
:10016000DD472000E1472000E5472000E947200067
:10017000ED472000F1472000F54720000000000077
:10018000F9472000FD4720000148200005482000D5
:10019000094820000D482000114820001548200083
:1001A000194820001D482000214820002548200033
:1001B000294820002D4820003148200035482000E3
:1001C000394820003D482000000000004148200040
:1001D00045482000494820004D4820005148200053
:1001E00055482000594820005D4820006148200003
:1001F00065482000694820002DE9F04383B00400E1
:100200000D0016001F00DDF848805FF00009DFF8E0
:1002100058060078002804D047F24A10A8F80000D9
:10022000BDE0002C04D147F2AD10A8F80000B6E004
:100230003000002804D147F24F10A8F80000AEE0CB
:100240000B98002804D146F62F60A8F80000A6E01D
:100250000D98DFF81C160968884204D246F6306013
:10026000A8F800009BE00C980D99884204D346F64C
:100270003160A8F8000092E00A981F2807D30A9876
:100280001F2804D046F27320A8F8000087E00A98DF
:100290001F2808D1DFF81C07844204D046F27320DF
:1002A000A8F800007BE0200000F0ACFB0020A8F8DC
:1002B0000000119810F0030F0CD01198800709D599
:1002C0000B98002103E000220260001D491C0D9ADA
:1002D0009142F8D30B980C9900EB81091198019089
:1002E0000D9800904B460B9A3900300000F0E9FC65
:1002F0000B99884204D246F62C60A8F800004EE024
:10030000A662E762A5600A9984F83F100A9984F80A
:1003100040102060C4F80C90109860600B986062E8
:100320000D98A0641198A4F84C00002006E000216C
:10033000C0B204EB8002C2F88010401CC0B200289A
:10034000F5D00E9914F1680000F081FE200000F055
:10035000A6FCEFF3108972B600F0CCFE94F83F00D3
:1003600000F076FF200001F062FB200000F024FB8B
:10037000DFF88C060088401CDFF884160880DFF860
:10038000EC040078012804D000F0C8FE89F310883E
:1003900005E000F0C3FE89F3108801F094F8BDE891
:1003A000F78370B504000E000025DFF8BC04007868
:1003B000002803D047F25510308035E0EFF3108568
:1003C00072B600F097FE002C04D0DFF860080068D9
:1003D000844207D100F0A2FE85F3108847F257103F
:1003E000308021E000F09AFE85F31088EFF310854D
:1003F00072B600F07FFE0020308094F83E000028A6
:10040000032808D9001F10D0401E22D0401E31D032
:10041000401E40D050E000F081FE85F3108847F286
:100420005310308001F04FF870BD94F89800401ED2
:1004300084F8980094F89800002805D1002084F8EA
:100440003E00200001F0C2FA00F068FE85F310883B
:10045000E8E794F89800401E84F8980094F8980013
:10046000002802D1012084F83E0000F057FE85F3F9
:100470001088D7E794F89800401E84F8980094F804
:100480009800002802D1022084F83E0000F046FEC9
:1004900085F31088C6E794F89800401E84F8980009
:1004A00094F89800002802D1032084F83E0000F060
:1004B00035FE85F31088B5E700F030FE85F310882F
:1004C00046F62D603080AFE72DE9F0410700884601
:1004D00014001D000026DFF890030078002804D0E7
:1004E00046F2AE1028800020E0E01FFA88F840466F
:1004F000002802D0B0F5004F1CD1EFF3108672B681
:1005000000F0F8FDDFF824070068406D002816D1E0
:100510001FFA88F85FEA08404FD500F0FFFD86F328
:100520001088002C01D00020206046F2B0102880F6
:100530000020BBE045F6256028800020B6E0DFF80B
:10054000EC060068406D401EDFF8E016096848655B
:10055000DFF8D8060068476D002C04D0DFF8CC0621
:100560000068006D206001F032FBDFF8C0160968FA
:10057000096D401ADFF8B4160968C1F8B400DFF855
:10058000AC060068D0F8B800DFF8A0160968D1F80A
:10059000B410884209D2DFF894060068D0F8B4009D
:1005A000DFF888160968C1F8B80000F0B7FD86F3D7
:1005B000108800202880380078E0DFF88C0500786B
:1005C00000280CD0002C01D00020206000F0A6FDF7
:1005D00086F3108846F663502880002066E03A00D3
:1005E0000721002001F0B0F800F098FD86F3108894
:1005F00000F069FFEFF3108672B600F07BFDDFF8C4
:100600002C06006890F83D00002804D001282ED068
:10061000032837D03EE0002C26D0DFF81006006813
:10062000006D206001F0D3FADFF800160968096D4B
:10063000401ADFF8F8150968C1F8B400DFF8EC05D6
:100640000068D0F8B800DFF8E4150968D1F8B410F4
:10065000884209D2DFF8D4050068D0F8B400DFF88A
:10066000CC150968C1F8B8000020288015E0002CDE
:1006700004D0DFF8B8050068006D206046F2A910CC
:1006800028800AE0002C01D00020206047F2D92009
:10069000288002E046F62E602880DFF8900500688A
:1006A000476D00F03BFD86F310883800BDE8F0810F
:1006B0002DE9F04182B004000D0016000027ADB214
:1006C0002800002802D0B0F5004F2DD101F07FFAAC
:1006D0008046EFF3108772B600F00CFD002C02D1BB
:1006E000DFF848050468C4F850800020308094F892
:1006F0003E0000280BD0022824D008D3042806D0BE
:1007000020D306281ED002D307281BD047E0606DF7
:1007100010F1010F0DD100F001FD87F3108846F6AE
:10072000C5503080002043E045F625603080002031
:100730003EE0606D401C6065646D00F0EFFC87F387
:10074000108834E094F83C00072812D1CDF80080DE
:10075000002300222100002001F0D2F8646D00F097
:10076000DDFC87F31088ADB2280417D400F0ABFE8F
:1007700014E0606D10F1010F08D100F0CFFC87F399
:10078000108846F6C5503080002011E0606D401C96
:100790006065646D00F0C2FC87F3108807E000F02C
:1007A000BDFC87F3108846F62D60308000242000C1
:1007B000BDE8F6812DE9F04104000D0016001F0090
:1007C0005FF0000828480078002803D047F259104D
:1007D000388046E0002D03D146F2D520388040E035
:1007E000002E03D146F2D52038803AE0EFF310888E
:1007F00072B600F07FFC002C02D1DFF830040468F0
:10080000206800280BD100F089FC88F310880020B4
:1008100028600020306047F25210388021E094F8C0
:100820004C00C0070BD400F079FC88F3108800203E
:1008300028600020306047F25410388011E000F04A
:100840006DFC88F310880021626A01E0121D491CCA
:1008500010680028FAD02960A06C411A316000208D
:100860003880BDE8F08100007E1B01207F1B012045
:100870008846200070B504000D000026DFF8B403A0
:100880000078002803D047F25D10288052E04948E4
:10089000844203D147F25B1028804BE0EFF31086CF
:1008A00072B600F027FC002C0FD1DFF88C03007823
:1008B000012807D000F032FC86F3108845F68960E5
:1008C000288037E0DFF864030468DFF8600300681D
:1008D00084420BD19C480078002807D000F01EFC11
:1008E00086F3108846F66350288023E00020288095
:1008F00094F83E00002809D0401E1CD0401E25D090
:10090000401E2ED0401E032836D94BE0042084F828
:100910003E00012084F89800200001F0A7F800F0C4
:10092000FDFB86F31088DFF810030078012801D161
:1009300000F0C9FD70BD052084F83E00012084F858
:10094000980000F0EBFB86F31088ECE7062084F8B3
:100950003E00012084F8980000F0E0FB86F3108848
:10096000E1E7072084F83E00012084F8980000F0B9
:10097000D5FB86F31088D6E794F89800FF2807D1B6
:1009800000F0CCFB86F3108847F260102880D1E796
:1009900094F89800401C84F8980000F0BFFB86F3A0
:1009A0001088C0E700F0BAFB86F3108846F62D6089
:1009B0002880BFE7581601200021C0F8C8109F49C1
:1009C0000968002903D10021C0F8CC1007E09B4939
:1009D0000968C0F8CC1099490968C1F8C80097495E
:1009E000086070470021954A11600021044A118077
:1009F0000021934A1160002101807047000000002F
:100A00007A1B012010B50400002020600020E06067
:100A10000020606000202061002060610020A06153
:100A20000020E061002020628648A0600020606213
:100A30000020A0620020E0620020206500202066E7
:100A40000020A4F86400002114F1680000F0FFFA0F
:100A50000020A0670020E0670020C4F88400002088
:100A6000A4F88C000020C4F888000020C4F890008E
:100A70000020C4F89400002006E00021C0B204EB7E
:100A80008002C2F88010401CC0B20028F5D00020BF
:100A900060650020C4F8B4000020C4F8B80000204D
:100AA000A064002084F898000020C4F8C000002052
:100AB000C4F8BC000020A4F84C000020A065002071
:100AC000E0650020A4F89A000020A4F89C00002013
:100AD000C4F8A0000020C4F8A40001F078F8C4F81D
:100AE000A8000020C4F8AC000020C4F8C400002016
:100AF0002063002060630020A063002084F83C0095
:100B0000002084F83D00002084F83E00202084F876
:100B10003F00202084F84000002060640020C4F8DA
:100B2000C8000020C4F8CC0041A0C4F8D00010BD1B
:100B300080B53E48006800F0BBF86A460021424894
:100B4000006801F053F8F8E7831B0120F8B50400B2
:100B50000D00002694F83F7094F83E0000280BD05A
:100B6000022821D01DD304281BD01DD306281BD05A
:100B700017D3072818D058E0200000F077FF84F83A
:100B80003F5094F83F0000F063FB2848006884421F
:100B900003D1200000F02EFF02E0200000F047FF0C
:100BA0003FE084F83F503CE084F83F5094F83C002C
:100BB000012805D0042807D0052801D0062830D107
:100BC000200000F01EFE2CE0200000F01AFEA06BBA
:100BD000466A28003900C0B2C9B2884207D228004C
:100BE00096F83F10C0B288421AD3002618E096F853
:100BF0003F00FFB2B84213D1300001F056FB0500B0
:100C000096F840002900C9B2884202D296F84050B6
:100C1000FFE7280096F83F10C0B2884200D10026B6
:100C2000FFE73400002C94D1F1BDFDE7601B0120EB
:100C3000200000007E1B01207F1B01203C1B0120A7
:100C4000381B0120504620008C46200080B5B24859
:100C50000068002802D0B0480068804701BDAF4856
:100C60000068AF49096800EB8100AE490860AD48F3
:100C70000068C008C000AB490860AB48006810F0CD
:100C80004040B0F1404F00D0FEE7704780B5A74824
:100C90000068002802D0A5480068804701BD80B5E3
:100CA000A3490968002902D0A1490968884701BD04
:100CB00080B5A0490968002902D09E490968884783
:100CC00001BD10B4019C02EB8402D208D200121FB5
:100CD000121F5FF000741460121F974C1460121FF3
:100CE000964C1460121F964C1460121F954C1460A1
:100CF000121F954C1460121F944C1460121F944CD8
:100D00001460121F5FF082441460121F914C146033
:100D1000121F914C1460121F904C1460121F5FF050
:100D200081441460121F8E4C1460121F5FF08044C7
:100D30001460121F5FF07E541460121F00241460B0
:100D4000121F5FF080741460121F1060121F85481C
:100D50001060121F5FF012301060121F5FF003303E
:100D60001060121F5FF002301060121F1360121F1C
:100D70001160121F7FF012001060121F5FF011301F
:100D80001060121F5FF010301060121F5FF009300A
:100D90001060121F5FF008301060121F5FF0073004
:100DA0001060121F5FF006301060121F5FF00530F8
:100DB0001060121F5FF004301060121F6A4810604C
:100DC000121F6A481060121F69481060121F69489C
:100DD0001060121F68481060121F68481060121FD0
:100DE00067481060121F67481060121F6648106045
:100DF000121F66481060121F65481060121F654878
:100E00001060121F64481060121F64481060121FA7
:100E100063481060121F5FF083401060100010BC28
:100E2000704780B55F480068006801F05BFA5E4873
:100E30000068002802D05C480068804700F0C7FEC8
:100E400058490968594A1268914215D055490968AC
:100E5000D1F8A810411A534A1268C2F8A410514997
:100E60000968D1F8AC204F490968D1F8A4108A1854
:100E70004C490968C1F8AC204C490968C1F8A80080
:100E800000F013F947490968D1F8C410814203D230
:100E900044490968C1F8C40044480068006801F08A
:100EA0002AFA01BD80B542480068002802D04048B7
:100EB0000068804701BD10B50024EFF3108472B6BE
:100EC00000F018F900F092FA00F028F984F3108885
:100ED00000F0A1FF00F09CFA10BD80B5354909680B
:100EE000B0FBF1F000F001F801BD401E324908608E
:100EF0003248006820F07F40304908603048006880
:100F000050F005002E4908602D48006850F002009E
:100F10002B49086070470000FC1A01206C46200035
:100F200070462000E81A012034EF00E0001B012089
:100F3000F01A0120F81A0120000070410000604101
:100F400000005041000040410000304100002041BD
:100F5000000010410000E0400000C0400000A04040
:100F600000004040310B20000000F8410000F0413B
:100F70000000E8410000E0410000D8410000D041FD
:100F80000000C8410000C0410000B8410000B0416D
:100F90000000A8410000A0410000984100009041DD
:100FA00000008841601B0120041B0120641B0120FC
:100FB000081B01208C46200014E000E020ED00E03A
:100FC00010E000E070B427490968002903D145F218
:100FD0001E71018039E024490988002903D145F2B6
:100FE0001D71018031E01F4909681E4A12681032E4
:100FF0001D4B1B885C1E002309E00A6000254D6024
:1010000000250D810025CD60103110325B1C1D00C4
:101010002600ADB2B6B2B542EFD300220A6000227C
:101020004A6000220A810022CA600E4909680F4AFC
:1010300011600D4909880D4A918000210B4AD18029
:1010400000210A4A11810021018070BC7047018192
:101050000021418100218181002101600021416046
:101060007047000074462000E2222000AC1A0120E4
:1010700080B500F07BF800F080F800F073F801BD57
:10108000FEE710B50024EFF3108472B600F032F8DA
:101090001021DFF8700101F0C5F900F03FF884F38A
:1010A000108810BD58490860704780B5002100F0D5
:1010B00009F8EFF3108172B60022544B1A6081F3E5
:1010C000108802BD80B50021EFF3108172B64F4841
:1010D000006881F3108800F089F802BD80B5002116
:1010E000EFF3108172B64A48006881F3108800F06F
:1010F0007DF802BD80B547480088401C45490880FE
:1011000045480088002803D100F061FD434908608C
:1011100041480088401C4049088001BD80B53E48D8
:101120000088401E3C4908803B480088002814D1B4
:1011300000F04DFD3A4908603948016837480068B9
:10114000081A32490968814201D2304908603049A1
:101150000968814201D22E49086001BD00202C4956
:101160000860704780B5FFF78CFF01BD80B5002097
:101170002549086000F00CFD01BD70B50025002078
:101180002449088000202449088000202349086061
:1011900000202349086000201C49086000201C49E9
:1011A000086000201F4908600026EFF3108572B622
:1011B00000240AE0002015490860FFF79BFFFFF7B5
:1011C000ADFF124800688619641CA4B2002CF1D04F
:1011D0000120B6FBF0F01349086000200B490860BD
:1011E00000200B49086085F3108870BD0D4909681F
:1011F000814203D20B490968401A00E00020704781
:10120000000000009C1A0120C81A0120D81A0120F1
:10121000DC1A0120681B01206A1B0120CC1A012066
:10122000D01A0120D41A0120002004E000211B4A1A
:1012300042F82010401C0028F8D0704710B5002458
:101240001648006801F061F904192000C0B210BD11
:101250000022C0B20121D0F11F0011FA00F00100FC
:101260000E48D2B250F8220001430C48D2B240F8E6
:10127000221070470022C0B20121D0F11F0011FAE4
:1012800000F001000548D2B250F8220030EA010116
:101290000248D2B240F8221070470000EC1A012038
:1012A00010B50400FFF7DBFC0020DFF844180870DD
:1012B0000020DFF8401808700020DFF83C180870A4
:1012C0000020DFF8381808600020DFF834180860C4
:1012D0000020DFF8301808700020DFF82C180870A4
:1012E000DFF828080168002909D0DFF82408006821
:1012F00003E0401E00220A60091D0028F9D10020E9
:10130000DFF8101808600020DFF80C1808600020D3
:10131000DFF8081808600020DFF8041808600020D3
:10132000DFF8001808600020DFF8FC1708600020D4
:10133000DFF8F81708600020DFF8F4170870FFF7EF
:1013400073FF00F032FB0020DFF8E8170860002090
:10135000DFF8E4170880200001F0E2F82088002878
:1013600043D12000FFF72EFE208800283DD1002029
:10137000DFF8C81708600020DFF8C41708800020D5
:10138000DFF8C01708600020DFF8BC1708800020D5
:10139000DFF8B81708600020DFF8B41708802000D5
:1013A000FFF720FB208800281FD1200000F0A4F9BF
:1013B0002088002819D1200001F0EFF820880028AB
:1013C00013D1200001F02EFD208800280DD120002F
:1013D00001F0AAFD2088002807D101F0A7FE01F046
:1013E0006DFF0120DFF86C17087010BDDFF80407EF
:1013F000007801280BD1DFF8F8060078FA2806D229
:10140000DFF8EC060078401CDFF8E416087070473F
:1014100010B50024DFF8DC060078012852D1EFF384
:10142000108472B6DFF8C8060078002802D184F371
:10143000108847E0DFF8B8060078401EDFF8B016E5
:101440000870DFF8AC060078002802D084F310881A
:1014500038E0DFF8A4060078002802D084F3108872
:1014600030E0FFF7EBFEDFF8A0160870DFF8E816B3
:10147000DFF8940602780C2042438858DFF8801683
:101480000860DFF87C060068DFF87016096888429B
:1014900002D184F3108815E0DFF864060068D0F804
:1014A000A000401CDFF858160968C1F8A000DFF85A
:1014B000AC060068401CDFF8A416086000F062FF6C
:1014C00084F3108810BD10B50024DFF824060078DE
:1014D00000283AD1DFF820060078002835D1EFF354
:1014E000108472B6FFF7AAFEDFF81C160870DFF84A
:1014F0006816DFF8140602780C2042438858DFF89B
:1015000000160860DFF8F8050068DFF8F0150968D4
:10151000884202D184F3108817E0DFF8E405006800
:10152000D0F8A000401CDFF8D8150968C1F8A00069
:10153000DFF828060068401CDFF82016086000F07D
:101540001DFF84F31088BFF36F8F10BD38B5040002
:101550000025DFF89C050078002803D046F662508D
:10156000208023E0DFF88C050078012803D045F6C1
:10157000896020801AE0DFF880050078FA2803D31C
:1015800045F20920208011E0EFF3108572B6FFF7D5
:10159000B1FDDFF864050078401CDFF85C150870C9
:1015A000FFF7BCFD85F310880020208031BD38B5E1
:1015B00004000025DFF838050078002803D046F63F
:1015C0006550208032E0DFF82C050078012803D038
:1015D00045F68960208029E0DFF81C0500780028A6
:1015E00003D146F66450208020E0EFF3108572B6F8
:1015F000FFF780FDDFF800050078401EDFF8F814E3
:101600000870DFF8F4040078002807D0FFF786FDA3
:1016100085F3108846F66350208007E0FFF77EFDD3
:1016200085F31088FFF74FFF0020208031BD10B5F3
:101630000400DFF820050078012803D045F68B6010
:1016400020803CE00020401C401C401C401CDFF877
:101650001015098880B2884203D345F68C6020803B
:101660002DE0DFF890040078002825D1FFF7E6FD93
:10167000DFF894140870DFF890040078DFF8841421
:101680000870DFF8D414DFF8800402780C2042439D
:101690008858DFF86C140860DFF864040068DFF82D
:1016A0005C1408600120DFF84C14087000F029FE7B
:1016B00043F69920208002E045F68A60208010BD24
:1016C00010B50024EFF3108472B6FFF713FDDFF8B6
:1016D00094040068401CDFF88C140860DFF888046C
:1016E0000068401CDFF880140860FFF717FD84F3E2
:1016F0001088FFF7ABFAE5E700B589B00021DFF805
:101700006424116008900B200790002006900020B0
:10171000059000200490DFF8540400680390DFF87F
:10172000500400680290DFF84C04006801901F200C
:1017300000900023DFF84024DFF84014DFF8400475
:10174000FEF75AFD09B000BD10B50400DFF8AC0388
:10175000006880F83C100020DFF8A013096881F8C9
:101760003D001100DFF89403006800F0ADF9002C93
:101770000BD014F10800DFF8841309688C63DFF8DC
:101780007C13096800F056F804E00020DFF86C13C1
:1017900009688863DFF864030168200000F001F83D
:1017A00010BD002808D04268C1F8D02010F108010F
:1017B00009688968C16113E091F83C00022802D0F1
:1017C000072805D009E0DFF8BC03C1F8D00007E026
:1017D000DFF8B403C1F8D00002E0A3A0C1F8D00044
:1017E0007047A1A2C1F8D020002809D010F108014B
:1017F0000968002902D08968C16101E09AA1C1612C
:10180000704770B50400A66B16F108052868006BD8
:10181000002807D0200000F046F8A6632100280029
:1018200000F008F870BD0021016000214160002136
:101830000181704730B4020091F83F3010680028F1
:1018400008D1012010810020086300204863116046
:10185000516026E01089401C1081106800E0006B88
:10186000002805D01C0090F83F50E4B2AC42F6D2FC
:10187000002807D10020086350684863486B016363
:1018800051600EE0436B002B05D1086300234B63CE
:101890004163116005E00863426B4A634A6B116360
:1018A000416330BC7047816B002928D0816B11F1F6
:1018B00008021168096B002904D100211160002180
:1018C000516013E0416B002904D1016B00234B638D
:1018D00011600BE0016B002904D1436B00211963F7
:1018E000536003E0436B016B19634B631189491E1D
:1018F0001181002101630021416300218163704750
:1019000038B504000D00049895F83E1000290BD05E
:1019100002290AD008D3042906D006D3062925D0E7
:1019200002D3072922D03FE03EE02A66A5F86430C2
:101930002865002C02D02800FFF7B5FF2900200001
:10194000FFF74FFF95F83E00032802D1280000F072
:1019500012FF280000F03AF8002085F83E00002031
:1019600085F83D00002085F83C001DE02A66A5F8BA
:1019700064302865002C02D02800FFF794FF29006E
:101980002000FFF72EFF95F83E00072802D128001F
:1019900000F0F1FE042085F83E00002085F83D00AF
:1019A000002085F83C00FFE731BD00200BE06A49CC
:1019B0000C2202FB00F2114400220A8100220A607C
:1019C00000224A60401C2028F1D3704710B5040063
:1019D00094F83F00FFF73CFC94F83F004949097830
:1019E000884203D1200000F022F802E0200000F03D
:1019F00001F810BD584A90F83F300C214B431A446F
:101A00001168002908D10121118100210161002103
:101A100041611060506009E01189491C1181116811
:101A200001610021416111684861106070474A4AB4
:101A300090F83F300C214B431A441168002908D11B
:101A4000012111810021016100214161106050607C
:101A500008E01189491C118100210161516841612F
:101A600008615060704700002000000010B50400BD
:101A7000394994F83F200C2042430A4461692069A7
:101A8000002913D100280AD1002010810020106005
:101A90000020506094F83F00FFF7ECFB0FE0118945
:101AA000491E118100214161106008E013895B1E0D
:101AB00013810861002801D1516000E041610020DC
:101AC00060610020206110BD10B504000A00002AEA
:101AD00007D021002D4800F0C0FD032084F83E000F
:101AE00002E0022084F83E002000FFF7BFFF10BD97
:101AF0007E1B01207F1B0120831B0120601B012016
:101B0000641B0120811B0120821B01206C462000E8
:101B100070462000F01A0120F41A0120F81A012062
:101B2000FC1A0120001B0120041B0120081B0120BE
:101B3000861B0120141B01206C1B01201C1B012093
:101B4000701B0120201B0120721B0120241B01207F
:101B5000741B0120801B012004140120381B01206C
:101B60007A1B01200C1B0120281B01206846200045
:101B70006446200060462000C11620007045200009
:101B800058160120484620001C462000C01A01209B
:101B900080B510480068C10704D5800702D50E48FB
:101BA0000E490860012001F0C4FB0D49096851F09D
:101BB00080710B4A116000210A4A11600A490968C4
:101BC00051F00101084A1160FFF76CFA01BD0548A8
:101BD00000687047B41F00E055CEACC5B01F00E0F0
:101BE000FCED00E0041000E0001000E0F8B5040097
:101BF0000E001500002797480078002803D047F210
:101C0000752028803BE094480078002803D046F6F1
:101C10006350288033E0B6B23000002805D0022897
:101C200003D004281CD008281BD1002C03D147F274
:101C30007E20288023E0EFF3108772B6FFF75AFA70
:101C40002B00320092B221008448006800F04BFD66
:101C50002888002809D0FFF761FA87F310880EE082
:101C6000E9E745F62560288009E07C480068FFF731
:101C7000FDFEFFF753FA87F31088FFF724FCF1BD50
:101C8000F8B5079D0026734C2478002C03D047F24A
:101C900075202880ACE0704C2478002C03D046F6E8
:101CA00063502880A4E0069F17F00E07BFB23C00E7
:101CB000002C05D0022C03D0042C17D0082C16D1F0
:101CC000002B0CD192B2002A09D189B2002906D189
:101CD00080B2002803D147F27E20288088E0069C4D
:101CE0004FF6E176344206D1002405E0F7E745F6E9
:101CF000256028807CE00124E4B2012C03D145F664
:101D00002560288074E0069CC4F3001414F00104DC
:101D1000E4B2012C1BD0B3F57A7F03D347F27B20CA
:101D2000288065E092B23C2A03D347F27A202880CB
:101D30005EE089B23C2903D347F27920288057E03E
:101D400080B2642814D347F27820288050E089B20A
:101D500042F21074A14203D347F27920288047E071
:101D600080B2B0F57A7F03D347F2782028803FE035
:101D70003B4C246880B24FF4616C89B23C267143BD
:101D80000CFB001010FA82F14FF4FA70B0FBF4F083
:101D9000C31803FB04F34FF47A70B3FBF0F004FBB9
:101DA0000104002C21D0EFF3108672B6FFF7A2F9E0
:101DB0002B003A0092B221002848006800F093FC02
:101DC0002888002804D0FFF7A9F986F310880FE0CF
:101DD00022480068FFF74AFEFFF7A0F986F3108853
:101DE000FFF771FB0020288002E047F27E20288068
:101DF000F1BD70B504000026EFF3108672B6FFF750
:101E000079F918480568FFF789F986F310880020EA
:101E10002080280070BD80B513480078012818D1B3
:101E2000FFF740F86A4600211048FEF741FC1048D1
:101E30000068401E0E4908600D480068002808D15F
:101E40000C4800680A4908606A4600210A48FEF703
:101E50002FFC01BD7E1B0120831B0120601B012084
:101E60008C462000401B01207F1B01200018012010
:101E70005C1B0120581B0120D4180120F8B5040078
:101E80000F0015000026DFF8E8030078002803D0D3
:101E900042F6E16028802BE0002C03D145F6C350C8
:101EA000288025E0EFF3108672B6FFF723F9DFF8FC
:101EB000C403206067600020206200206062002070
:101EC00084F828000020E06214F10800FFF7ABFC62
:101ED000200000F0B6F9DFF8A0030088401CDFF80E
:101EE00098130880FFF71AF986F3108800202880DD
:101EF000F1BD2DE9F84305000E0091461C00089F36
:101F00005FF00008DFF868030078002803D046F28D
:101F1000AE103880D6E0002D03D145F6C35038808E
:101F2000D0E01FFA89F94846002802D0B0F5004FEA
:101F300025D12868DFF83C13884224D1EFF31088BC
:101F400072B6FFF7D7F895F8280000281FD1DFF800
:101F50002C0300686862012085F82800002C01D05D
:101F6000E86A20602900DFF81403006800F08EF9A9
:101F7000FFF7D4F888F3108800203880A2E045F6F7
:101F8000256038809EE045F6C45038809AE0DFF83E
:101F9000EC020068696A88421CD195F82800FF2885
:101FA00007D1FFF7BBF888F3108845F284703880BA
:101FB00088E095F82800401C85F82800002C01D006
:101FC000E86A2060FFF7AAF888F3108845F282706B
:101FD000388077E01FFA89F95FEA09400BD5FFF7EF
:101FE0009DF888F31088002C01D00020206046F274
:101FF000B010388066E0A248007800280BD0FFF7C8
:102000008DF888F31088002C01D00020206046F65F
:102010006350388056E0686A9849096891F83F1023
:1020200090F83F20914205D29449096891F83F10F9
:10203000FEF78CFD320004212800FFF785FBFFF737
:102040006DF888F31088FFF73EFAEFF3108872B648
:10205000FFF750F88948006890F83D00002805D047
:1020600002281ED00BD3032813D024E0002C03D069
:1020700082480068006D2060002038801EE0002C3F
:1020800003D07E480068006D206046F2A9103880B9
:1020900014E0002C01D00020206047F2D9203880C5
:1020A0000CE0002C03D075480068006D206045F6F8
:1020B000C250388002E046F62E603880FFF72EF8D6
:1020C00088F31088BDE8F1832DE9F04782B0040061
:1020D0000D0016005FF0000865480078002803D066
:1020E00046F20E203080AAE0002C03D145F6C35002
:1020F0003080A4E0ADB22800002802D0B0F5004F37
:1021000015D120685B49884215D1EFF3108872B66B
:10211000FEF7F0FF59480068616A88420FD0FEF769
:10212000FDFF88F3108845F28170308087E045F626
:102130002560308083E045F6C45030807FE0FFF7B3
:1021400046FD0700E76294F82800401E84F8280046
:1021500094F82800002807D0FEF7E0FF88F31088E5
:1021600045F2837030806AE021004448006800F046
:1021700091F814F10809D9F8000000280BD10020CB
:102180006062002084F82800FEF7C8FF88F31088FA
:102190000020308053E03948006890F83F0037490C
:1021A000096891F8401088422CD03448006800F04B
:1021B0007CF882463148006890F840005146C9B228
:1021C000884204D22D48006890F840A0FFE72B48D1
:1021D000006890F83F005146C9B2884212D22748A1
:1021E0000068FFF743FC2548006880F83FA0504690
:1021F000C0B2FFF72DF821480068FFF718FC21480E
:1022000080F800A0D9F80090C4F82490012084F848
:1022100028002100484600F039F8009700230022EA
:1022200049462000FFF76CFBFEF778FF88F3108823
:10223000ADB2280401D4FFF746F900203080BDE894
:10224000F3870AA1C161002141610F490968002992
:1022500002D10021816105E00B49096881610A49C9
:1022600009684861084908607047000020000000C4
:102270007E1B01204D555458701B0120601B01200E
:10228000831B0120811B01201C1B0120426C0A6260
:1022900041647047443001E00068203002688A429F
:1022A000FAD10168096A0160704710B401001F206B
:1022B00011F144020FE011688968002908D091F8F3
:1022C0003F100B000400DBB2E4B2A34200D20800CE
:1022D000116811F1200211680029ECD1C0B210BCC4
:1022E00070472000EFF3098121B120ED108A3B49AE
:1022F0000A6810607047B0EC108A39490A681060AB
:10230000704772B64EF62250CEF2000040F2FF0146
:10231000C0F200010170002080F3098841F6E82036
:10232000C2F20100016881F30888FEF77AFD41F6E8
:102330008130C2F2010041F68231C2F201010A7815
:10234000027041F66030C2F2010041F66431C2F21F
:1023500001010A680260106880F30988EFF31480B5
:1023600040F0020080F31488BFF36F8FBDE8F04F98
:102370000FBCBDE8005006BC62B6084719481A49B0
:1023800001607047174818490160704772B6EFF353
:10239000098020E9F04F41F66035C2F20105296855
:1023A00008607446FEF73DFD41F68130C2F201003F
:1023B00041F68231C2F201010A78027041F66431BD
:1023C000C2F201010A682A6044F0040E1068B0E805
:1023D000F04F80F3098862B670470000601B01204F
:1023E000641B012004ED00E000000010E0B50020B7
:1023F000DFF8E8100860DFF8E82002A8019001206B
:1024000000904FF48063DFF8DC10DFF8DC0000F0B0
:1024100034F8BDF9080042F21071884201D0FEF78D
:102420002FFE07BD80B50A00002100F001F801BDB4
:1024300010B40024002303E02402C9B20C435B1C47
:10244000042BF9D310F00303002B08D003E0017034
:10245000401C521E5B1C002A01D0042BF7D302E063
:102460000460001D121F042AFAD202E00170401C11
:10247000521E002AFAD110BC70472DE9F04782B0F5
:1024800004000D0016001F00DDF82880DDF82C90F8
:102490005FF0000AEFF3108A72B6FEF72BFE00978A
:1024A000434632002900200000F00AF8FEF736FE0D
:1024B0008AF3108842F21070A9F80000BDE8F38793
:1024C00000980A608018401E48608A6003480068CF
:1024D000C8600B610148016070470000E41A0120E8
:1024E00004040120881A01204046200072B670477B
:1024F00062B67047EFF3108072B6704780F31088B1
:10250000704730BF704720BF7047B0FA80F0704707
:1025100090FAA0F0B0FA80F0704790FAA0F07047FF
:102520000021054A11600021024A1180002101802A
:10253000704700006E1B0120181B012070B582B08F
:1025400000246B46002200210020FDF7BDFFBDF8EE
:1025500000000028F5D1EFF3108472B6FEF7CAFD33
:102560000126DFF850040068401CDFF848140860BA
:10257000300000F038F90500300000F087F9451907
:10258000DFF834040068A84202D2DFF82C040560AA
:10259000FEF7C4FD84F31088D3E700B589B00021AD
:1025A000DFF8102411600021DFF8102411600021F1
:1025B000DFF80C2411600021DFF800249180002155
:1025C000DFF8F823D1800021DFF8F4239180002187
:1025D000DFF8EC23D180DFF8EC130968002903D180
:1025E00047F21221018036E0DFF8DC130968DFF8DA
:1025F000DC231268914203D247F2132101802AE0C2
:10260000DFF8CC1309781F2903D347F21121018089
:1026100021E008900B2007900020069000200590F4
:1026200000200490DFF8A00300680390DFF8A40303
:1026300000680290DFF88C0300680190DFF89003D7
:10264000007800900023DFF89023DFF89013DFF884
:102650009003FDF7D1FD09B000BD30B403001400B4
:102660001868002809D18C65002088610020C861A5
:102670000B6219600120988033E01A68186803E043
:10268000826DA41A02008069002821D0826DA242C6
:10269000F6D3C269002A0DD18C650022CA61886117
:1026A0000B62826D141B8465C16119609888401C9F
:1026B00098800CE0C2698C65CA6188610B62856D87
:1026C0002C1B8465C16191619888401C988008E04A
:1026D0008C65CA61002088610B6291619888401CFA
:1026E000988030BC704738B5B24C256892B2042A45
:1026F0000CD1491B0A00BB498A4201D2002A2CD1C5
:102700000021816547F27E20188033E092B2082ACA
:1027100022D1C26DAA1A914203D20A004919C16599
:102720001BE04A1BC46DA218AE4CA24201D2002A83
:102730000ED1C46DC26DAD1AB5FBF1F202FB0111F1
:102740000919C1650021816547F27E20188011E0DA
:10275000C46D0919C16500E00A000021198001213A
:1027600080F83E10AA1893490968521A010093484C
:10277000FFF773FF31BD10B401000B6ACA698869A5
:10278000002A1BD1002808D1002018600020988062
:10279000002088650020086223E00022C261846D69
:1027A0008A6D1419846518609888401E98800020EE
:1027B0008861002088650020086212E0906100288E
:1027C00004D0C261846D8A6D141984650020C861CB
:1027D0009888401E9880002088610020886500202D
:1027E000086210BC70472DE9F0410500FFF7EFF9D2
:1027F00006000027DFF8C481D8F80040002C2FD055
:10280000A06D854204D3A06D2D1A0020A06507E0BD
:10281000A06D401BA06503E0A06D2D1A0020A065EF
:10282000A06D00281CD17F1C94F83E00012806D121
:10283000002084F83E002000FFF7C8F806E094F876
:102840003E00052802D1042084F83E00A069C8F8A3
:102850000000D8F80040002C0AD10020A8F804009D
:10286000A8F80670FFF7B3F9861B3000BDE8F081C9
:10287000B8F80400401EA8F804000020E061A06D34
:102880008542C9D2A06D401BA065C9E72DE9F84378
:102890008146FFF79CF906000027DFF82481D8F86D
:1028A0000040002C6FD0A06D814505D3A06DB9EB21
:1028B00000090020A06509E0A06DB0EB0900A0654B
:1028C00004E0A06DB9EB00090020A065A06D002810
:1028D00059D17F1C002594F83C00042801D1A06B3D
:1028E000456A002020660020A4F86400FFF76FF915
:1028F00020652000FEF7D7FF94F83E00032806D19C
:102900002000FFF763F8002084F83E0006E094F80A
:102910003E00072802D1042084F83E00032084F8FA
:102920003D00002084F83C00002D22D095F83F00A7
:1029300095F8401088421CD095F83F0094F83F105D
:10294000884216D12800FFF7B0FC010095F840003E
:102950000A00D2B2904202D295F84010FFE7080078
:1029600095F83F20C0B2904203D0C9B22800FEF7CC
:10297000EDF8A069C8F80000D8F80040002C0AD192
:102980000020A8F80400A8F80670FFF720F9861BBD
:102990003000BDE8F283B8F80400401EA8F8040037
:1029A0000020E061A06D81458BD2A06DB0EB0900E5
:1029B000A0658BE7401B0120441B0120B81A0120B1
:1029C000C01A01209046200098462000884620002A
:1029D00089482000944620003D252000984520008D
:1029E000001801200100FFFF70B505000026EFF37D
:1029F000108672B6FEF77EFB0020DFF8B814088060
:102A00000020DFF8B41408600020DFF8B01408607C
:102A10000020DFF8AC1408600020DFF8A81408607C
:102A2000FEF79CFB0020DFF8A0140881FEF776FB80
:102A300086F31088EFF3108672B6FEF75BFBDFF8C3
:102A40008C040468FEF76AFB86F3108829E0EFF334
:102A5000108672B6FEF74EFB0020C4F8C4000020BA
:102A6000E0670020C4F8B8000020C4F8A0000020EF
:102A7000A4F89A000020A4F89C000020C4F8AC0040
:102A80000020C4F8B000FFF7A2F8C4F8A80014F1C1
:102A9000680000218181D4F8CC40FEF73FFB86F32B
:102AA0001088002CD3D1EFF3108672B6FEF722FB0C
:102AB000DFF81C040468FEF731FB86F310880DE094
:102AC000EFF3108672B6FEF715FB14F1200000211B
:102AD0008181A469FEF722FB86F31088002CEFD1D8
:102AE0000020288070BD38B5040000256946DFF855
:102AF000E403FDF7BFFEBDF80000002803D0BDF8D9
:102B0000000020805CE06A4600210220FFF76EF89A
:102B1000BDF80000002803D0BDF8000020804FE081
:102B2000EFF3108572B6FEF7E5FA0020DFF8A81380
:102B30000860FEF7F3FA85F310880020DFF89C1395
:102B40000968DFF89C231268914207D2DFF89003EE
:102B50000068DFF888130968B0FBF1F0002805D1A0
:102B6000DFF87C0300680A21B0FBF1F06A4600211F
:102B7000FFF73CF86946DFF85C03FDF712FCBDF88F
:102B80000000002803D0BDF80000208018E0EFF31B
:102B9000108572B6FEF7AEFA0020DFF81C1308604D
:102BA000DFF834030068DFF83C1308600120DFF829
:102BB00038130870FEF7B2FA85F3108800202080E1
:102BC00031BD2DE9F8435FF0000907E06A460021B6
:102BD000DFF8080300684000FFF708F8DFF8080393
:102BE00000780128F2D16846FFF7FEFE0025BB48B9
:102BF0000068BB490968884205D2B9480068B749EE
:102C00000968B0FBF1F5002D49D1B54800680A21EB
:102C1000B0FBF1F543E0D4F8B00000FB08F0B0FBE6
:102C2000F6F080B242F21171884201D342F2107084
:102C3000A4F89A00B4F89C10020092B2914201D21A
:102C4000A4F89C006B4614F1BC0214F1C0012000F2
:102C5000FDF7B0FDEFF3108972B6FEF74BFAD4F82A
:102C6000CC40FEF75BFA89F31088002CD3D19F4843
:102C70000078012805D100209C4908706846FFF7BC
:102C8000B3FEFEF7A4FFC71B8B480068B84201D211
:102C9000894807606A4600212800FEF7A7FFFEF773
:102CA00096FF0700FEF71AFA86490860EFF31089CD
:102CB00072B6FEF71FFA884800688D490860002048
:102CC00085490860FEF72AFA89F310888848006869
:102CD0008449096888423ED2824800688549884212
:102CE00003D242F2107201201CE07E480068824943
:102CF000884203D24FF47A720A2013E079480068C0
:102D00007E49884202D2642264200BE07548006844
:102D10007B49884203D20A224FF47A7002E00122F2
:102D200042F210706F490968B1FBF0F142F2107382
:102D30006F4800684243B2FBF1F01B1A71480380F0
:102D40005C4800886F490988884207D26D4800882E
:102D50005849088002E000206A490880FDF796FF84
:102D60000026EFF3108972B6FEF7C4F957480468DD
:102D7000FEF7D4F989F310881DE0EFF3108972B6DD
:102D8000FEF7B8F9D4F8AC00C4F8B0000020C4F8DD
:102D9000AC00FEF7C3F989F31088D4F8B0008619A7
:102DA000EFF3108972B6FEF7A5F9D4F8CC40FEF720
:102DB000B5F989F31088002CDFD1002E23D04D48BF
:102DC000864203D242F21078012019E04A48864236
:102DD00003D24FF47A780A2012E04848864203D2A0
:102DE0005FF0640864200BE04548864204D25FF03F
:102DF0000A084FF47A7003E05FF0010842F21070A5
:102E0000B6FBF0F602E05FF000080126EFF3108950
:102E100072B6FEF76FF92D480468FEF77FF989F363
:102E2000108822E700B589B000212B4A11600021EB
:102E30002F4A116000212B4A116000212A4A11708B
:102E400000212A4A117030490968002903D146F649
:102E50002B6101802CE02D4909682D4A12689142AE
:102E600003D246F62C61018022E02A4909781F2905
:102E700003D346F62A6101801AE0089003200790E8
:102E80000020069000200590002004901F48006854
:102E900003902148006802901B48006801901D487B
:102EA0000078009000231D4A1D491E48FDF7A4F933
:102EB00009B000BD781B0120341B0120441B0120F8
:102EC000501B0120101B0120AC1A01203C1B0120CB
:102ED000201B0120D4180120281B01207846200047
:102EE0008C4620002C1B0120851B0120841B012007
:102EF000301B0120801A060000093D00005A6202C2
:102F00000084D717761B01207C46200084462000D1
:102F1000884620008848200080462000C32B2000DF
:102F2000844520002C17012010B58AB00400002031
:102F30006E49086000206B49086000206A490880DB
:102F40006B480068002808D06A480068684909682A
:102F5000B0FBF1F06849086006E0664800680A21A5
:102F6000B0FBF1F064490860634800686349086099
:102F7000002063490860002062490860220062491D
:102F80006248FEF77BFF2088002835D16048006842
:102F9000002803D147F2473020802DE05D480068CB
:102FA0005D490968884203D247F24830208023E017
:102FB0005A4800781F2803D347F2463020801BE090
:102FC00008940B2007900020069000200590002018
:102FD00004905048006803905148006802904C48A3
:102FE000006801904D480078009000230FF24D02D8
:102FF0004C494D48FDF700F90AB010BD3949096840
:10300000814207D1026937490A60002A08D00021AD
:10301000516105E0426901691161002900D04A61EE
:10302000012180F8261000210161002141612E4814
:103030000088401E2C490880704700007CB50AE0DB
:10304000FEF7C5FD451B2F480068A84201D22D4858
:10305000056000F040F86B4601AA00210020FDF752
:1030600033FA00F02EF8FEF7B2FD050024480068A0
:10307000401C234908601B480468002CE0D06846C7
:10308000FEF764FA2669A069401EA061A0690028C5
:1030900012D1A08C022806D02000FFF7AFFF03203A
:1030A00084F8260001E0206AA061A26810000028D0
:1030B00002D0E1682000904734006846FEF777FAB6
:1030C000DBE7E0B501A8009002AB002200210F4829
:1030D000FEF70FFF07BD80B56A4600210B48FEF7DB
:1030E000F3FF01BD4C1B01207C1B0120481B01206C
:1030F0009C4620008C462000581B01205C1B0120B0
:10310000541B0120501B0120BC452000081A01203F
:10311000A0462000A8462000884620008A482000BB
:10312000A446200058452000D41801202148224AF6
:1031300022482348234A244824492548254826482C
:1031400026482749274928492848294929482A49FA
:103150002A492B492B492C482C482D482D492E48CB
:103160002E492F492F493049304931493148324899
:10317000324833483349344934493548354836486C
:10318000364937493749384A3849394839483A4839
:103190003A483B483B483C483C493D483D483E490D
:1031A0003E493F483F4840494048414841494249DB
:1031B000704700BF8B482000B44620008C48200098
:1031C0008D482000AC4620008E482000304420006E
:1031D0008F4820009048200091482000924820000D
:1031E000623320002A3F2000F4442000934820004E
:1031F000F63F200094482000F0442000364520008F
:103200004245200074432000954820009648200045
:10321000974820006C482000984820006E48200005
:103220007048200072482000744820007648200032
:10323000A4432000994820009A4820009B48200081
:103240009C482000784820009D48200058442000D9
:103250009E4820009F482000A0482000A148200050
:103260007A4820007C482000B0462000A248200078
:10327000A3482000A4482000A5482000A64820001C
:10328000A7482000A8482000A94820007E48200028
:10329000AA482000AB482000804820008248200037
:1032A000AC482000AD482000D4432000AE482000A8
:1032B000AF4820008448200086482000704700B5B1
:1032C00093B0012005905FF48030069000200890B4
:1032D00002200B905FF480000C9019200D904FF4A9
:1032E000D8700E9002200F900920109005A800F0D1
:1032F00039F8C0B2002800D0FEE700F0E1FBC0B210
:10330000002800D0FEE70F2000900220019000204E
:1033100002904FF4A05003904FF480500490072186
:10332000684600F076FAC0B2002800D0FEE713B07D
:1033300000BD80B5C0B2002805D0022809D005D351
:10334000032809D00BE000F035FB09E000F078FB22
:1033500006E000F078FB03E000F085FB00E00120D0
:1033600002BD280070B582B0040000260025207838
:10337000C00740F18480DFF81407006810F00C00EB
:1033800004280BD0DFF80407006810F00C000828B0
:103390000ED1DFF8FC060068400209D5DFF8E80628
:1033A000006880036BD56068002868D101202FE297
:1033B0006068B0F5803F08D1DFF8CC06006850F4B3
:1033C0008030DFF8C416086038E06068002810D14B
:1033D000DFF8B406006830F48030DFF8AC1608601F
:1033E000DFF8A406006830F48020DFF89C1608603F
:1033F00024E06068B0F5A02F10D1DFF88C060068DB
:1034000050F48020DFF880160860DFF87C06006842
:1034100050F48030DFF8701608600FE0DFF86806BF
:10342000006830F48030DFF860160860DFF8580676
:10343000006830F48020DFF85016086060680028CB
:103440000ED000F08EFB0600DFF83C06006880031B
:1034500015D400F086FB801B6528F5D30320D7E147
:1034600000F07FFB0600DFF820060068800306D529
:1034700000F077FB801B6528F5D30320C8E1207896
:1034800080072BD5DFF80406006810F00C0F0BD076
:10349000DFF8F805006810F00C0008283BD1DFF8D1
:1034A000F0050068400236D4DFF8DC0500688007CC
:1034B00004D5E068012801D00120A9E1DFF8C805A2
:1034C00000685FF0F851B1FA81F130F0F80022693C
:1034D00012FA01F10843DFF8B01508602078000700
:1034E00072D56069002858D0DFF8B005006850F048
:1034F0000100DFF8A815086000F033FB0600DFF8D4
:103500009C05006880075FD400F02BFB801B03281C
:10351000F5D303207CE1E068002827D0DFF86805B8
:10352000006850F00100DFF86015086000F019FB3A
:103530000600DFF854050068800706D400F011FB90
:10354000801B0328F5D3032062E1DFF83C05006807
:103550005FF0F851B1FA81F130F0F800226912FA07
:1035600001F10843DFF820150860B7E7DFF8180518
:10357000006840084000DFF81015086000F0F1FA1C
:103580000600DFF8040500688007A7D500F0E9FA17
:10359000801B0328F5D303203AE1DFF8000500681B
:1035A00040084000DFF8F414086000F0DAFA060082
:1035B000DFF8E8040068800706D500F0D2FA801B27
:1035C0000328F5D3032023E12078400740F1A580AC
:1035D000DFF8CC040068C0000FD4DFF8C404006832
:1035E00050F08050DFF8B8140860DFF8B4040068C9
:1035F00010F08050009000980125DFF8A8040068C2
:10360000C00516D4DFF89C04006850F48070DFF821
:103610009414086000F0A5FA0600DFF8880400683A
:10362000C00506D400F09DFA801B6528F5D3032061
:10363000EEE0A068012808D1DFF86C04006850F0C3
:103640000100DFF86414086037E0A068002810D19A
:10365000DFF85404006840084000DFF84C140860AC
:10366000DFF84404006830F00400DFF83C14086020
:1036700023E0A068052810D1DFF82C04006850F082
:103680000400DFF824140860DFF81C04006850F020
:103690000100DFF8141408600FE0DFF80C04006884
:1036A00040084000DFF800140860DFF8FC03006801
:1036B00030F00400DFF8F0130860A068002810D094
:1036C00000F04FFA0600DFF8E0030068800719D425
:1036D00000F047FA801B41F289318842F3D303207E
:1036E00096E000F03EFA0600DFF8BC0300688007B1
:1036F00008D500F036FA801B41F289318842F3D3B5
:10370000032085E0EDB2012D07D1DFF894030068B6
:1037100030F08050DFF888130860A069002876D068
:10372000DFF86803006810F00C0008286DD0A0696D
:10373000022853D1DFF85003006830F08070DFF8C2
:103740004813086000F00DFA0600DFF83C0300683B
:10375000800106D500F005FA801B0328F5D303206D
:1037600056E0DFF84803B0FA80F14FF44040B0FA79
:1037700080F2F020B0FA80F30E20B0FA80F5E6690E
:10378000206A0643606A10FA01F13143A06A4008DA
:10379000401E10FA02F21143E06A10FA03F31943D3
:1037A000206B10FA05F52943DFF8E4020160DFF829
:1037B000D802006850F08070DFF8CC12086000F08A
:1037C000D0F90600DFF8C002006880011FD400F0C5
:1037D000C8F9801B0328F5D3032019E0DFF8A802FD
:1037E000006830F08070DFF8A012086000F0B9F9CE
:1037F0000600DFF894020068800108D500F0B1F9F6
:10380000801B0328F5D3032002E0012000E0002004
:1038100076BD70B504000D000026DFF89402006844
:1038200010F00F00A84211D2DFF8840200680009EE
:1038300000012843DFF878120860DFF8740200689E
:1038400010F00F00A84201D00120B2E020788007DC
:1038500009D5DFF83802016831F0F001A0680143B2
:10386000DFF8280201602078C0075CD56068012875
:1038700006D1DFF814020068800312D4012098E01A
:103880006068022806D1DFF800020068800108D4D1
:1038900001208EE0DFF8F0010068800701D40120EC
:1038A00087E0DFF8E8010168890889006068014362
:1038B000DFF8D801016000F054F9060060680128C3
:1038C0000FD1DFF8C801006810F00C0004282AD0DE
:1038D00000F047F9801B41F289318842F1D303207F
:1038E00067E0606802280FD1DFF8A001006810F0DF
:1038F0000C00082817D000F034F9801B41F2893100
:103900008842F1D3032054E0DFF88001006810F012
:103910000C0F08D000F025F9801B41F28931884254
:10392000F2D3032045E0DFF88801006810F00F00B3
:10393000854211D2DFF878010068000900012843B0
:10394000DFF86C110860DFF86801006810F00F0004
:10395000A84201D001202CE02078400708D5DFF8EC
:103960002C01016831F4E051E068014347480160EF
:103970002078000708D54548006830F46040216988
:1039800050EAC1004149086000F014F83F49096855
:10399000DFF8202111F0F0015FF07063B3FA83F3D8
:1039A000D940515CC8403C4908600F2000F0D3F872
:1039B000002070BD00200021002000203348006856
:1039C00010F00C00002804D0042804D0082804D0EB
:1039D00034E0304833E0384831E02D48006810F0DA
:1039E0003F002B49096849020DD529490A68324927
:1039F000B1FBF0F147F6C07002402C48B0FA80F0FD
:103A0000C24051430CE022490A682249B1FBF0F15F
:103A100047F6C07002402548B0FA80F0C2405143DA
:103A20001B48006810F440304FF44042B2FA82F272
:103A3000D040401C4000B1FBF0F000E0154870475A
:103A400015480068704780B5FFF7FAFF0F4909680D
:103A50001A4A11F4E0515FF46013B3FA83F3D940CA
:103A6000515CC84002BD80B5FFF7EAFF074909680D
:103A7000124A11F460415FF4E023B3FA83F3D940B2
:103A8000515CC84002BD00000038024008380240C6
:103A9000043802400024F400000001207438024081
:103AA0004038024000700040703802400000FE03C1
:103AB000003C0240CC45200040787D015846200063
:103AC00010B582B000241F48006850F080501D4996
:103AD00008601C48006810F080500090009818485A
:103AE000006850F480301649086000F03AF804008D
:103AF00012480068C00308D400F033F8001B40F2FD
:103B0000E9318842F4D3032016E00D48006850F4F0
:103B100000300B49086000F024F8040007480068F2
:103B2000800308D400F01DF8001B40F2E931884200
:103B3000F4D3032000E0002016BD00000470004014
:103B4000007000404038024080B50120FFF7F1FBD3
:103B5000FDF7C3F901BD80B5002000F015F8002085
:103B600002BD80B56846FEF744F902BD10F00700BB
:103B700007490A684FF6FF010A40064951EA002149
:103B80000A4303480260704780B5FFF7EFFF01BDAD
:103B90000CED00E00000FA0578B4002300220024B8
:103BA0000025002341E00A2604E0DFF804229042C9
:103BB000F9D10926F6B213F00302D2B29200964070
:103BC0003543DFF8F0211E00B60842F82650DFF832
:103BD000E8211568A5434A68D20300D52543DFF8DC
:103BE000D8211560DFF8D4211568A5434A689203EF
:103BF00000D52543DFF8C4211560DFF8C42115681E
:103C0000A5434A68D20200D52543DFF8B4211560E8
:103C1000DFF8B0211568A5434A68920201D52C430C
:103C20002500DFF8A02115605B1C102B80F0AF8011
:103C300001229A400C6814409442F5D14A68022A45
:103C400002D04A68122A17D11A00D20800EB820269
:103C5000156A0F2613F00702D2B292009640B543C0
:103C60000E6913F00702D2B29200964035431A0053
:103C7000D20800EB82021562056803261A00D2B250
:103C800052009640B5430E7916F003061A00D2B2E0
:103C900052009640354305604A68012A08D04A68B8
:103CA000022A05D04A68112A02D04A68122A17D17E
:103CB000856803261A00D2B252009640B543CE68FA
:103CC0001A00D2B252009640354385604568012201
:103CD0009A4095434A68C2F300129A4015434560E2
:103CE000C56803261A00D2B252009640B5438E68CA
:103CF0001A00D2B2520096403543C5604A68D200DD
:103D000092D5314A126852F480422F4D2A602E4AD1
:103D1000126812F480420092009A264A1D00AD08F3
:103D200052F825500F2613F00302D2B292009640AB
:103D3000B543264A904201D100263BE7244A9042EF
:103D400001D1012636E7234A904201D1022631E70C
:103D5000214A904201D103262CE7204A904201D10A
:103D6000042627E71E4A904201D1052622E71D4A74
:103D7000904201D106261DE71B4A904201D1072639
:103D800018E71A4A90427FF410AF082612E771BC78
:103D90007047D2B2002A02D089B2816102E089B2B2
:103DA000090481617047426989B25140416170479D
:103DB0000024024008380140003C0140043C01401E
:103DC000083C01400C3C01404438024000000240E5
:103DD0000004024000080240000C024000100240B3
:103DE0000014024000180240001C02400020024063
:103DF00000B58BB000F084F8FFF761FAFDF738F9F1
:103E0000FEF7F4FA00F092F8FEF770FB09A8FDF750
:103E100047FA00F0A1F809A80890032007900020B5
:103E2000069000200590002004904FF480700390CD
:103E30002848406E029027480190022000900023FD
:103E40000FF2110224492548FCF7D6F909A8FDF71D
:103E5000EEFBFEE7E0B500F0C8F802A8FEF743FE6F
:103E6000FDF723F900F01DF8002000F0FDF802A88E
:103E70000190002000904FF4FA73002200210020EE
:103E8000FDF7FEFE012000F0EFF802A801900020EF
:103E900000904FF4FA73002200210020FDF7F0FE9D
:103EA000E2E780B56B4600220D490E4800F0FAF8B3
:103EB0006A460D490D48FDF7E1FF6B4601220C49AA
:103EC0000C4800F047F96B4600220B490B4800F004
:103ED000A3F901BD04000120AC4520008415012098
:103EE000EC452000381A0120F8452000A8190120CF
:103EF00004462000D819012010462000601A012035
:103F000080B50848006850F4007006490860032036
:103F1000FFF73AFE0F20FFF71EFE00F005F8002025
:103F200002BD0000003C02407047040080B5012043
:103F300000F001F801BD38B504000025EFF310854D
:103F400072B6FDF7D7F803480460FDF7E7F885F38C
:103F5000108831BDE01A012010B50024EFF3108461
:103F600072B6FDF7C7F80FF25D000F4908600FF257
:103F700059000E4908600FF255000D4908600FF214
:103F800055000C4908600FF255000B4908600FF20C
:103F900055000A4908600FF2510009490860FDF711
:103FA000BDF884F3108810BDFC1A0120001B01200D
:103FB000F01A0120F41A0120F81A0120041B012034
:103FC000081B0120704700007047000081B0684660
:103FD00001B0704781B0684601B0704781B0684653
:103FE00001B0704770470000704780B5FFF7ACFD27
:103FF00000F002F801BD200000B587B02648006837
:1040000050F00200244908602348006810F00200C4
:10401000009000980320019001200290012003905D
:104020000320049001A91D48FFF7B6FD002000F011
:1040300002F807B000BD80B5C0B2002802D0012848
:1040400006D00BE0012201211448FFF7A2FE0AE08E
:10405000012202211148FFF79CFE04E00122022107
:104060000F48FFF796FE01BD80B5C0B2002802D010
:10407000012805D009E001210848FFF794FE08E077
:1040800002210648FFF78FFE03E002210448FFF7F4
:104090008AFE01BD000000003038024000040240EA
:1040A000001402402DE9F04104000E0090461D006E
:1040B0000027DFF890000078002803D042F6E16086
:1040C000288026E0002C03D145F6C350288020E04C
:1040D000EFF3108772B6FDF70DF8DFF86C00206083
:1040E000C4F8208000206062666014F10800FDF7CB
:1040F0009AFB200000F00FF8DFF850000088401C09
:10410000DFF848100880FDF709F887F310880020D1
:104110002880BDE8F0810AA1C161002141610C49FC
:104120000968002902D10021816105E00849096878
:1041300081610749096848610549086070470000C6
:10414000200000007E1B012053454D41741B0120BF
:10415000241B01202DE9F0410500884614001E00B3
:104160000027DFF8A4000078002803D042F6E160C1
:10417000308030E0002D03D145F6C35030802AE076
:10418000A4B2002C03D146F29450308023E0EFF328
:10419000108772B6FCF7AEFFDFF870002860C5F834
:1041A0000480210089B215F12000FCF750FF15F1C1
:1041B0000800FDF738FB280000F00FF8DFF850008A
:1041C0000088401CDFF848100880FCF7A7FF87F341
:1041D000108800203080BDE8F0810AA1C161002173
:1041E00041610C490968002902D10021816105E083
:1041F00008490968816107490968486105490860FB
:1042000070470000200000007E1B012051554555DD
:10421000721B0120201B01202DE9F04104000F003A
:1042200090461D000026DFF890000078002803D09B
:1042300042F6E160288026E0002C03D145F6C35009
:10424000288020E0EFF3108672B6FCF753FFDFF80A
:104250006C0020606760C4F820800020606214F168
:104260000800FDF7E0FA200000F00FF8DFF850003A
:104270000088401CDFF848100880FCF74FFF86F3E9
:10428000108800202880BDE8F0810AA1C1610021CA
:1042900041610C490968002902D10021816105E0D2
:1042A000084909688161074909684861054908604A
:1042B00070470000200000007E1B0120464C414753
:1042C0006C1B0120141B01201248006850F4700080
:1042D000104908601048006850F001000E4908605D
:1042E00000200E4908600C4801680D4801400A484A
:1042F00001600C480C4908600748006830F48020D1
:10430000054908600020094908605FF0006008491D
:104310000860704788ED00E000380240083802402D
:10432000FFFFF6FE10300024043802400C38024033
:1043300008ED00E019E050F8042BD30744BFA9F1C1
:1043400001039A18091F0023042942F8043BF9D2FB
:104350005FEA817C134604D54FF0000CA2F800C040
:104360009B1CC90744BF0021197050F8041B002989
:10437000E1D17047000000000000000000000000D4
:10438000000000000000000000000000000000002D
:10439000000000000000000000000000000000001D
:1043A000000000000000000000000000000000000D
:1043B00000000000000000000000000000000000FD
:1043C00000000000000000000000000000000000ED
:1043D00000000000000000000000000000000000DD
:1043E00000000000000000000000000000000000CD
:1043F00000000000000000000000000000000000BD
:104400000000000010B450F8041B79B10268436842
:1044100002440830DC0744BFA9F10104E31852F854
:10442000044B43F8044B091FF9D1ECE710BC70476B
:10443000000000000000000000000000000000007C
:10444000000000000000000000000000000000006C
:10445000000000000000000000000000000000005C
:10446000000000000000000000000000000000004C
:10447000000000000000000000000000000000003C
:1044800010B5074979441831064C7C44163404E0D1
:104490000A68081D114488470146A142F8D110BDA1
:1044A0002C0000004C0000004EF68851CEF20001B6
:1044B000086840F470000860BFF34F8FBFF36F8F40
:1044C0004FF00070E1EE100A7047000069FEFFFF38
:1044D000841B0000040001200000000029FFFFFFF2
:1044E00004000000CC0300000000012000000000D8
:1044F00010000000000000000000000000000000AC
:1045000000000000000000000000000000000000AB
:104510000000000000F00BF8002801D0FFF7B0FF0A
:104520000020AFF30080FFF763FC00F002F80120E9
:10453000704700F001B80C000746384600F002F85A
:10454000FBE7100080B5AFF30080024A110018208D
:10455000ABBEFBE72600020075432F4F532D4949A0
:10456000492054696D6572205461736B000000002E
:1045700075432F4F532D4949492049646C65205498
:1045800061736B0075432F4F532D49494920537474
:104590006174205461736B0075432F4F532D49494B
:1045A00049205469636B205461736B004170702023
:1045B0005461736B20537461727400004F53205424
:1045C0006D72204D757465780000000000000000D9
:1045D00000000000010203040607080901488047A3
:1045E00001480047C94220003546200053656D2030
:1045F00054657374000000004D757465782054652F
:1046000073740000517565756520546573740000FE
:10461000466C616720546573740000005461736BCD
:104620002053656D000000007047FEE7FEE7FEE7DF
:1046300070477047AFF30080FFF736FFFFF76AFF60
:1046400048656170000000005461736B20510000E8
:104650003F5461736B00000000000000010203047E
:10466000040801200C00000080000000040A012062
:1046700080000000040C01200A000000040E01204C
:104680000C0000008000000040000000E803000073
:10469000041001200C000000800000000A0000004F
:1046A000041201200C000000800000007856341233
:1046B00080010000BB050000FFF7FEBFFFF7FEBF53
:1046C000FFF7FEBFFFF7FEBFFFF7FEBFFFF7FEBF1E
:1046D000FFF7FEBFFFF7FEBFFFF7FEBFFFF7FEBF0E
:1046E000FFF7FEBFFFF7FEBFFFF7FEBFFFF7FEBFFE
:1046F000FFF7FEBFFFF7FEBFFFF7FEBFFFF7FEBFEE
:10470000FFF7FEBFFFF7FEBFFFF7FEBFFFF7FEBFDD
:10471000FFF7FEBFFFF7FEBFFFF7FEBFFFF7FEBFCD
:10472000FFF7FEBFFFF7FEBFFFF7FEBFFFF7FEBFBD
:10473000FFF7FEBFFFF7FEBFFFF7FEBFFFF7FEBFAD
:10474000FFF7FEBFFFF7FEBFFFF7FEBFFFF7FEBF9D
:10475000FFF7FEBFFFF7FEBFFFF7FEBFFFF7FEBF8D
:10476000FFF7FEBFFFF7FEBFFFF7FEBFFFF7FEBF7D
:10477000FFF7FEBFFFF7FEBFFFF7FEBFFFF7FEBF6D
:10478000FFF7FEBFFFF7FEBFFFF7FEBFFFF7FEBF5D
:10479000FFF7FEBFFFF7FEBFFFF7FEBFFFF7FEBF4D
:1047A000FFF7FEBFFFF7FEBFFFF7FEBFFFF7FEBF3D
:1047B000FFF7FEBFFFF7FEBFFFF7FEBFFFF7FEBF2D
:1047C000FFF7FEBFFFF7FEBFFFF7FEBFFFF7FEBF1D
:1047D000FFF7FEBFFFF7FEBFFFF7FEBFFFF7FEBF0D
:1047E000FFF7FEBFFFF7FEBFFFF7FEBFFFF7FEBFFD
:1047F000FFF7FEBFFFF7FEBFFFF7FEBFFFF7FEBFED
:10480000FFF7FEBFFFF7FEBFFFF7FEBFFFF7FEBFDC
:10481000FFF7FEBFFFF7FEBFFFF7FEBFFFF7FEBFCC
:10482000FFF7FEBFFFF7FEBFFFF7FEBFFFF7FEBFBC
:10483000FFF7FEBFFFF7FEBFFFF7FEBFFFF7FEBFAC
:10484000FFF7FEBFFFF7FEBFFFF7FEBFFFF7FEBF9C
:10485000FFF7FEBFFFF7FEBFFFF7FEBFFFF7FEBF8C
:10486000FFF7FEBFFFF7FEBFFFF7FEBF30000C00F3
:104870002000200004000400300028000C0001008B
:10488000D4000800300088771E011D0101010101DC
:104890000000000101010000010100000100010110
:1048A00001010401010100010001010101000100F9
:0448B0000024F400EC
:04000005002046355C
:00000001FF
