:020000040020DA
:1000000000200020D5A12C002DA22C002FA22C0016
:1000100001662C0031A22C0033A22C00000000004D
:1000200000000000000000000000000035A22C00CD
:1000300037A22C0000000000191D2C0079052C00AF
:10004000D9A22C00DDA22C00E1A22C00E5A22C00FC
:10005000E9A22C00EDA22C00F1A22C00F5A22C00AC
:10006000BD652C00CF652C00F9A22C00FDA22C0050
:1000700001A32C0005A32C0009A32C000DA32C0028
:1000800011A32C0015A32C0019A32C001DA32C00D8
:1000900021A32C0025A32C0029A32C00E9652C000A
:1000A0002DA32C0031A32C0035A32C0039A32C0048
:1000B0003DA32C0033652C0041A32C0045A32C004C
:1000C00049A32C004DA32C0051A32C0055A32C00B8
:1000D00059A32C005DA32C00F7652C0061A32C0014
:1000E00065A32C0069A32C006DA32C0071A32C0028
:1000F00075A32C0079A32C007DA32C0081A32C00D8
:1001000085A32C0089A32C003D652C008DA32C0019
:1001100091A32C0095A32C0099A32C009DA32C0047
:10012000635E2C00A1A32C00A5A32C00A9A32C0086
:10013000ADA32C00B1A32C00B5A32C00B9A32C00B7
:10014000BDA32C00C1A32C00C5A32C00C9A32C0067
:10015000CDA32C00D1A32C00D5A32C00D9A32C0017
:10016000DDA32C00E1A32C00E5A32C00E9A32C00C7
:10017000EDA32C00F1A32C00F5A32C00000000003F
:10018000F9A32C00FDA32C0001A42C0005A42C0035
:1001900009A42C000DA42C0011A42C0015A42C00E3
:1001A00019A42C001DA42C0021A42C0025A42C0093
:1001B00029A42C002DA42C0031A42C0035A42C0043
:1001C00039A42C003DA42C000000000041A42C0008
:1001D00045A42C0049A42C004DA42C0051A42C00B3
:1001E00055A42C0059A42C005DA42C0061A42C0063
:1001F00065A42C0069A42C001110032001E0011B50
:10020000FFFFFFFFFFFFFFFFFFFFFFFFFFFFFFFFFE
:10021000FFFFFFFFFFFFFFFFFFFFFFFFFFFFFFFFEE
:10022000FFFFFFFFFFFFFFFFFFFFFFFFFFFFFFFFDE
:10023000FFFFFFFFFFFFFFFFFFFFFFFFFFFFFFFFCE
:103E6000FFDFFFFFFFFFFFFFFFFFFFFFFFFFFFFF82
:103E7000FFFFFFFFFFDFFFFFFFDFFFFEFFDFFFFFB3
:103E8000FFFFFFFFFFDFFFDFFFFFFFFFFFFFFFFF82
:103E9000FFFFFFFFFFFFFFFFFFFFFFFFFFFFFFFF32
:103EA000FFFFFFFFFFFFFFFFFFFFFFFFFFFFFFFF22
:103EB000FFFFFFFFFFFFFFFFFFFFFFFFFFFFFFFF12
:103EC000FFFFFFFFFFFFFFFFFFFFFFFFFFFFFFFF02
:103ED000FFFFFFFFFFFFFFFFFFFFFFFFFFFFFFFFF2
:103EE000FFFFFFFFFFFFFFFFFFFFFFFFFFFFFFFFE2
:103EF000FFFFFFFFFFFFFFFFFFFFFFFFFFFFFFFFD2
:103F0000FFFFFFFFFFFFFFFFFFFFFFFFFFFFFFFFC1
:103F1000FFFFFFFFFFFFFFFFFFFFFFFFFFFFFFFFB1
:103F2000FFFFFFFFFFFFFFFFFFFFFFFFFFFFFFFEA2
:103F3000FFFEFFFFFFDFFFFFFFFFFFFFFFFFFFFFB2
:103F4000FFFFFFFFFFFFFFFFFFFFFFFFFFFFFFFF81
:103F5000FFFFFFFFFFFFFFFFFFFFFFFFFFFFFFFF71
:103F6000FFFFFFFFFFFFFFFFFFFFFFFFFFFFFFFF61
:103F7000FFFFFFFFFFFFFFFFFFFFFFFFFFFFFFFF51
:103F8000FFFFFFFFFFFFFFFFFFFFFFFFFFFFFFFF41
:103F9000FFFFFFFFFFFFFFFFFFFFFFFFFFFFFFFF31
:103FA000FFFFFFFFFFFFFFFFFFFFFFFFFFFEFFDF42
:103FB000FFDFFFFFFFFFFFFEFFFFFFFFFFFFFFFF32
:103FC000FFFFFFFFFFFFFFDFFFDFFFFFFFFEFFFF42
:103FD000FFFFFFFEFFFFFFFEFFFFFFFFFFFEFFFFF4
:103FE000FFFFFFFFFFFFFFFFFFFFFFFFFFFFFFFFE1
:103FF000FFFFFFFFFFFFFFFFFFFFFFFFFFFFFFFFD1
:10400000FFFFFFFFFFFFFFFFFFFFFFFFFFFFFFFFC0
:10401000FFFFFFFFFFFFFFFFFFFFFFFFFFFFFFFFB0
:10402000FFFFFFFFFFFFFFFFFFFFFFFFFFFFFFFFA0
:10403000FFFFFFFFFFDFFFFFFFFFFFFFFFFFFFFFB0
:10404000FFFFFFFFFFFFFFFFFFFFFFFFFFFFFFFF80
:10405000FFFFFFFFFFFFFFFFFFFFFFFFFFFFFFFF70
:10406000FFFFFFFFFFFFFFFFFFFFFFFFFFFFFFDF80
:10407000FFFFFFFFFFFFFFFFFFFFFFFFFFFFFFFF50
:10408000FFFFFFFFFFFFFFFFFFFFFFFFFFFFFFFF40
:10409000FFFFFFFFFFFFFFFFFFFFFFFFFFFFFFFF30
:1040A000FFFFFFFFFFFFFFFFFFFFFFFFFFFFFFFF20
:1040B000FFFFFFFFFFFFFFFFFFFFFFFFFFFFFFFF10
:1040C000FFFFFFFFFFFFFFFFFFFFFFFFFFFFFFFF00
:1040D000FFFFFFFFFFFFFFFFFFFFFFFFFFFFFFDF10
:1040E000FFFFFFFFFFFFFFFFFFFFFFFFFFFFFFFFE0
:1040F000FFFFFFFFFFFFFFFFFFFFFFFFFFFFFFFFD0
:10410000FFFFFFFFFFFFFFFFFFFFFFFFFFFFFFFFBF
:10411000FFFFFFFFFFDFFFFFFFFFFFFEFFFEFFFFD1
:10412000FFFFFFFFFFFFFFFFFFFFFFFFFFFFFFFF9F
:10413000FFFFFFFFFFFFFFFFFFFFFFFFFFFFFFFF8F
:10414000FFFFFFFFFFFFFFFFFFFFFFFFFFFFFFFF7F
:10415000FFFFFFFFFFFFFFFFFFFFFFFFFFFFFFFF6F
:10416000FFFFFFFFFFFFFFFFFFFFFFFFFFFFFFFF5F
:10417000FFFFFFFFFFFFFFFFFFFFFFFFFFFFFFFF4F
:10418000FFFFFFFFFFFFFFFFFFFFFFFFFFFFFFFF3F
:10419000FFFFFFFFFFFFFFFFFFFFFFFFFFFFFFFF2F
:1041A000FFFFFFFFFFFFFFFFFFFFFFFFFFFFFFFF1F
:1041B000FFFFFFFFFFFFFFFFFFFFFFFFFFFFFFFF0F
:1041C000FFFFFFFFFFFFFFFFFFFFFFFFFFFFFFFFFF
:1041D000FFFFFFFFFFFFFFFFFFFFFFFFFFFFFFFFEF
:1041E000FFFFFFFFFFFFFFFFFFFFFFFFFFFFFFFFDF
:1041F000FFFFFFFFFFFFFFFFFFFFFFFFFFFFFFFFCF
:10420000FFFFFFFFFFFFFFFFFFFFFFFFFFFFFFFFBE
:10421000FFFFFFFFFFFFFFDFFFFFFFFFFFFFFFFFCE
:10422000FFFFFFFEFFFEFFFFFFFFFFFFFFFFFFFFA0
:10423000FFFFF7FEFFFFFFFFFFFFF7FEFFFFFFFFA0
:10424000FFFFFFFFFFFFFFFFFFFEFFFFFFFFFFFF7F
:10425000FFFFFFFFFFFFFFFFFFFFFFFFFFFFFFFF6E
:10426000FFFFFFFFFFFFFFFFFFFFFFFFFFFFFFFF5E
:10427000FFFFFFFFFFFFFFFFFFFFFFFFFFFFFFFF4E
:10428000FFFFFFFFFFFFFFFFFFFFFFFFFFFFFFFF3E
:10429000FFFFFFFFFFFFFFFFFFFFFFFFFFFFFFFF2E
:1042A000FFFFFFFFFFFFFFFFFFFFFFFFFFFFFFFF1E
:1042B000FFFFFFFFFFFFFFFFFFFFFFFFFFFFFFFF0E
:1042C000FFFFFFFFFFFFFFFFFFFFFFFFFFFFFFFFFE
:1042D000FFFFFFFFFFFFFFFFFFFFFFFFFFFFFFFFEE
:1042E000FFFFFFFFFFFFFFFFFFFFFFDFFFDFFFDF3E
:1042F000FFFFFFDFFFFFFFFFFFFFFFFEFFFFFFDF0F
:10430000FFFFFFFFFFFFFFFFFFFFFFFFFFFFFFFFBD
:10431000FFFFFFFFFFFFFFFFFFFFFFFFFFFFFFFFAD
:10432000FFFFFFFFFFFFFFFFFFFFFFFFFFFFFFFF9D
:10433000FFFFFFFFFFFFFFFFFFFFFFFFFFFFFFFF8D
:10434000FFFFFFFFFFFFFFFFFFFFFFFFFFFFFFFF7D
:10435000FFFFFFFFFFFFFFFFFFFFFFFFFFFFFFFF6D
:10436000FFFFFFFFFFFFFFFFFFFFFFFFFFFFFFDF7D
:10437000FFFFFFFFFFFFFFFFFFFFFFDFFFDFFFFF8D
:10438000FFFFFFFFFFFFFFFFFFFFFFFFFFFFFFDF5D
:10439000FFFFFFFFFFFFFFFFFFFFFFFFFFFFFFFF2D
:1043A000FFFFFFFFFFFFFFFFFFFFFFFFFFFFFFFF1D
:1043B000FFFFFFFFFFFFFFFFFFFFFFFFFFFFFFFF0D
:1043C000FFFFFFFFFFFFFFFFFFFFFFFFFFFFFFFFFD
:1043D000FFFFFFFFFFFFFFFFFFFFFFFFFFFFFFFFED
:1043E000FFFFFFFFFFFFFFFFFFFFFFFFFFFFFFFFDD
:1043F000FFFFFFFFFFFFFFFFFFFFFFFFFFDFFFFFED
:10440000FFFFFFDFFFFFFFFFFFFFFFFEFFFFFFFFDD
:10441000FFFFFFFFFFFFFFFFFFFFFFFFFFFFFFFFAC
:10442000FFFFFFFFFFFFFFFFFFDFFFFFFFFFFFFEBD
:10443000FFFFFFFFFFFFFFFFFFFFFFFFFFFFFFFF8C
:10444000FFFFFFFFFFFFFFFFFFFFFFFFFFFFFFFF7C
:10445000FFFFFFFFFFFFFFFFFFFFFFFFFFFFFFFF6C
:10446000FFFFFFFFFFFFFFFFFFFFFFFFFFFFFFFF5C
:10447000FFFFFFFFFFFFFFFFFFFFFFFFFFFFFFFF4C
:10448000FFFFFFFFFFFFFFFFFFFFFFFFFFFFFFFF3C
:10449000FFFFFFFFFFFEFFFFFFFFFFFFFFFFFFFF2D
:1044A000FFFFFFFFFFFFFFFFFFFFFFFFF7FEFFFF25
:1044B000FFFFFFFFFFFFFFFFFFFFFFFFFFFFFFFF0C
:1044C000FFFFFFFFFFFFFFFFFFFFFFFEFFFEFFFEFF
:1044D000FFFFFFFFFFFFFFFFFFFFFFFFFFFFFFFFEC
:1044E000FFFFFFFFFFFFFFFFFFFFFFFFFFFFFFFFDC
:1044F000FFFFFFFFFFFFFFFFFFFFFFFFFFFFFFFFCC
:10450000FFFFFFFFFFFFFFFFFFFFFFFFFFFFFFFFBB
:10451000FFFFFFFFFFFFFFFFFFFFFFFFFFFFFFFFAB
:10452000FFFFFFFFFFFFFFFFFFFFFFFFFFFFFFFF9B
:10453000FFFFFFFFFFFFFFFFFFFFFFFFFFFFFFFF8B
:10454000FFFFFFFFFFFFFFFFFFFFFFFFFFFFFFFF7B
:10455000FFFFFFFFFFFFFFFFFFFFFFFFFFFFFFFF6B
:10456000FFFFFFFFFFFFFFFFFFFFFFFFFFFFFFFF5B
:10457000FFFFFFFFFFFFFFFFFFFFFFFFFFFFFFFF4B
:10458000FFFFFFFFFFFFFFFFFFFFFFFFFFFFFFFF3B
:10459000FFFFFFFFFFFFFFFFFFFFFFFFFFFFFFFF2B
:1045A000FFFFFFFFFFFFFFFFFFFFFFFFFFFFFFFF1B
:1045B000FFFFFFFFFFFFFFFFFFFFFFFFFFFFFFFF0B
:1045C000FFFFFFFFFFFFFFFFFFFFFFFFFFFFFFFFFB
:1045D000FFFFFFFFFFFFFFFFFFFFFFFFFFDFFFFF0B
:1045E000FFFFFFFFFFFFFFFFFFFFFFFFFFFFFFFFDB
:1045F000FFFFFFFFFFDFFFDFFFDFFFDFFFFFFFFF4B
:10460000FFFFFFDFFFFFFFFFFFFFFFFFFFFFFFFFDA
:10461000FFFFFFFFFFFFFFFFFFFFFFFFFFFFFFFFAA
:10462000FFFFFFFFFFFFFFFFFFFFFFFFFFFFFFFF9A
:10463000FFFFFFFFFFFFFFFFFFFFFFFFFFFFFFFF8A
:10464000FFFFFFFFFFFFFFFFFFFFFFFFFFFFFFFF7A
:10465000FFFFFFFFFFFFFFFFFFFFFFFFFFFFFFFF6A
:10466000FFFFFFFFFFFFFFFFFFFFFFFFFFFFFFFF5A
:10467000FFFFFFFFFFFFFFFFFFFFFFFFFFFFFFFF4A
:10468000FFFFFFFFFFFFFFFFFFFFFFFFFFFFFFFF3A
:10469000FFFFFFFFFFFFFFFFFFFFFFFFFFFFFFFF2A
:1046A000FFFFFFDFFFFFFFFFFFFFFFFFFFFFFFDF5A
:1046B000FFFFFFFFFFFFFFDFFFFFFFFFFFDFFFFF4A
:1046C000FFFFFFFFFFFFFFFFFFFFFFFFFFFFFFFFFA
:1046D000FFFFFFFFFFFFFFFFFFFFFFFFFFFFFFFFEA
:1046E000FFFFFFFFFFFFFFFFFFFFFFFFFFFFFFFFDA
:1046F000FFFFFFFFFFFFFFFFFFFFFFFFFFFFFFFFCA
:10470000FFFFFFFFFFFFFFFFFFFFFFFFFFFFFFFFB9
:10471000FFFFFFFFFFFFFFFFFFFFFFFFFFFFFFFFA9
:10472000FFFEFFFFFFFFFFFFFFFFFFFFFFFFFFFF9A
:10473000FFFFFFFFFFFEFFFFFFFFFFFEFFFFFFFF8B
:10474000FFFFFFFFFFFFFFFFFFFEFFFFFFFFFFFF7A
:10475000FFFFFFFEFFFFFFFFFFFEFFFFFFFFFFFF6B
:10476000FFFFFFFFFFFFFFFFFFFFFFFFFFFFFFFF59
:10477000FFFFFFFFFFFFFFFFFFFFFFFFFFFFFFFF49
:10478000FFFFFFFFFFFFFFFFFFFFFFFFFFFFFFFF39
:10479000FFFFFFFFFFFFFFFFFFFFFFFFFFFFFFFF29
:1047A000FFFFFFFFFFFFFFFFFFFFFFFFFFFFFFFF19
:1047B000FFFFFFFEFFFFFFFFFFFFFFFFFFFFFFDF2A
:1047C000FFFFFFFFFFFFFFFFFFFFFFFFFFFFFFFFF9
:1047D000FFFFFFFFFFFFFFFFFFFFFFFFFFFFFFFFE9
:1047E000FFFFFFFFFFDFFFFFFFFFFFFFFFFFFFFEFA
:1047F000FFFFFFFFFFFFFFFFFFFFFFFFFFDFFFFFE9
:10480000FFFFFFFFFFFFFFFFFFFFFFFFFFFFFFFFB8
:10481000FFFFFFFFFFFFFFFFFFFFFFFFFFFFFFFFA8
:10482000FFFFFFFFFFFFFFFFFFFFFFFFFFFFFFFF98
:10483000FFFFFFFFFFFFFFFFFFFFFFFFFFFFFFFF88
:10484000FFFFFFFFFFFFFFFFFFFFFFFFFFFFFFFF78
:10485000FFDFFFDFFFFFFFFFFFFFFFDFFFFEFFFFC9
:10486000FFFFFFFFFFFFFFFFFFFFFFFFFFFFFFFF58
:10487000FFFFFFFFFFFFFFFFFFFFFFFFFFFFFFFF48
:10488000FFFFFFFFFFFFFFFFFFFFFFFFFFFFFFFF38
:10489000FFFFFFFFFFFFFFFFFFDFFFDFFFFFFFFF68
:1048A000FFFFFFFFFFFFFFFFFFFFFFFFFFFFFFFF18
:1048B000FFFFFFFFFFFFFFFFFFFFFFFFFFFFFFFF08
:1048C000FFFFFFFFFFFFFFFFFFFFFFFFFFFFFFFFF8
:1048D000FFFFFFFFFFFFFFFFFFFFFFFFFFFFFFFFE8
:1048E000FFFFFFFFFFFFFFFFFFFFFFFFFFFFFFFFD8
:1048F000FFFFFFFFFFFFFFFFFFFFFFFFFFFFFFFFC8
:10490000FFFFFFFFFFFFFFFFFFFFFFFFFFFFFFFFB7
:10491000FFFFFFFFFFFFFFFFFFFFFFFFFFFFFFFFA7
:10492000FFFFFFFFFFFFFFFFFFFFFFFFFFFFFFFF97
:10493000FFFFFFFFFFFFFFFFFFFFFFFFFFFFFFFF87
:10494000FFFFFFFFFFFFFFFFFFFFFFFFFFFFFFFF77
:10495000FFFFFFFFFFFFFFFFFFFFFFFFFFFFFFFF67
:10496000FFFFFFFFFFFFFFFFFFFFFFFFFFFFFFFF57
:10497000FFFFFFFFFFFFFFFFFFFFFFFFFFFFFFFF47
:10498000FFFFFFFFFFFFFFFFFFFFFFFFFFFFFFFF37
:10499000FFFFFFFFFFFFFFFFFFFFFFFFFFFFFFFF27
:1049A000FFFFFFFFFFFFFFFFFFFFFFFFFFFFFFFF17
:1049B000FFDFFFDFFFFFFFFFFFFFFFFFFFFFFFFE48
:1049C000FFFFFFFFFFFFFFDEFFDFFFFFFFDFFFFF58
:1049D000FFFFFFFFFFFFFFFFFFFFFFFFFFFFFFFFE7
:1049E000FFFFFFFFFFFFFFFFFFFFFFFFFFFFFFFFD7
:1049F000FFFFFFFFFFFFFFFFFFFFFFFFFFFFFFFFC7
:104A0000FFFFFFFFFFFFFFFFFFFFFFFFFFFFFFFFB6
:104A1000FFFFFFFFFFFFFFFFFFFFFFFFFFFFFFFFA6
:104A2000FFFFFFFFFFFFFFFFFFFFFFFFFFFFFFFF96
:104A3000FFFFFFFFFFFFFFFFFFFFFFFFFFFFFFFF86
:104A4000FFFFFFFFFFFFFFFFFFFFFFFFFFFFFFFF76
:104A5000FFFFFFFFFFFFFFFFFFFFFFFFFFFFFFFF66
:104A6000FFFFFFFFFFFFFFFFFFFFFFFEFFFEFFFF58
:104A7000FFDFFFFFFFFFFFFFFFFFFFFFFFFEFFFF67
:104A8000FFFFFFFFFFFFFFFFFFFFFFFFFFFFFFFF36
:104A9000FFFFFFFFFFFFFFFFFFFFFFFFFFFFFFFF26
:104AA000FFFFFFFFFFFFFFFFFFFFFFFFFFFFFFFF16
:104AB000FFFFFFFFFFFFFFFFFFFFFFFFFFFFFFFF06
:104AC000FFFFFFFFFFFFFFFFFFFFFFFFFFFFFFFFF6
:104AD000FFFFFFFFFFFFFFFFFFFFFFFEFFFEFFFEE9
:104AE000FFFFFFDFFFFFFFFFFFFFFFFFFFFEFFFFF7
:104AF000FFFFFFFFFFFFFFDFFFFFFFFEFFFFFFFFE7
:104B0000FFFFFFFFFFFFFFFFFFFFFFFFFFFFFFFFB5
:104B1000FFFFFFFFFFDFFFFFFFFFFFFFFFFFFFFFC5
:104B2000FFFFFFFFFFFFFFFFFFFFFFFFFFFFFFFF95
:104B3000FFFFFFFFFFFFFFFFFFFFFFFFFFFFFFFF85
:104B4000FFFFFFFFFFFFFFFFFFFFFFFFFFFFFFFF75
:104B5000FFFFFFFFFFFFFFFFFFFFFFFFFFFFFFFF65
:104B6000FFFFFFFFFFFFFFFFFFFFFFFFFFFFFFFF55
:104B7000FFFFFFFEFFFFFFFFFFFEFFFEFFFFFFFF48
:104B8000FFFFFFFFFFFFFFDFFFFFFFFEFFFFFFDF76
:104B9000FFFFFFFFFFFFFFFFFFFFFFFFFFFFFFFF25
:104BA000FFFFFFFFFFFFFFFFFFFFF7FEFFFFFFDF3E
:104BB000FFFFFFDFFFFFFFFEFFFFFFDEFFFFFFFF47
:104BC000FFFFFFFFFFFFFFFFFFFFFFFFFFFFFFFFF5
:104BD000FFFFFFFFFFFFFFFFFFFFFFFFFFFFFFFFE5
:104BE000FFFFFFFFFFFFFFFFFFFFFFFFFFFFFFFFD5
:104BF000FFFFFFFFFFFFFFFFFFFFFFFFFFFFFFFFC5
:104C0000FFFFFFFFFFFFFFFFFFFFFFFFFFFFFFFFB4
:104C1000F7FEFFFFFFFFFFFFFFFFFFFFFFFFFFFFAD
:104C2000FFFFFFFFFFFFFFFFFFFFFFFFFFFEFFFF95
:104C3000FFFFFFFFFFFFFFFFFFFFFFFFFFFFFFFF84
:104C4000FFFEFFFFFFFFFFDFFFDFFFFFFFFFFFFFB5
:104C5000FFDFFFFFFFFFFFFFFFFFFFFFFFFFFFFE85
:104C6000FFFFFFFFFFFFFFFFFFFFFFFFFFFFFFFF54
:104C7000FFFFFFFFFFFFFFFFFFFFFFFFFFFFFFFF44
:104C8000FFFFFFFFFFFFFFFFFFFFFFFFFFFFFFFF34
:104C9000FFFFFFFFFFFFFFFFFFFFFFFFFFFFFFFF24
:104CA000FFFFFFFFFFFFFFFFFFFFFFFFFFFFFFFF14
:104CB000FFFFFFFFFFFFFFFFFFFFFFFFFFFFFFFF04
:104CC000FFFFFFFFFFFFFFFFFFFFFFFFFFFFFFFFF4
:104CD000FFFFFFFFFFFFFFFFFFFFFFFFFFFFFFFFE4
:104CE000FFFFFFFFFFFFFFFFFFFFFFFFFFFFFFFFD4
:104CF000FFFFFFFFFFFFFFFFFFFFFFFFFFFFFFFFC4
:104D0000FFFFFFFFFFFFFFFFFFFFFFFFFFFFFFFFB3
:104D1000FFFFFFFFFFFFFFFFFFFFFFFFFFFFFFFFA3
:104D2000FFFFFFFFFFFFFFFFFFFFFFFFFFFFFFFF93
:104D3000FFFFFFFFFFFFFFFFFFFFFFFFFFFFFFFF83
:104D4000FFFFFFFFFFFFFFFFFFFFFFFFFFFFFFFF73
:104D5000FFFFFFFFFFDFFFFFFFFFFFDEFFFEFFFFA5
:104D6000FFFFFFDFFFFFFFDFFFFFFFFFFFFFFFFF93
:104D7000FFFFFFDFFFFFFFFFFFFFFFFFFFDFFFFF83
:104D8000FFFFFFFFFFFFFFFFFFFFFFFFFFFFFFFF33
:104D9000FFFFFFFFFFFFFFFFFFFFFFFFFFFFFFFF23
:104DA000FFFFFFFFFFFFFFFFFFFFFFFFFFFFFFFF13
:104DB000FFFFFFFFFFFFFFFFFFFFFFFFFFFFFFFF03
:104DC000FFFFFFFFFFFFFFFFFFFFFFFFFFFFFFFFF3
:104DD000FFFFFFFFFFFFFFFFFFFFFFFFFFFFFFFFE3
:104DE000FFFFFFFFFFFFFFFFFFFFFFFFFFFFFFFFD3
:104DF000FFFFFFFFFFFFFFFFFFFFFFFFFFFFFFFFC3
:104E0000FFFFFFFFFFFFFFFFFFFFFFFFFFFFFFFFB2
:104E1000FFFFFFFFFFFFFFFFFFFFFFFFFFFFFFFFA2
:104E2000FFFEFFFFFFFFFFFFFFFFFFFFFFDFFFFFB3
:104E3000FFFFFFFFFFFFFFDFFFFFFFFFFFFFFFFFA2
:104E4000FFFFFFFFFFFFFFFFFFFFFFFFFFFFFFFF72
:104E5000FFFFFFFFFFFFFFFFFFFFFFFFFFFFFFFF62
:104E6000FFFFFFFFFFFFFFFFFFFFFFFFFFFFFFFF52
:104E7000FFFFFFFFFFFFFFFFFFFFFFFFFFFFFFFF42
:104E8000FFFFFFFFFFFFFFFFFFFFFFFFFFFFFFFF32
:104E9000FFDFFFFFFFFFFFFFFFFFFFFEFFFFF7FF4B
:104EA000F7FFFFFFFFFFFFFFFFDFFFFFFFFFFFFF3A
:104EB000FFDFFFDFFFDFFFDFFFFFFFFEFFDFFFFFA3
:104EC000FFFFFFFEFFFFFFFFFFFFFFDFFFFFFFFF13
:104ED000FFFFFFFFFFDFFFDFFFFFFFFFFFFFFFFF22
:104EE000FFFFFFFFFFFFFFFFFFFFFFFFFFFFFFFFD2
:104EF000FFFFFFFFFFFFFFFFFFFFFFFFFFFFFFFFC2
:104F0000FFFFFFFFFFFFFFFFFFFFFFFFFFFFFFFFB1
:104F1000FFFFFFFFFFFFFFFFFFFFFFFFFFFFFFFFA1
:104F2000FFFFFFFFFFFFFFFFFFFFFFFFFFFFFFFF91
:104F3000FFFFFFDFFFDFFFFFFFFFFFFFFFFFFFFEC2
:104F4000FFFEFFFFFFFFFFFFF7FFF7FFF7FFFFFE8B
:104F5000FFFFFFFFFFFFFFFFFFFFFFFFFFFFFFFF61
:104F6000FFFFFFFFFFDEFFFFFFFFFFFFFFFFFFFF72
:104F7000FFFFFFFFFFFFFFFFFFFFFFFFFFFFFFFF41
:104F8000FFFFFFFFFFFFFFFFFFFFFFFFFFFFFFFF31
:104F9000FFFFFFFFFFFFFFFFFFFFFFFFFFFFFFFF21
:104FA000FFFFFFFFFFFFFFFFFFFFFFFFFFFFFFFF11
:104FB000FFFFFFFFFFFFFFFFFFFFFFFFFFFFFFFF01
:104FC000FFFFFFFFFFFFFFFFFFFFFFFFFFFFFFFFF1
:104FD000FFFFFFFFF7FEFFFFFFDFFFFFFFDFFFFF2A
:104FE000FFFEFFFFF7DFFFFFFFDFFFFFFFFFFFFF1A
:104FF000FFFFFFFFFFFFFFFFFFFFFFFFFFFFFFFFC1
:10500000FFFFFFFFFFFFFFFFFFFFFFFFF7FFFFFFB8
:10501000FFFFFFFEFFFFFFFFFFFFFFFFFFFFFFFFA1
:10502000FFFFFFFFFFFFFFFFFFFFFFFFFFFFFFFF90
:10503000FFFFFFFFFFFFFFFFFFFFFFFFFFFFFFFF80
:10504000FFFFFFFFFFFFFFFFFFFFFFFFFFFFFFFF70
:10505000FFFFFFFFFFFFFFFFFFFFFFFFFFFFFFFF60
:10506000FFFFFFFFFFFFFFFFFFFFFFFFFFFFFFFF50
:10507000FFFFFFFFFFFFFFFFFFFFFFFFFFFFFFFF40
:10508000FFFFFFFFFFFFFFFFFFFFFFFFFFFFFFFF30
:10509000FFFFFFFFFFFFFFFFFFFFFFFFFFFFFFFF20
:1050A000FFFFFFFFFFFFFFFFFFFFFFFFFFFFFFFF10
:1050B000FFFFFFFFFFFFFFFFFFFFFFFFFFFFFFFF00
:1050C000FFFFFFFFFFFFFFFFFFFFFFFFFFFFFFFFF0
:1050D000FFFFFFFFFFFFFFFFFFFFFFFFFFFFFFFFE0
:1050E000FFFFFFFFFFFFFFFFFFFFFFFFFFFFFFFFD0
:1050F000FFFFFFFFFFFFFFFFFFFFFFFFFFFFFFFFC0
:10510000FFFFFFFFFFFFFFFFFFFFFFFFFFFFFFFFAF
:10511000FFFEFFDFFFDFFFFFFFFFFFFFF7DFB67FD1
:10512000BE9DDF3DFFFFFFFFFFFFFFFFFFFFFFFF14
:10513000FFFFFFFFFFFFF7FFF7FFFFFEFFFFFFFF90
:10514000FFFEFFFFCEFE4B597D1CA57CFFFFFFFF3E
:10515000FFFFFFFFFFFFFFFFFFFFFFFFFFFFFFFF5F
:10516000FFFFFFFFFFFFFFFFFFFFFFFFFFFFFFFF4F
:10517000FFFFFFFFFFFFFFFFFFFFFFFFFFFFFFFF3F
:10518000FFFFFFFFFFFFFFFFFFFFFFFFFFFFFFFF2F
:10519000FFFFFFFFFFFFFFFFFFFFFFFFFFFFFFFF1F
:1051A000FFFFFFFFFFFFFFFFFFFFFFFFFFFFFFFF0F
:1051B000FFFFFFFFFFFFFFFFFFFFFFFFFFFFFFFFFF
:1051C000FFFFFFFFFFFFFFFFFFFFFFFFFFFFFFFFEF
:1051D000FFFFFFFFFFFFFFFFFFFFFFFFFFFFFFFFDF
:1051E000FFFFFFFFFFFFFFFFFFFFFFFFFFFFFFFFCF
:1051F000BE7FB61DFFFFFFFFFFDFFFFFFFDFFFFEEC
:10520000FFFFFFFFFFFFFFFFFFFFFFFFFFFFFFFFAE
:10521000FFFFFFFFFFFFFFFFFFFFFFFFFFFFFFFF9E
:10522000FFFFFFFFFFFFFFFFFFFFFFFFFFFFFFFF8E
:10523000FFFFFFFFFFFFFFFFFFFFFFFFFFFFFFFF7E
:10524000FFFFFFFFFFFFFFFFFFFFFFFFFFFFFFFF6E
:10525000FFFFFFFFFFFFFFFFFFFFFFFFC67E84BDD5
:1052600084DBFFFFFFFFFFFFFFDFFFDFFFFFFFFF2D
:10527000FFFFFFFFADFD84FA8D1DCEDEFFFFFFFFB8
:10528000FFFFFFFFFFFFFFFEFFFFFFDFFFFEF7FF58
:10529000F7FFF7DFFFFFFFFEFFFFFFFFFFFFFFFF4F
:1052A000FFFFFFFFFFFFFFFFFFFFFFFFFFFFFFFF0E
:1052B000FFFFFFFFFFFFFFFFFFFFFFFFFFFFFFFFFE
:1052C000FFFFFFFFFFFFFFFFFFFFFFFFFFFFFFFFEE
:1052D000FFFFFFFFFFFFFFFFFFFFFFFFFFFFFFFFDE
:1052E000FFFFFFFFFFFFFFFFFFFFFFFFFFFFFFFFCE
:1052F000FFDFFFFFFFFEFFFFFFDFFFFFFFFFFFFFFF
:10530000FFFFFFFFFFFFFFFF84FC851C7CBBFFFF4F
:10531000FFFFFFFFFFFFFFFFFFFFFFFFFFFFFFFF9D
:10532000FFFFFFFFFFFFFFFEFFFEFFFFA59C641ACC
:10533000D75EF7FFFFFEFFFFFFFFFFFFFFFFFFFE50
:10534000FFFFFFFFFFFFFFFFFFFFFFFFFFFFFFFF6D
:10535000FFFFFFFFFFFFFFFFFFFFFFFFFFFFFFFF5D
:10536000FFFFFFFFFFFFFFFFFFFFFFFFFFFFFFFF4D
:10537000FFFFFFFFFFFFFFFFFFFFFFFFFFFFFFFF3D
:10538000FFFFFFFFFFFFFFFFFFFFFFFFFFFFFFFF2D
:10539000FFDFFFDFFFFFFFDFFFDFFFFFFFFFFFFF9D
:1053A000FFFFFFFEA5DE9DBDFFFFFFDFF7FFFFFF55
:1053B000FFFFFFFFFFFFFFFFFFFFFFFFFFFFFFFFFD
:1053C000FFFFFFFFFFDFFFFFFFFFFFDFFFFFFFDF4D
:1053D000F7FFFFFFFFFEFFFFFFDFFFFFFFFFFFFF06
:1053E000FFFFFFFFFFFFFFFFFFFFFFFFFFFFFFFFCD
:1053F000FFFFFFFFFFFFFFFFFFFFFFFFFFFFFFFFBD
:10540000FFFFFFFFFFFFFFFFFFFFFFFFFFFFFFFFAC
:10541000FFFFFFFFFFFFFFFFFFFFFFFFFFFFFFFF9C
:10542000FFFFFFFFFFFFFFFFFFFFFFFFFFFFFFFF8C
:10543000FFFFFFFFFFFFFFFFFFFFFFFFFFFFFFFF7C
:10544000FFFFFFFFFFFFFFFFFFFFFFFFFFFFFFFF6C
:10545000FFFFFFFFFFFFFFFFFFFFFFFFFFFFFFFF5C
:10546000FFFFFFFFFFFFFFFFFFFFFFFFFFFFFFFF4C
:10547000FFFFFFFFFFFFFFFFFFFFFFFFFFFFFFFF3C
:10548000FFFFFFFFFFFFFFFFFFFFFFFFFFFFFFFF2C
:10549000FFFFFFFFFFFFFFFFFFFFFFFFFFFFFFFF1C
:1054A000FFFFFFFFFFFFFFFFFFFFFFFFFFFFFFFF0C
:1054B000FFFFFFFFFFFFFFFFFFFFFFFFFFFFFFFFFC
:1054C000FFFFFFFFFFFFFFFFFFFFFFFFFFFFFFFFEC
:1054D000FFFEFFFFFFFFFFFFFFFFFFFFBE3D11D4F9
:1054E00009D884DBFFFFFFFEFFFFFFFFFFFFFFFF89
:1054F000C71E6BFA099709B811D5F7FFFFFFFFFF29
:10550000FFFEFFDF955C01990196741AFFFFFFFF14
:10551000FFFFFFFFFFFFFFFFFFFFFFFFFFFFFFFF9B
:10552000FFFFFFFFFFFFFFFFFFFFFFFFFFFFFFFF8B
:10553000FFFFFFFFFFFFFFFFFFFFFFFFFFFFFFFF7B
:10554000FFFFFFFFFFFFFFFFFFFFFFFFFFFFFFFF6B
:10555000FFFFFFFFFFFFFFFFFFFFFFFFFFFFFFFF5B
:10556000FFFFFFFFFFFFFFFFFFFFFFFFFFFFFFFF4B
:10557000FFFFFFFFFFFFFFFFFFFFFFFFFFFFFFFF3B
:10558000FFFFFFFFFFFFFFFFFFFFFFFFFFFFFFFF2B
:10559000FFFFFFFFFFFFFFFFFFFFFFFFFFFFFFFF1B
:1055A000FFFFFFFFFFFFFFFFFFDFFFFFE7BF6BFA1C
:1055B000099719B69D9DF7FFFFFEFFFFFFFFFFFE56
:1055C000FFFFFFFFFFFFFFFFFFFFFFFFFFFFFFFFEB
:1055D000FFFFFFFFFFFFFFFFFFFFFFFFFFFFFFFFDB
:1055E000FFFFFFFFFFFFFFFFFFFFFFFFFFFFFFFFCB
:1055F000FFFFFFFFFFFFFFFFFFFFFFFFFFFFFFFFBB
:10560000FFFFFFFFFFFFFFFFFFFFFFFFFFFFFFFFAA
:10561000FFFFFFFFFFFFFFFFFFFFFFFF84DC1177AE
:1056200009B4FFFFFFFFFFFFFFFFFFFFFFFFFFFFCB
:10563000FFFFDFBF11F801F909986C19F7FFFFFEB2
:10564000FFFFFFFFFFFFFFFFFFDFFFFFF7FF533607
:10565000435863B9DF1FFFFFFFFFFFFFFFFFFFFF9F
:10566000FFFFFFFFFFFFFFFFFFFFFFFFFFFFFFFF4A
:10567000FFFFFFFFFFFFFFFFFFFFFFFFFFFFFFFF3A
:10568000FFFFFFFFFFFFFFFFFFFFFFFFFFFFFFFF2A
:10569000FFFFFFFFFFFFFFFFFFFFFFFFFFFFFFFF1A
:1056A000FFFFFFFFFFFFFFFFFFFFFFFFFFFFFFFF0A
:1056B000FFFEFFFFF7FFFFFFFFFFFFFFFFFEFFFF04
:1056C000FFFFFFFFFFFEFFFF119709971198FFFFF4
:1056D000FFFFFFFFFFFFFFFFFFFFFFFFFFFFFFFFDA
:1056E000FFFEFFFFFFFFFFFEFFFFA59E119501B824
:1056F00011776BF9FFFFFFFFFFDFFFFFFFFFFFFFEA
:10570000FFFFFFFFFFFFFFFFFFFFFFFFFFFFFFFFA9
:10571000FFFFFFFFFFFFFFFFFFFFFFFFFFFFFFFF99
:10572000FFFFFFFFFFFFFFFFFFFFFFFFFFFFFFFF89
:10573000FFFFFFFFFFFFFFFFFFFFFFFFFFFFFFFF79
:10574000FFFFFFFFFFFFFFFFFFFFFFFFFFFFFFFF69
:10575000FFFFC69EDF9FFFFEFFFEFFFFFFFFFFDF95
:10576000FFFF7C7909970996CEFFFFFEFFFFFFFF41
:10577000FFFFFFFFFFFFFFFFFFFFFFFFFFFFFFFF39
:10578000FFFFFFFFFFFFFFFFFFFFFFFFE77FAD9C76
:105790005BB8D71FFFFFFFFFFFFFFFFFFFFFFFDF2C
:1057A000FFFFFFFFFFFFFFFFFFFFFFFFFFFFFFFF09
:1057B000FFFFFFFFFFFFFFFFFFFFFFFFFFFFFFFFF9
:1057C000FFFFFFFFFFFFFFFFFFFFFFFFFFFFFFFFE9
:1057D000FFFFFFFFFFFFFFFFFFFFFFFFFFFFFFFFD9
:1057E000FFFFFFFFFFFFFFFFFFFFFFFFFFFFFFFFC9
:1057F000FFFFFFFFFFFFFFFFFFFFFFFFFFFFFFFFB9
:10580000FFFFFFFFFFFFFFFFFFFFFFFFFFFFFFFFA8
:10581000FFFFFFFFFFFFFFFFFFFFFFFFFFFFFFFF98
:10582000FFFFFFFFFFFFFFFFFFFFFFFFFFFFFFFF88
:10583000FFFFFFFFFFFFFFFFFFFFFFFFFFFFFFFF78
:10584000FFFFFFFFFFFFFFFFFFFFFFFFFFFFFFFF68
:10585000FFFFFFFFFFFFFFFFFFFFFFFFFFFFFFFF58
:10586000FFFFFFFFFFFFFFFFFFFFFFFFFFFFFFFF48
:10587000FFFFFFFFFFFFFFFFFFFFFFFFFFFFFFFF38
:10588000FFFFFFFFFFFFFFFFFFFFFFFFFFFFFFFF28
:10589000FFFFFFDFFFFFFFFFFFFFFFFFBE7F01985E
:1058A000019884DCFFFFFFFEFFFEF7FFA59D4B1A6A
:1058B00001B7119701B709B81197FFFFFFFFFFFE6E
:1058C000FFFFFFFF84BA09D709B884DAFFFFFFFFA3
:1058D000FFFFFFFFFFFFFFFFFFFFFFFFFFFFFFFFD8
:1058E000FFFFFFFFFFFFFFFFFFFFFFFFFFFFFFFFC8
:1058F000FFFFFFFFFFFFFFFFFFFFFFFFFFFFFFFFB8
:10590000FFFFFFFFFFFFFFFFFFFFFFFFFFFFFFFFA7
:10591000FFFFFFFFFFFFFFFFFFFFFFFFFFFFFFFF97
:10592000FFFFFFFFFFFFFFFFFFFFFFFFFFFFFFFF87
:10593000FFFFFFFFFFFFFFFFFFFFFFFFFFFFFFFF77
:10594000FFFFFFFFFFFFFFFFFFFFFFFFFFFFFFFF67
:10595000FFFFFFFFFFFFFFFFFFFFFFFFFFFFFFFF57
:10596000FFFFFFDFFFFFFFFFDF5F84DC1A1709B7D0
:1059700001F801B81997ADDDFFFFFFFFFFFFFFFF43
:10598000FFFFFFFFFFFFFFFFFFFFFFFFFFFFFFFF27
:10599000FFFFFFFFFFFFFFFFFFFFFFFFFFFFFFFF17
:1059A000FFFFFFFFFFFFFFFFFFFFFFFFFFFFFFFF07
:1059B000FFFFFFFFFFFFFFFFFFFFFFFFFFFFFFFFF7
:1059C000FFFFFFFFFFFFFFFFFFFFFFFFFFFFFFFFE7
:1059D000FFFFFFFFFFFFFFFFFFFEF7FF7CDB09B7C5
:1059E00009B8FFFFFFFFFFFFFFFFFFFFFFFFFFFF04
:1059F000FFFF8CFB09B7019821F7E7BEFFFFFFFF10
:105A0000FFFFFFFFFFFFFFFEFFFFFFFFF7FF4B3B27
:105A100001B81197BE7EFFFFFFFFFFFEFFFEFFFFF5
:105A2000FFFFFFFFFFFFFFFFFFFFFFFFFFFFFFFF86
:105A3000FFFFFFFFFFFFFFFFFFFFFFFFFFFFFFFF76
:105A4000FFFFFFFFFFFFFFFFFFFFFFFFFFFFFFFF66
:105A5000FFFFFFFFFFFFFFFFFFFFFFFFFFFFFFFF56
:105A6000FFFFFFFFFFFFFFFFFFFFFFFFFFFFFFFF46
:105A7000F7FF7C3A845BF7FFFFFFFFDFFFFFFFFFCD
:105A8000FFFFFFDFFFFFFFFF09D801D709B8FFFFC6
:105A9000FFFFFFFFFFFFFFFFFFFFFFFFFFFFFFFF16
:105AA000FFFFFFDFFFDFFFFFA5BD099601D901F66C
:105AB0001A18A61FFFFFFFFFFFFFFFFFFFFFFFDF1B
:105AC000FFFFFFFFFFFFFFFFFFFFFFFFFFFFFFFFE6
:105AD000FFFFFFFFFFFFFFFFFFFFFFFFFFFFFFFFD6
:105AE000FFFFFFFFFFFFFFFFFFFFFFFFFFFFFFFFC6
:105AF000FFFFFFFFFFFFFFFFFFFFFFFFFFFFFFFFB6
:105B0000FFFFFFFFFFFFFFFFFFFFFFFFFFFFFFFFA5
:105B10009DBC09773AFAE77FFFFFFFFFF7FEFFFF23
:105B2000FFFF2A5A01D701B821F7DF3EFFDFFFFF51
:105B3000FFFFFFFFFFFFFFFFFFFFFFFFFFFFFFFF75
:105B4000FFFFFFFFFFFFC67D747A3AD909B701B89E
:105B50000998955DFFFFFFFFFFFFFFFFFFFEFFDFDF
:105B6000FFFFFFFFFFFFFFFFFFFFFFFFFFFFFFFF45
:105B7000FFFFFFFFFFFFFFFFFFFFFFFFFFFFFFFF35
:105B8000FFFFFFFFFFFFFFFFFFFFFFFFFFFFFFFF25
:105B9000FFFFFFFFFFFFFFFFFFFFFFFFFFFFFFFF15
:105BA000FFFFFFFFFFFFFFFFFFFFFFFFFFFFFFFF05
:105BB000FFFFFFFFFFFFFFFFFFFFFFFFFFFFFFFFF5
:105BC000FFFFFFFFFFFFFFFFFFFFFFFFFFFFFFFFE5
:105BD000FFFFFFFFFFFFFFFFFFFFFFFFFFFFFFFFD5
:105BE000FFFFFFFFFFFFFFFFFFFFFFFFFFFFFFFFC5
:105BF000FFFFFFFFFFFFFFFFFFFFFFFFFFFFFFFFB5
:105C0000FFFFFFFFFFFFFFFFFFFFFFFFFFFFFFFFA4
:105C1000FFFFFFFFFFFFFFFFFFFFFFFFFFFFFFFF94
:105C2000FFFFFFFFFFFFFFFFFFFFFFFFFFFFFFFF84
:105C3000FFFFFFFFFFFFFFFFFFFFFFFFFFFFFFFF74
:105C4000FFFFFFFFFFFFFFFFFFFFFFFFFFFFFFFF64
:105C5000FFFFFFFFFFFFFFFEFFFFFFDFC69D01B756
:105C600001B984DBFFFFBDFC63FA121801D709B844
:105C700001D811B601B809B80998FFFFFFFFFFFF6F
:105C8000FFFFFFDF5BFB019701D7C65EFFFFFFFF52
:105C9000FFFFFFFFFFFFFFFFFFFFFFFFFFDFFFFF34
:105CA000FFFFFFFFFFFFFFFFFFFFFFFFFFFFFFFF04
:105CB000FFFFFFFFFFFFFFFFFFFFFFFFFFFFFFFFF4
:105CC000FFFFFFFFFFFFFFFFFFFFFFFFFFFFFFFFE4
:105CD000FFFFFFFFFFFFFFFFFFFFFFFFFFFFFFFFD4
:105CE000FFFFFFFFFFFFFFFFFFFFFFFFFFFFFFFFC4
:105CF000FFFFFFDFFFFFFFFFFFFFFFFFFFFFFFFFD4
:105D0000FFFFFFFFFFFFFFFFFFFFFFFFFFFFFFFFA3
:105D1000FFFFFFFFFFFFFFFFFFFEFFFFFFDFFFFEB5
:105D2000FFFFDF3FA5BB537A11B801B801D801B816
:105D300001B91197743AEFBFFFFFFFDFFFFFFFFFCD
:105D4000FFFFFFFFFFFFFFFFFFFFFFFFFFFFFFFF63
:105D5000FFFFFFFFFFFFFFFFFFFFFFFFFFFFFFFF53
:105D6000FFFFFFFFFFFFFFFFFFFFFFFFFFFFFFFF43
:105D7000FFFFFFFFFFFFFFFFFFFFFFFFFFFFFFFF33
:105D8000FFFFFFFFFFFFFFFFFFFFFFFFFFFFFFFF23
:105D9000FFFFFFDFFFFFFFFFFFFFFFFF84DB01D9F6
:105DA00001D8FFFFFFFEFFFFFFFFFFFDFFFFFFFF2B
:105DB000EFBD1A1801D709B884DBFFFFFFFFFFDF33
:105DC000FFFFFFFFFFFFFFFFFFDFFFFEF7FF4B3A85
:105DD00001B70199C69CFFFFFFFEFFFFFFFFFFFF1A
:105DE000FFFFFFFFFFFFFFFFFFFFFFFFFFFFFFFFC3
:105DF000FFFFFFFFFFFFFFFFFFFFFFFFFFFFFFFFB3
:105E0000FFFFFFFFFFFFFFFFFFFFFFFFFFFFFFFFA2
:105E1000FFFFFFFFFFFFFFFFFFFFFFFFFFFFFFFF92
:105E2000FFFFFFFFFFFFFFFFFFFFFFFFFFFFFFFF82
:105E3000BE9D11B501993AF8CEFEF7FFFFFFFFFEB8
:105E4000FFFFFFFFFFFFFFFE09B801D91178FFFE3A
:105E5000FFFFFFDFFFFFFFFFFFFFFFFFFFFFFFFF72
:105E6000FFDFFFFFF7FFADBC019801D709D71A1874
:105E7000CEFDFFFFFFFFFFFFFFFEFFFFFFFFFFFF66
:105E8000FFFFFFFFFFFFFFFFFFFFFFFFFFFFFFFF22
:105E9000FFFFFFFFFFFFFFFFFFFFFFFFFFFFFFFF12
:105EA000FFFFFFFFFFFFFFFFFFFFFFFFFFFFFFFF02
:105EB000FFFFFFFFFFFFFFFFFFFFFFFFFFFFFFFFF2
:105EC000FFFFFFFFFFFFFFFFFFFFFFFFFFDFEF5DB4
:105ED00009B709B701DA4B5AFFFFFFFFFFFEFFFFCB
:105EE000FFFFD6BE119609B801D832F8F79EFFDF42
:105EF000FFFFFFFFFFFEFFFFF7FFF7FEEFBFBE7DD7
:105F00007CDB4B1A09D7099801B809D601D701B82B
:105F100001D8437AFFDFFFDFFFFFFFFFFFFFFFFF37
:105F2000FFFFFFFFFFFFFFFFFFFFFFFFFFFFFFFF81
:105F3000FFFFFFFFFFFFFFFFFFFFFFFFFFFFFFFF71
:105F4000FFFFFFFFFFFFFFFFFFFFFFFFFFFFFFFF61
:105F5000FFFFFFFFFFFFFFFFFFFFFFFFFFFFFFFF51
:105F6000FFFFFFFFFFFFFFFFFFFFFFFFFFFFFFFF41
:105F7000FFFFFFFFFFFFFFFFFFFFFFFFFFFFFFFF31
:105F8000FFFFFFFFFFFFFFFFFFFFFFFFFFFFFFFF21
:105F9000FFFFFFFFFFFFFFFFFFFFFFFFFFFFFFFF11
:105FA000FFFFFFFFFFFFFFFFFFFFFFFFFFFFFFFF01
:105FB000FFFFFFFFFFFFFFFFFFFFFFFFFFFFFFFFF1
:105FC000FFFFFFFFFFFFFFFFFFFFFFFFFFFFFFFFE1
:105FD000FFFFFFFFFFFFFFFFFFFFFFFFFFFFFFFFD1
:105FE000FFFFFFFFFFFFFFFFFFFFFFFFFFFFFFFFC1
:105FF000FFFFFFFFFFFFFFFFFFFFFFFFFFFFFFFFB1
:10600000FFFFFFFFFFFFFFFFFFFFFFFFFFFFFFFFA0
:10601000FFDFFFFFFFBFFFFFFFFFFFFFBE7D11D7C9
:1060200009B72279123701B8019809D8019709B93F
:106030001A18747C2B3909B70179FFFFFFFFF7FFAE
:10604000FFDFFFFF431811B609B7D6BEFFFFFFFF02
:10605000F7FFFFFFFFFFFFFFFFFEFFFEFFFFFFFF5A
:10606000FFFFFFFFFFFFFFFFFFFFFFFFFFFFFFFF40
:10607000FFFFFFFFFFFFFFFFFFFFFFFFFFFFFFFF30
:10608000FFFFFFFFFFFFFFFFFFFFFFFFFFFFFFFF20
:10609000FFFFFFFFFFFFFFFFFFFFFFFFFFFFFFFF10
:1060A000FFFFFFFFFFFFFFFFFFFFFFFFFFFFFFFF00
:1060B000FFFFFFFFFFFFC67D84DB84DC84DB7CDA2F
:1060C00084FC84DB7CBB84DB84DB84DB84DB84DBDF
:1060D00084DC84FB84DB84DC84FB745C4B5A4B39AA
:1060E00001D709D901B701B809B709B6099709B7A6
:1060F0004B39BE7FF7FFFFFFFFDFFFFFFFFEFFFF14
:10610000FFFFFFFFFFFFFFFFFFFFFFFFFFFFFFFF9F
:10611000FFFFFFFFFFFFFFFFFFFFFFFFFFFFFFFF8F
:10612000FFFFFFFFFFFFFFFFFFFFFFFFFFFFFFFF7F
:10613000FFFFFFFFFFFFFFFFFFFFFFFFFFFFFFFF6F
:10614000FFFFFFFFFFFFFFFFFFFFFFFFFFFFFFFF5F
:10615000FFFFFFFFFFFEFFFFFFFFFFFF84FB01B616
:106160000978FFFFFFFFFFFFFFFFFFBFFFFFFFFFFC
:1061700084DB119809B821F9E7BFFFFFFFFFFFFF9C
:10618000FFFFFFFFFFFFFFFEFFFFF7FFA5DC099604
:1061900009B709D7BE7DFFFFFFFFFFDFFFFFFFFF4E
:1061A000FFFFFFFFFFFFFFFFFFFFFFFFFFFFFFFFFF
:1061B000FFFFFFFFFFFFFFFFFFFFFFFFFFFFFFFFEF
:1061C000FFFFFFFFFFFFFFFFFFFFFFFFFFFFFFFFDF
:1061D000FFFFFFFFFFFFFFFFFFFFFFFFFFFFFFFFCF
:1061E000FFFFFFFFFFFFFFFFFFFFFFFFFFFFFFFFBF
:1061F000539A097809D801B719F89D3DFFDFFFFFD1
:10620000FFFFFFFFFFFFFFFF09B7019709B7BE9E22
:10621000C67DC67DBE5EBE7EBE7EBE7EBE7DBE9D92
:10622000CE5DBE9E8D5B097611D809B932F9EF7F3C
:10623000F7FFFFFFFFFFFFFFFFFFFFFFFFFFFFFF76
:10624000FFFFFFFFFFFFFFFFFFFFFFFFFFFFFFFF5E
:10625000FFFFFFFFFFFFFFFFFFFFFFFFFFFFFFFF4E
:10626000FFFFFFFFFFFFFFFFFFFFFFFFFFFFFFFF3E
:10627000FFFFFFFFFFFFFFFFFFFFFFFFFFFFFFFF2E
:10628000FFFFFFFFFFFFFFFFFFFFFFFFFFFFFFDF3E
:106290009D5C099701B801B7641AFFFFFFFFFFDF9C
:1062A000FFFFF7FF955C09B809B7019732D8FFFFE8
:1062B000FFFFFFDFFFFF951C63FB3AB911B7099899
:1062C00001F8019801B809B801B809B801B70999EE
:1062D00021F75399FFFFFFFFFFFFFFFFFFDFFFFFE6
:1062E000FFFFFFFFFFFFFFFFFFFFFFFFFFFFFFFFBE
:1062F000FFFFFFFFFFFFFFFFFFFFFFFFFFFFFFFFAE
:10630000FFFFFFFFFFFFFFFFFFFFFFFFFFFFFFFF9D
:10631000FFFFFFFFFFFFFFFFFFFFFFFFFFFFFFFF8D
:10632000FFFFFFFFFFFFFFFFFFFFFFFFFFFFFFFF7D
:10633000FFFFFFFFFFFFFFFFFFFFFFFFFFFFFFFF6D
:10634000FFFFFFFFFFFFFFFFFFFFFFFFFFFFFFFF5D
:10635000FFFFFFFFFFFFFFFFFFFFFFFFFFFFFFFF4D
:10636000FFFFFFFFFFFFFFFFFFFFFFFFFFFFFFFF3D
:10637000FFFFFFFFFFFFFFFFFFFFFFFFFFFFFFFF2D
:10638000FFFFFFFFFFFFFFFFFFFFFFFFFFFFFFFF1D
:10639000FFFFFFFFFFFFFFFFFFFFFFFFFFFFFFFF0D
:1063A000FFFFFFFFFFFFFFFFFFFFFFFFFFFFFFFFFD
:1063B000FFFFFFFFFFFFFFFFFFFFFFFFFFFFFFFFED
:1063C000FFFFFFFFFFFFFFFFFFFFFFFFFFFFFFFFDD
:1063D000FFFFFFFFFFDFFFFFD75E953D4B1909B8B9
:1063E00001B609F809B709D709F809B65BB9B5DCF0
:1063F000FFFFFFFF433709F609D7FFFFFFBFFFFF8E
:10640000FFFFF7FF11F809D80997FFFFFFFFFFFF14
:10641000FFFFFFFFFFFFFFFFFFFFFFFFFFFFFFFF8C
:10642000FFFFFFFFFFFFFFFFFFFFFFFFFFFFFFFF7C
:10643000FFFFFFFFFFFFFFFFFFFFFFFFFFFFFFFF6C
:10644000FFFFFFFFFFFFFFFFFFFFFFFFFFFFFFFF5C
:10645000FFFFFFFFFFFFFFFFFFFFFFFFFFFFFFFF4C
:10646000FFFFFFFFFFFFFFFFFFFFFFFFFFFFFFFF3C
:10647000FFFFFFFFFFFF84DB11B7099809B909B9D6
:1064800009B8099709B809D809B809B709B709B708
:1064900001D901B709B80998099709B701B701D619
:1064A00001B9019701D709D801B811B7535AB67F7E
:1064B000FFFFFFFFFFFDFFFEFFFFFFFFFFFFFFFEF0
:1064C000FFFFFFFFFFFFFFFFFFFFFFFFFFFFFFFFDC
:1064D000FFFFFFFFFFFFFFFFFFFFFFFFFFFFFFFFCC
:1064E000FFFFFFFFFFFFFFFFFFFFFFFFFFFFFFFFBC
:1064F000FFFFFFFFFFFFFFFFFFFFFFFFFFFFFFFFAC
:10650000FFFFFFFFFFFFFFFFFFFFFFFFFFFFFFFF9B
:10651000435A09B801B709D709971199099909B7D9
:1065200001D911B701B6019801F909D809B809B61E
:10653000099709B801F709D809B801B709B601B830
:1065400009B811B809B609D6099809B801B701D92F
:1065500009B60998BE9EFFFFFFFFFFDFFFFFFFFFA9
:10656000FFFFFFFFFFFFFFFFFFFFFFFFFFFFFFFF3B
:10657000FFFFFFFFFFFFFFFFFFFFFFFFFFFFFFFF2B
:10658000FFFFFFFFFFFFFFFFFFFFFFFFFFFFFFFF1B
:10659000FFFFFFFFFFFFFFFFFFFFFFFFFFFFFFFF0B
:1065A000FFFFFFFFFFFFFFFFFFFFFFFFFFFFFFFFFB
:1065B000FFFF747B01B609D609B809D73AD9CEBE18
:1065C000FFFFFFFEFFFFFFFF09B709D801D90196C2
:1065D00009B611B809B809D8019701B909B901B7C5
:1065E000099701D8099809D701B832D7F77FFFDF9B
:1065F000FFFFFFDFFFFFFFFFFFFFFFFFFFFFFFFFCB
:10660000FFFFFFFFFFFFFFFFFFFFFFFFFFFFFFFF9A
:10661000FFFFFFFFFFFFFFFFFFFFFFFFFFFFFFFF8A
:10662000FFFFFFFFFFFFFFFFFFFFFFFFFFFFFFFF7A
:10663000FFFFFFFFFFFFFFFFFFFFFFFFFFFFFFFF6A
:10664000FFFFFFFFFFFFFFFFFFFFFFFFFFFFFFFF5A
:10665000FFFF6C1B09B601B709F8641AFFFFFFFFC3
:10666000FFDEF7FFFFFF63FB01D709F801D963DA0B
:10667000FFFFFFFFF7DF5B9909B809D9099709B850
:10668000019711D709B809B7227963DBA5BCE71ECA
:10669000FFFFF7FFFFFEFFDFFFFFFFDFFFFFFFFD55
:1066A000FFFFFFFFFFFFFFFFFFFFFFFFFFFFFFFFFA
:1066B000FFFFFFFFFFFFFFFFFFFFFFFFFFFFFFFFEA
:1066C000FFFFFFFFFFFFFFFFFFFFFFFFFFFFFFFFDA
:1066D000FFFFFFFFFFFFFFFFFFFFFFFFFFFFFFFFCA
:1066E000FFFFFFFFFFFFFFFFFFFFFFFFFFFFFFFFBA
:1066F000FFFFFFFFFFFFFFFFFFFFFFFFFFFFFFFFAA
:10670000FFFFFFFFFFFFFFFFFFFFFFFFFFFFFFFF99
:10671000FFFFFFFFFFFFFFFFFFFFFFFFFFFFFFFF89
:10672000FFFFFFFFFFFFFFFFFFFFFFFFFFFFFFFF79
:10673000FFFFFFFFFFFFFFFFFFFFFFFFFFFFFFFF69
:10674000FFFFFFFFFFFFFFFFFFFFFFFFFFFFFFFF59
:10675000FFFFFFFFFFFFFFFFFFFFFFFFFFFFFFFF49
:10676000FFFFFFFFFFFFFFFFFFFFFFFFFFFFFFFF39
:10677000FFFFFFFFFFFFFFFFFFFFFFFFFFFFFFFF29
:10678000FFFFFFFFFFFFFFFFFFFFFFFFFFFFFFFF19
:10679000FFFFA59D6C1C2A5809B709D709980998CD
:1067A00009B701B801B7539CA57DEFBFFFFFFFFFFD
:1067B000FFFFFFDF4B5901B80199FFFFFFFFFFFF0C
:1067C000FFFFF7FF09B801B832F8FFFFFFFFFFFE38
:1067D000FFDFFFDFFFFEFFFFFFFFFFFFFFFFFFFF0A
:1067E000FFFFFFFFFFFFFFFFFFFFFFFFFFFFFFFFB9
:1067F000FFFFFFFFFFFFFFFFFFFFFFFFFFFFFFFFA9
:10680000FFFFFFFFFFFFFFFFFFFFFFFFFFFFFFFF98
:10681000FFFFFFFFFFFFFFFFFFFFFFFFFFFFFFFF88
:10682000FFFFFFFFFFFFFFFFFFFFFFFFFFFFFFFF78
:10683000FFFFFFFFFFFF7CDB01D701D801D701B7C6
:1068400001B801B709B801B701B701D801D701D81C
:10685000099809B609B709B801B709D701D701B82E
:1068600009B609B809D73B38957BDF1DFFFFFFFF4D
:10687000FFFEFFDFFFFFFFDFFFFFFFFFFFFFFFFF69
:10688000FFFFFFFFFFFFFFFFFFFFFFFFFFFFFFFF18
:10689000FFFFFFFFFFFFFFFFFFFFFFFFFFFFFFFF08
:1068A000FFFFFFFFFFFFFFFFFFFFFFFFFFFFFFFFF8
:1068B000FFFFFFFFFFFFFFFFFFFFFFFFFFFFFFFFE8
:1068C000FFFFFFFFFFFFFFFFFFFFFFFFFFFFFFFFD8
:1068D0004359099609B601B7019801B701B809B83B
:1068E00001D5019701F8099801D501B709D701B879
:1068F00009B809B701B50998019901F709B709B7AE
:1069000001B809B901B801D701D701D80998119781
:1069100001D72A99F7FFFFFFFFFFFFFFFFFFFFFEF1
:10692000FFFFFFFFFFFFFFFFFFFFFFFFFFFFFFFF77
:10693000FFFFFFFFFFFFFFFFFFFFFFFFFFFFFFFF67
:10694000FFFFFFFFFFFFFFFFFFFFFFFFFFFFFFFF57
:10695000FFFFFFFFFFFFFFFFFFFFFFFFFFFFFFFF47
:10696000FFFFFFFFFFFFFFFFFFFFFFFFFFFFFFFF37
:10697000FFDFFFFF9DDB123701B609B801B909B689
:106980008CBAFFFFFFFFFFFF09B701B801B809D8B4
:1069900001D801B701D701D701B601D709D709B787
:1069A00009B601D7019809B801F70A39B5FDFFFF0B
:1069B000FFFEFFFFFFFFFFFFFFFFFFFFFFFFFFFFE8
:1069C000FFFFFFFFFFFFFFFFFFFFFFFFFFFFFFFFD7
:1069D000FFFFFFFFFFFFFFFFFFFFFFFFFFFFFFFFC7
:1069E000FFFFFFFFFFFFFFFFFFFFFFFFFFFFFFFFB7
:1069F000FFFFFFFFFFFFFFFFFFFFFFFFFFFFFFFFA7
:106A0000FFFFFFFFFFFFFFFFFFFFFFFFFFFFFFFF96
:106A1000FFFFFFFF42B909B7019801D763F9FFFFF4
:106A2000FFDFFFFFFFFEF7DF32B901B609B822161C
:106A3000DF3FFFFFFFFFAE5C097701D801B701D749
:106A400032F9747BADFCEF9FFFFFFFFEF7FFFFFF06
:106A5000FFFFFFFEFFFEFFFFFFFFFFFFFFFFFFFF48
:106A6000FFFFFFFFFFFFFFFFFFFFFFFFFFFFFFFF36
:106A7000FFFFFFFFFFFFFFFFFFFFFFFFFFFFFFFF26
:106A8000FFFFFFFFFFFFFFFFFFFFFFFFFFFFFFFF16
:106A9000FFFFFFFFFFFFFFFFFFFFFFFFFFFFFFFF06
:106AA000FFFFFFFFFFFFFFFFFFFFFFFFFFFFFFFFF6
:106AB000FFFFFFFFFFFFFFFFFFFFFFFFFFFFFFFFE6
:106AC000FFFFFFFFFFFFFFFFFFFFFFFFFFFFFFFFD6
:106AD000FFFFFFFFFFFFFFFFFFFFFFFFFFFFFFFFC6
:106AE000FFFFFFFFFFFFFFFFFFFFFFFFFFFFFFFFB6
:106AF000FFFFFFFFFFFFFFFFFFFFFFFFFFFFFFFFA6
:106B0000FFFFFFFFFFFFFFFFFFFFFFFFFFFFFFFF95
:106B1000FFFFFFFFFFFFFFFFFFFFFFFFFFFFFFFF85
:106B2000FFFFFFFFFFFFFFFFFFFFFFFFFFFFFFFF75
:106B3000FFFFFFFFFFFFFFFFFFFFFFFFFFFFFFFF65
:106B4000FFFFFFFFFFFFFFFFFFFFFFFFFFFFFFFF55
:106B5000F7FF4B5909B8019701B809B709B701D830
:106B600009985B9ADF3FFFFFFFFFF7FFFFDFFFFFA3
:106B7000FFDFFFFF4B3A01B909B7F7FEFFFEFFFF4A
:106B8000FFFFBE9D11B809B94358F7FFFFFFFFFF94
:106B9000FFFFFFFFF7FFF7DFFFFFFFFFFFFEFFFF36
:106BA000FFFFFFFFFFFFFFFFFFFFFFFFFFFFFFFFF5
:106BB000FFFFFFFFFFFFFFFFFFFFFFFFFFFFFFFFE5
:106BC000FFFFFFFFFFFFFFFFFFFFFFFFFFFFFFFFD5
:106BD000FFFFFFFFFFFFFFFFFFFFFFFFFFFFFFFFC5
:106BE000FFFFFFFFFFFFFFFFFFFFFFFFFFFFFFFFB5
:106BF000FFFFFFFFFFFF84FB09B701972A58535996
:106C00004B3A435A4339433943594359433943393A
:106C10004B3A4B394B5A433A4B596C5B84FC84DCFE
:106C2000BE7DD6DEFFDFFFFFFFDFFFDFDF1F8CBC97
:106C300084DCA59CFFFFFFFFFFFFFFFFFFFFFFDFDF
:106C4000FFFFFFFFFFFFFFFFFFFFFFFFFFFFFFFF54
:106C5000FFFFFFFFFFFFFFFFFFFFFFFFFFFFFFFF44
:106C6000FFFFFFFFFFFFFFFFFFFFFFFFFFFFFFFF34
:106C7000FFFFFFFFFFFFFFFFFFFFFFFFFFFFFFFF24
:106C8000FFFFFFFFFFFFFFFFFFFFFFFFFFFFFFFF14
:106C9000433A09B901D801D801D901B8019809D7F7
:106CA00001B8119901D8099801B709D709B801B8F5
:106CB00001D709B91197099701D901B801B709B8E6
:106CC00001D7019809B8099609B601B809B809B7FA
:106CD0005399CEBEFFFEFFFFFFFFFFFFFFFFFFFE4A
:106CE000FFFFFFFFFFFFFFFFFFFFFFFFFFFFFFFFB4
:106CF000FFFFFFFFFFFFFFFFFFFFFFFFFFFFFFFFA4
:106D0000FFFFFFFFFFFFFFFFFFFFFFFFFFFFFFFF93
:106D1000FFFFFFFFFFFFFFFFFFFFFFFFFFFFFFFF83
:106D2000FFFFFFFFFFFFFFFFFFFFFFFFFFFFFFFF73
:106D3000FFFEFFFFFFFEE75E3AD901D701D701D67C
:106D40008CFAFFFFFFDFFFFF4B394B194B3A4B39F2
:106D5000435A433A435A433A4B5A4B5943384B5997
:106D6000431B4B594B592A79019609D90997C67E7D
:106D7000FFFFFFFFFFFEFFFFFFFFFFFFFFFFFFFF24
:106D8000FFFFFFFFFFFFFFFFFFFFFFFFFFFFFFFF13
:106D9000FFFFFFFFFFFFFFFFFFFFFFFFFFFFFFFF03
:106DA000FFFFFFFFFFFFFFFFFFFFFFFFFFFFFFFFF3
:106DB000FFFFFFFFFFFFFFFFFFFFFFFFFFFFFFFFE3
:106DC000FFFFFFFFFFFFFFFFFFFFFFFFFFFFFFFFD3
:106DD000FFFFFFFEF79F3AB901B809B81177D6BE99
:106DE000FFFFFFFFF7FFFFDFE73D19F83ADADF5F4C
:106DF000FFFEFFDFFFFFF7FF533884BCBDFDF77FC9
:106E0000FFFFFFFFFFFEFFFFFFFFFFDF43394B39AF
:106E1000845BFFFFFFFFFFFFFFFFFFDFFFDFFFFFE1
:106E2000FFFFFFFFFFFFFFFFFFFFFFFFFFFFFFFF72
:106E3000FFFFFFFFFFFFFFFFFFFFFFFFFFFFFFFF62
:106E4000FFFFFFFFFFFFFFFFFFFFFFFFFFFFFFFF52
:106E5000FFFFFFFFFFFFFFFFFFFFFFFFFFFFFFFF42
:106E6000FFFFFFFFFFFFFFFFFFFFFFFFFFFFFFFF32
:106E7000FFFFFFFFFFFFFFFFFFFFFFFFFFFFFFFF22
:106E8000FFFFFFFFFFFFFFFFFFFFFFFFFFFFFFFF12
:106E9000FFFFFFFFFFFFFFFFFFFFFFFFFFFFFFFF02
:106EA000FFFFFFFFFFFFFFFFFFFFFFFFFFFFFFFFF2
:106EB000FFFFFFFFFFFFFFFFFFFFFFFFFFFFFFFFE2
:106EC000FFFFFFFFFFFFFFFFFFFFFFFFFFFFFFFFD2
:106ED000FFFFFFFFFFFFFFFFFFFFFFFFFFFFFFFFC2
:106EE000FFFFFFFFFFFFFFFFFFFFFFFFFFFFFFFFB2
:106EF000FFFFFFFFFFFFFFFFFFFFFFFFFFFFFFFFA2
:106F0000FFFFFFFFFFFFFFFFFFFFFFFFFFFFFFFF91
:106F1000FFFF747B099809B811D75379747B09D89E
:106F200001D784FBF7FF845A4319437A437A433AE3
:106F30003B594358121701B709B94B39433A3B5AE9
:106F40004B3A3AF901B901782A984B394B39431A2F
:106F50004B39433943185339CEBFFFFFFFFFFFDFE3
:106F6000FFFFFFFFFFFFFFFFFFFFFFFFFFFFFFFF31
:106F7000FFFFFFFFFFFFFFFFFFFFFFFFFFFFFFFF21
:106F8000FFFFFFFFFFFFFFFFFFFFFFFFFFFFFFFF11
:106F9000FFFFFFFFFFFFFFFFFFFFFFFFFFFFFFFF01
:106FA000FFFFFFFFFFFFFFFFFFFFFFFFFFFFFFFFF1
:106FB000FFFFFFDFFFFF84DA099711D784FCF7FF9B
:106FC000FFDFFFFFFFFFFFFFFFFFFFFFFFFFFFFFF1
:106FD000FFFFFFFFFFFFFFFFFFFFFFFFFFFFFFFFC1
:106FE000FFFFFFFFFFFFFFFFFFDFFFFFBE9D01F879
:106FF00009B74B59EFFFFFFFFFFFFFFFFFFFFFFF49
:10700000FFFFFFFFFFFFFFFFFFFFFFFFFFFFFFFF90
:10701000FFFFFFFFFFFFFFFFFFFFFFFFFFFFFFFF80
:10702000FFFFFFFFFFFFFFFFFFFFFFFFFFFFFFFF70
:10703000FFFFFFFFFFFFFFFFFFFFFFFFFFFFFFFF60
:10704000FFFFFFFFFFFFFFFFFFFFFFFFFFFFFFFF50
:10705000FFFFFFFFFFFEFFDEFFFFFFFF84FC09983D
:1070600001D6FFFFFFFFFFFEFFFFFFFF84BB09D735
:1070700009D92A19FFFEFFFFFFFFFFFFFFFFFFFFF8
:10708000FFFFFFFFFFFFFFFFFFFFFFFFFFFFFFFF10
:10709000FFFFFFDFFFFFFFFFFFFFFFFFFFFFFFFF20
:1070A000FFFFFFFFFFFFFFFFFFFFFFFFFFFFFFFFF0
:1070B000FFFFFFFFFFFFFFFFFFFFFFFFFFFFFFFFE0
:1070C000FFFFFFFFFFFFFFFFFFFFFFFFFFFFFFFFD0
:1070D000FFFFFFFFFFFFFFFFFFFFFFFFFFFFFFFFC0
:1070E000FFFFFFFFFFFFFFFFFFFFFFFFFFFFFFFFB0
:1070F000FFDFFFDFFFFFFFFFF7FF745C11983B5AD4
:10710000F7FFFFFEFFDFFFFFF7FFFFFFFFFFF7FFC8
:10711000FFFFFFFFFFFFFFDFFFDFFFFFFFDFFFFFDF
:10712000FFFFFFFFFFFFEF9F3AF8099601B7121923
:10713000E79FFFFEFFFFFFFFFFFFFFFFFFDFFFFFF8
:10714000FFFFFFFFFFFFFFFFFFFFFFFFFFFFFFFF4F
:10715000FFFFFFFFFFFFFFFFFFFFFFFFFFFFFFFF3F
:10716000FFFFFFFFFFFFFFFFFFFFFFFFFFFFFFFF2F
:10717000FFFFFFFFFFFFFFFFFFFFFFFFFFFFFFFF1F
:10718000FFFFFFFFFFFFFFFFFFFFFFFFFFFFFFFF0F
:10719000FFFFFFFEFFDFCEBE221809969D9CFFFF7A
:1071A000FFFFFFFEFFFFFFFFFFBFD71FE79FFFFFB0
:1071B000FFFFFFDFFFFFFFFEF7FFFFFFFFFFFFFF08
:1071C000FFFFFFDFFFFFFFFFFFFFFFFF09F801B930
:1071D0004B59F7FFFFFEFFFFFFDFFFFFFFFFFFFF42
:1071E000FFFFFFFFFFFFFFFFFFFFFFFFFFFFFFFFAF
:1071F000FFFFFFFFFFFFFFFFFFFFFFFFFFFFFFFF9F
:10720000FFFFFFFFFFFFFFFFFFFFFFFFFFFFFFFF8E
:10721000FFFFFFFFFFFFFFFFFFFFFFFFFFFFFFFF7E
:10722000FFFFFFFFFFFFFFFFFFFFFFFFFFFFFFFF6E
:10723000FFFFFFFFFFFFFFFFFFFFFFFFFFFFFFFF5E
:10724000FFFFFFFFFFFFFFFFFFFFFFFFFFFFFFFF4E
:10725000FFFFFFFFFFFFFFFFFFFFFFFFFFFFFFFF3E
:10726000FFFFFFFFFFFFFFFFFFFFFFFFFFFFFFFF2E
:10727000FFFFFFFFFFFFFFFFFFFFFFFFFFFFFFFF1E
:10728000FFFFFFFFFFFFFFFFFFFFFFFFFFFFFFFF0E
:10729000FFFFFFFFFFFFFFFFFFFFFFFFFFFFFFFFFE
:1072A000FFFFFFFFFFFFFFFFFFFFFFFFFFFFFFFFEE
:1072B000FFFFFFFFFFFFFFFFFFFFFFFFFFFFFFFFDE
:1072C000FFFFFFFFFFFFFFFFFFFFFFFFFFFFFFFFCE
:1072D000FFFFB61D6399A5BCE79FFFFFBE9D01B7E9
:1072E00001B58CDBFFFF533909B701B801B701D8ED
:1072F00009D709B709B809B709B809B609D809B84B
:1073000001D801B601F809D801B601B701B701D912
:1073100009B809D801B71197B67DFFFFFFFEFFFF3F
:10732000FFFFFFFFFFFFFFFFFFFFFFFFFFFFFFFF6D
:10733000FFFFFFFFFFFFFFFFFFFFFFFFFFFFFFFF5D
:10734000FFFFFFFFFFFFFFFFFFFFFFFFFFFFFFFF4D
:10735000FFFFFFFFFFFFFFFFFFFFFFFFFFFFFFFF3D
:10736000FFFFFFFFFFFFFFFFFFFFFFFFFFFFFFFF2D
:10737000FFFFFFDFFFFF84FC0999099884DCFFFF12
:10738000FFFFFFFFFFFEFFFEFFFEFFFFFFFFF7FF18
:10739000FFFFFFFFFFDFFFBEFFDFFFFFFFFFFFFF7E
:1073A000FFFFFFDEFFFEF7FFFFFFFFFFBE9D099619
:1073B00001B84B39F7FFFFDFFFFFFFFFFFFEFFFFC5
:1073C000FFFFFFFFFFFFFFFFFFFFFFFFFFFFFFFFCD
:1073D000FFFFFFFFFFFFFFFFFFFFFFFFFFFFFFFFBD
:1073E000FFFFFFFFFFFFFFFFFFFFFFFFFFFFFFFFAD
:1073F000FFFFFFFFFFFFFFFFFFFFFFFFFFFFFFFF9D
:10740000FFFFFFFFFFFFFFFFFFFFFFFFFFFFFFFF8C
:10741000FFFFFFFFFFFFFFFFFFFFFFFF84BB09D759
:1074200001D8FFFFFFFFFFDFFFFFE79F221701B833
:107430000997BE9EFFDFFFFFFFDFFFFFFFFFFFFF9C
:10744000FFFFFFFFFFDFFFFFFFFFFFDFFFFEF7FE96
:10745000F7FFFFBFFFFFFFFFFFFFFFFFFFFFFFFF84
:10746000FFFFFFFFFFFFFFFFFFFFFFFFFFFFFFFF2C
:10747000FFFFFFFFFFFFFFFFFFFFFFFFFFFFFFFF1C
:10748000FFFFFFFFFFFFFFFFFFFFFFFFFFFFFFFF0C
:10749000FFFFFFFFFFFFFFFFFFFFFFFFFFFFFFFFFC
:1074A000FFFFFFFFFFFFFFFFFFFFFFFFFFFFFFFFEC
:1074B000FFFFFFFFF7FFFFFFFFFFFFFEC65DDF3FA0
:1074C000FFDFFFFFFFFFFFDFFFFFFFFFFFDEFFFF2D
:1074D000BE7DC67ECE9DFFFFFFFEFFFFFFFFFFFECE
:1074E000FFFFFFFEF7FFFFFFF79F325809D709D7CD
:1074F00084DCF7FEFFFFFFFFFFFEFFFFFFFFFFFF44
:10750000FFFFFFFFFFFFFFFFFFFFFFFFFFFFFFFF8B
:10751000FFFFFFFFFFFFFFFFFFFFFFFFFFFFFFFF7B
:10752000FFFFFFFFFFFFFFFFFFFFFFFFFFFFFFFF6B
:10753000FFFFFFFFFFFFFFFFFFFFFFFFFFFFFFFF5B
:10754000FFFFFFFFFFFFFFFFFFFFFFFFFFFFFFFF4B
:10755000FFFFFFDFFFFFFFFFCF1DAE5DFFFFFFFF60
:10756000FFFFFFFEFFFFFFFFFFFFFFDDFFFFFFFE4F
:10757000FFFEFFDFFFFFFFFFFFFFFFDFFFDFFFDF9C
:10758000FFFFFFFFFFFFFFFFFFFFFFFF01D709978F
:107590004339FFFFFFFFFFFFFFFFFFFFFFDFFFFF9D
:1075A000FFFFFFFFFFFFFFFFFFFFFFFFFFFFFFFFEB
:1075B000FFFFFFFFFFFFFFFFFFFFFFFFFFFFFFFFDB
:1075C000FFFFFFFFFFFFFFFFFFFFFFFFFFFFFFFFCB
:1075D000FFFFFFFFFFFFFFFFFFFFFFFFFFFFFFFFBB
:1075E000FFFFFFFFFFFFFFFFFFFFFFFFFFFFFFFFAB
:1075F000FFFFFFFFFFFFFFFFFFFFFFFFFFFFFFFF9B
:10760000FFFFFFFFFFFFFFFFFFFFFFFFFFFFFFFF8A
:10761000FFFFFFFFFFFFFFFFFFFFFFFFFFFFFFFF7A
:10762000FFFFFFFFFFFFFFFFFFFFFFFFFFFFFFFF6A
:10763000FFFFFFFFFFFFFFFFFFFFFFFFFFFFFFFF5A
:10764000FFFFFFFFFFFFFFFFFFFFFFFFFFFFFFFF4A
:10765000FFFFFFFFFFFFFFFFFFFFFFFFFFFFFFFF3A
:10766000FFFFFFFFFFFFFFFFFFFFFFFFFFFFFFFF2A
:10767000FFFFFFFFFFFFFFFFFFFFFFFFFFFFFFFF1A
:10768000FFFFFFFFFFFFFFFFFFFFFFFFFFFFFFFF0A
:10769000FFFFFFFFFFFFFFFFFFFFFFFEC65E09B812
:1076A00009B98CBCFFFF431801F8019809B701B76D
:1076B00001B8019909B809D601B701F901B709D88C
:1076C00009B709D70998017709D801B901D609B7CF
:1076D000019801D701D81178BE9EFFFFFFFFFFFF81
:1076E000FFFFFFFFFFFFFFFFFFFFFFFFFFFFFFFFAA
:1076F000FFFFFFFFFFFFFFFFFFFFFFFFFFFFFFFF9A
:10770000FFFFFFFFFFFFFFFFFFFFFFFFFFFFFFFF89
:10771000FFFFFFFFFFFFFFFFFFFFFFFFFFFFFFFF79
:10772000FFFFFFFFFFFFFFFFFFFFFFFFFFFFFFFF69
:10773000FFFFFFFFFFFF7CFC01B809D784DBFFFFE1
:10774000FFFFFFFFFFFFFFFFFFFFFFFFF7DFCE7C25
:1077500009B9099684DBF7FFFFFEFFDDFFFFFFFF9E
:10776000FFFFFFFFFFFFFFFFFFFFFFBFBE7E09D848
:1077700001B84B39FFFEFFDFFFFFFFFFFFFFFFFFF9
:10778000FFFFFFFFFFFFFFFFFFFFFFFFFFFFFFFF09
:10779000FFFFFFFFFFFFFFFFFFFFFFFFFFFFFFFFF9
:1077A000FFFFFFFFFFFFFFFFFFFFFFFFFFFFFFFFE9
:1077B000FFFFFFFFFFFFFFFFFFFFFFFFFFFFFFFFD9
:1077C000FFFFFFFFFFFFFFFFFFFFFFFFFFFFFFFFC9
:1077D000FFFDFFFFFFFFFFFFFFDFFFFF84BB01B7E0
:1077E0000998FFFFFFFFFFDFFFFF745B01B801D7C0
:1077F0004B39F7FFFFFFFFFFFFFFFFFFFFFFFFFF1B
:10780000FFFFFFDFFFFFFFFFFFFFFFFF84BB09B8A4
:1078100009B7C65DFFFFFFFFFFFFFFFFFFFFFFFF91
:10782000FFFFFFFFFFFFFFFFFFFFFFFFFFFFFFFF68
:10783000FFFFFFFFFFFFFFFFFFFFFFFFFFFFFFFF58
:10784000FFFFFFFFFFFFFFFFFFFFFFFFFFFFFFFF48
:10785000FFFFFFFFFFFFFFFFFFFFFFFFFFFFFFFF38
:10786000FFFFFFFFFFFFFFFFFFFFFFFFFFFFFFFF28
:10787000FFFFFFFFFFFFFFFFFFFFFFFFFFFFFFDF38
:10788000FFFFFFFEFFFFFFFEF7FFFFFFFFDFFFFF32
:1078900001D809975358F7FFFFFEFFFFFFFFFFFED8
:1078A000FFFEFFFFC67E6BFAFFFFBE9D09B901B761
:1078B0003257F7FFFFDFFFDFFFFFFFFFFFFFFFFF95
:1078C000FFFFFFFFFFFFFFFFFFFFFFFFFFFFFFFFC8
:1078D000FFFFFFFFFFFFFFFFFFFFFFFFFFFFFFFFB8
:1078E000FFFFFFFFFFFFFFFFFFFFFFFFFFFFFFFFA8
:1078F000FFFFFFFFFFFFFFFFFFFFFFFFFFFFFFFF98
:10790000FFFFFFFFFFFFFFFFFFFFFFFFFFFFFFFF87
:10791000FFFFFFFFFFFFFFFFFFFEFFFFFFFFFFFF78
:10792000FFFFFFFFF7FFF7FFFFFFFFFFFFFFFFFF77
:10793000FFFFFFDFE73EC67DC67EC67CBE7CBE9EE7
:10794000C67EC65DC63DC69FBE7EC67E01D9119766
:107950004359FFFFFFFFFFFEFFFFFFFFFFDFFFFEBB
:10796000FFFFFFFFFFFFFFFFFFFFFFFFFFFFFFFF27
:10797000FFFFFFFFFFFFFFFFFFFFFFFFFFFFFFFF17
:10798000FFFFFFFFFFFFFFFFFFFFFFFFFFFFFFFF07
:10799000FFFFFFFFFFFFFFFFFFFFFFFFFFFFFFFFF7
:1079A000FFFFFFFFFFFFFFFFFFFFFFFFFFFFFFFFE7
:1079B000FFFFFFFFFFFFFFFFFFFFFFFFFFFFFFFFD7
:1079C000FFFFFFFFFFFFFFFFFFFFFFFFFFFFFFFFC7
:1079D000FFFFFFFFFFFFFFFFFFFFFFFFFFFFFFFFB7
:1079E000FFFFFFFFFFFFFFFFFFFFFFFFFFFFFFFFA7
:1079F000FFFFFFFFFFFFFFFFFFFFFFFFFFFFFFFF97
:107A0000FFFFFFFFFFFFFFFFFFFFFFFFFFFFFFFF86
:107A1000FFFFFFFFFFFFFFFFFFFFFFFFFFFFFFFF76
:107A2000FFFFFFFFFFFFFFFFFFFFFFFFFFFFFFFF66
:107A3000FFFFFFFFFFFFFFFFFFFFFFFFFFFFFFFF56
:107A4000FFFFFFFFFFFFFFFFFFFFFFFFFFFFFFFF46
:107A5000FFFFFFFFFFFFFFFFFFFFFFFFC65E09B74E
:107A600009B77CFBFFFFFFFFFFFFFFDFFFFFFFFF0B
:107A7000FFDFFFDF431A09D80179FFFFF7FFFFFFA0
:107A8000FFFF435909B701D8F79FFFDFFFDFFFFF73
:107A9000FFFFFFFFFFFFFFFFFFFFFFFFFFFFFFFFF6
:107AA000FFFFFFFFFFFFFFFFFFFFFFFFFFFFFFFFE6
:107AB000FFFFFFFFFFFFFFFFFFFFFFFFFFFFFFFFD6
:107AC000FFFFFFFFFFFFFFFFFFFFFFFFFFFFFFFFC6
:107AD000FFFFFFFFFFFFFFFFFFFFFFFFFFFFFFFFB6
:107AE000FFFFFFFFFFFFFFFFFFFFFFFFFFFFFFFFA6
:107AF000FFFFFFFFFFFF84DB09B801B784DCFFFF56
:107B0000FFFFFFFFFFFFFFFFFFFFFFFFFFFFC67D40
:107B100001B709B884DBFFFFFFFFFFFFFFFFFFFF97
:107B2000FFFFFFFFFFFFFFFFFFFFFFFFC67E09B75D
:107B300001B7435AFFFFFFFFFFFFFFFFFFFFFFFFFC
:107B4000FFFFFFFFFFFFFFFFFFFFFFFFFFFFFFFF45
:107B5000FFFFFFFFFFFFFFFFFFFFFFFFFFFFFFFF35
:107B6000FFFFFFFFFFFFFFFFFFFFFFFFFFFFFFFF25
:107B7000FFFFFFFFFFFFFFFFFFFFFFFFFFFFFFFF15
:107B8000FFFFFFFFFFFFFFFFFFFFFFFFFFFFFFFF05
:107B9000FFFFFFFFFFFFFFFFFFDFFFFF84DB09B7F2
:107BA0000996EFFFFFFFFFFFD75F119609B801D7D6
:107BB000C67CFFFFFFFFFFFFFFFFFFFFFFFEFFFF92
:107BC000FFFFFFFEFFFFFFFFFFFFFFFF84DB0997C3
:107BD00009B7C67EFFFFFFFFFFFFFFFFFFFFFFFFAD
:107BE000FFFFFFFFFFFFFFFFFFFFFFFFFFFFFFFFA5
:107BF000FFFFFFFFFFFFFFFFFFFFFFFFFFFFFFFF95
:107C0000FFFFFFFFFFFFFFFFFFFFFFFFFFFFFFFF84
:107C1000FFFFFFFFFFFFFFFFFFFFFFFFFFFFFFFF74
:107C2000FFFFFFFFFFFFFFFFFFFFFFFFFFFFFFFF64
:107C3000FFBFFFFFFFBFFFFFFFFFFFFF435B435996
:107C40006C7BFFFFFFBFFFFFFFFFFFFEFFFFFFFF9C
:107C500001B801D64B3AFFFFFFFFFFDFFFFFFFFE3A
:107C6000FFFFD6FF19F701B7641AFFFF2A5901D7A2
:107C700009D7D73FFFFFFFFFFFFFFFFEFFFFFFFF1B
:107C8000FFFFFFFFFFFFFFFFFFFFFFFFFFFFFFFF04
:107C9000FFFFFFFFFFFFFFFFFFFFFFFFFFFFFFFFF4
:107CA000FFFFFFFFFFFFFFFFFFFFFFFFFFFFFFFFE4
:107CB000FFFFFFFFFFFFFFFFFFFFFFFFFFFFFFFFD4
:107CC000FFFFFFFFFFFFFFFFFFFFFFFFFFFFFFFFC4
:107CD000FFFEF7FFFFFEFFDFFFDFF7FFFFFEFFFF07
:107CE000FFFFFFDFFFFFFFFFFFFFFFFFFFFFFFFFC4
:107CF000FFFFFFFF849B11B709B809B801B709B9A5
:107D0000099809B801D709B701D8019809D709B767
:107D10004359FFFFFFFFFFFFFFFFFFFFFFFFFFFFD5
:107D2000FFFFFFFFFFFFFFFFFFFFFFFFFFFFFFFF63
:107D3000FFFFFFFFFFFFFFFFFFFFFFFFFFFFFFFF53
:107D4000FFFFFFFFFFFFFFFFFFFFFFFFFFFFFFFF43
:107D5000FFFFFFFFFFFFFFFFFFFFFFFFFFFFFFFF33
:107D6000FFFFFFFFFFFFFFFFFFFFFFFFFFFFFFFF23
:107D7000FFFFFFFFFFFFFFFFFFFFFFFFFFFFFFFF13
:107D8000FFFFFFFFFFFFFFFFFFFFFFFFFFFFFFFF03
:107D9000FFFFFFFFFFFFFFFFFFFFFFFFFFFFFFFFF3
:107DA000FFFFFFFFFFFFFFFFFFFFFFFFFFFFFFFFE3
:107DB000FFFFFFFFFFFFFFFFFFFFFFFFFFFFFFFFD3
:107DC000FFFFFFFFFFFFFFFFFFFFFFFFFFFFFFFFC3
:107DD000FFFFFFFFFFFFFFFFFFFFFFFFFFFFFFFFB3
:107DE000FFFFFFFFFFFFFFFFFFFFFFFFFFFFFFFFA3
:107DF000FFFFFFFFFFFFFFFFFFFFFFFFFFFFFFFF93
:107E0000FFFFFFFFFFFFFFFFFFFFFFFFFFFFFFFF82
:107E1000FFFFFFFFFFDFFFFFFFFFFFFFBE9D01D75B
:107E2000099884DCFFFFFFFFFFFFFFDEFFFFFFFF7E
:107E3000FFFFFFFF4358019711D8FFFFFFFFFFFF30
:107E4000FFFF32D9099809D7FFFFFFFFFFFFF7FFB8
:107E5000FFFFFFFFFFFFFFFFFFFFFFFFFFFFFFFF32
:107E6000FFFFFFFFFFFFFFFFFFFFFFFFFFFFFFFF22
:107E7000FFFFFFFFFFFFFFFFFFFFFFFFFFFFFFFF12
:107E8000FFFFFFFFFFFFFFFFFFFFFFFFFFFFFFFF02
:107E9000FFFFFFFFFFFFFFFFFFFFFFFFFFFFFFFFF2
:107EA000FFFFFFFFFFFFFFFFFFFFFFFFFFFFFFFFE2
:107EB000FFFFFFFFFFFF84DB09B801B784DCFFFF92
:107EC000FFFFFFFFFFFFFFFFFFFFFFFFFFFFC67D7D
:107ED00001B709B884DBFFFFFFFFFFFFFFFFFFFFD4
:107EE000FFFFFFFFFFFFFFFFFFFFFFFFC67E09B79A
:107EF00001B7435AFFFFFFFFFFFFFFFFFFFFFFFF39
:107F0000FFFFFFFFFFFFFFFFFFFFFFFFFFFFFFFF81
:107F1000FFFFFFFFFFFFFFFFFFFFFFFFFFFFFFFF71
:107F2000FFFFFFFFFFFFFFFFFFFFFFFFFFFFFFFF61
:107F3000FFFFFFFFFFFFFFFFFFFFFFFFFFFFFFFF51
:107F4000FFFFFFFFFFFFFFFFFFFFFFFFFFFFFFFF41
:107F5000FFFEFFFFC69E7CBA8D1CDF1FBE5E84FB4A
:107F60008CDDF7FEFFFFFFDFFFDFFFFFEFBFC65D2A
:107F7000BE3EC69ED6FFFFFFFFFFFFFFFFFFFFFFD6
:107F8000FFFFFFFFFFFFFFFFFFFEFFFF84DB09B9DD
:107F900009B7C67EFFFFFFFFFFFFFFFFFFFFFFFFE9
:107FA000FFFFFFFFFFFFFFFFFFFFFFFFFFFFFFFFE1
:107FB000FFFFFFFFFFFFFFFFFFFFFFFFFFFFFFFFD1
:107FC000FFFFFFFFFFFFFFFFFFFFFFFFFFFFFFFFC1
:107FD000FFFFFFFFFFFFFFFFFFFFFFFFFFFFFFFFB1
:107FE000FFFFFFFFFFFFFFFFFFFFFFFFFFFFFFFFA1
:107FF000FFFEF7FEFFFFFFFFFFFFFFFF09B809B716
:108000004B58FFFEFFFFFFFFFFDFFFFFFFFFFFFFFC
:1080100009D901974B3AFFFFF7FFFFFFFFFFFFFF73
:10802000D6DE11F709BA11D70998B61D6BFA01B758
:1080300001B7C6BEFFFFFFFFFFFFFFFFFFFFFFFF10
:10804000FFFFFFFFFFFFFFFFFFFFFFFFFFFFFFFF40
:10805000FFFFFFFFFFFFFFFFFFFFFFFFFFFFFFFF30
:10806000FFFFFFFFFFFFFFFFFFFFFFFFFFFFFFFF20
:10807000FFFFFFFFFFFFFFFFFFFFFFFFFFFFFFFF10
:10808000FFFFFFFFFFFFFFFFFFFFFFFFFFFFFFFF00
:10809000FFFF4B5909B701B809B701B509B609D8AF
:1080A00001B7099709D709B8099809B701D709B7DE
:1080B0005358EFFF851C01B701B709D701B60997DF
:1080C00009D709B701B709B8019711B701B901D8A4
:1080D0004359FFFFFFFFFFFFFFFFFFFFFFFFFFFF12
:1080E000FFFFFFFFFFFFFFFFFFFFFFFFFFFFFFFFA0
:1080F000FFFFFFFFFFFFFFFFFFFFFFFFFFFFFFFF90
:10810000FFFFFFFFFFFFFFFFFFFFFFFFFFFFFFFF7F
:10811000FFFFFFFFFFFFFFFFFFFFFFFFFFFFFFFF6F
:10812000FFFFFFFFFFFFFFFFFFFFFFFFFFFFFFFF5F
:10813000FFFFFFFFFFFFFFFFFFFFFFFFFFFFFFFF4F
:10814000FFFFFFFFFFFFFFFFFFFFFFFFFFFFFFFF3F
:10815000FFFFFFFFFFFFFFFFFFFFFFFFFFFFFFFF2F
:10816000FFFFFFFFFFFFFFFFFFFFFFFFFFFFFFFF1F
:10817000FFFFFFFFFFFFFFFFFFFFFFFFFFFFFFFF0F
:10818000FFFFFFFFFFFFFFFFFFFFFFFFFFFFFFFFFF
:10819000FFFFFFFFFFFFFFFFFFFFFFFFFFFFFFFFEF
:1081A000FFFFFFFFFFFFFFFFFFFFFFFFFFFFFFFFDF
:1081B000FFFFFFFFFFFFFFFFFFFFFFFFFFFFFFFFCF
:1081C000FFFFFFFFFFFFFFFFFFFFFFFFFFFFFFFFBF
:1081D000FFFFFFFFFFFFFFFEFFFFFFFFBE7E09D88F
:1081E00001D97CFBFFFFFFDFFFFFFFFEF7FFF7FF7B
:1081F000FFFFFFDF437901B90997FFFFFFFFFFFF93
:10820000FFDF11F709B74359FFDEFFFFFFFFFFFF55
:10821000FFFFFFFFFFFFFFFFFFFFFFFFFFFFFFFF6E
:10822000FFFFFFFFFFFFFFFFFFFFFFFFFFFFFFFF5E
:10823000FFFFFFFFFFFFFFFFFFFFFFFFFFFFFFFF4E
:10824000FFFFFFFFFFFFFFFFFFFFFFFFFFFFFFFF3E
:10825000FFFFFFFFFFFFFFFFFFFFFFFFFFFFFFFF2E
:10826000FFFFFFFFFFFFFFFFFFFFFFFFFFFFFFFF1E
:10827000FFFFFFFFFFFF84DB09B801B784DCFFFFCE
:10828000FFFFFFFFFFFFFFFFFFFFFFFFFFFFC67DB9
:1082900001B709B884DBFFFFFFFFFFFFFFFFFFFF10
:1082A000FFFFFFFFFFFFFFFFFFFFFFFFC67E09B7D6
:1082B00001B7435AFFFFFFFFFFFFFFFFFFFFFFFF75
:1082C000FFFFFFFFFFFFFFFFFFFFFFFFFFFFFFFFBE
:1082D000FFFFFFFFFFFFFFFFFFFFFFFFFFFFFFFFAE
:1082E000FFFFFFFFFFFFFFFFFFFFFFFFFFFFFFFF9E
:1082F000FFFFFFFFFFFFFFFFFFFFFFFFFFFFFFFF8E
:10830000FFFFFFFFFFFFFFFFFFFFFFFFFFFFFFFF7D
:10831000FFFFFFFF7CBC09D80957C67EFFFFFFFFA8
:10832000FFFFFFFFFFBFFFFFFFFFFFFFFFFFFFFF9D
:1083300009D801974B19FFFFFFFFFFFFFFFFFFFE6B
:10834000FFFFFFFFFFFFFFFFFFDFFFFF7CFB01D809
:1083500009B7C67EFFFFFFFFFFFFFFFFFFFFFFFF25
:10836000FFFFFFFFFFFFFFFFFFFFFFFFFFFFFFFF1D
:10837000FFFFFFFFFFFFFFFFFFFFFFFFFFFFFFFF0D
:10838000FFFFFFFFFFFFFFFFFFFFFFFFFFFFFFFFFD
:10839000FFFFFFFFFFFFFFFFFFFFFFFFFFFFFFFFED
:1083A000FFFFFFFFFFFFFFFFFFFFFFFFFFFFFFFFDD
:1083B000FFFFFFFFFFFFFFDFFFFFFFFE01B701B978
:1083C0004B5AFFFFFFFEFFFFFFFFFFFFFFDFFFFF37
:1083D000099601B7435AFFFFFFFFFFFFEFFF955DCF
:1083E000121909B501D901B76BFBFFFF84FC09B86D
:1083F00009D8B61DFFFFFFFFFFFFFFFFFFFFFFFFD5
:10840000FFFFFFFFFFFFFFFFFFFFFFFFFFFFFFFF7C
:10841000FFFFFFFFFFFFFFFFFFFFFFFFFFFFFFFF6C
:10842000FFFFFFFFFFFFFFFFFFFFFFFFFFFFFFFF5C
:10843000FFFFFFFFFFFFFFFFFFFFFFFFFFFFFFFF4C
:10844000FFFFFFFFFFFFFFFFFFFFFFFFFFFFFFFF3C
:10845000FFDF4B1909D601D7019609DA099701B751
:1084600001B909B709B60198097909B901D801B765
:108470004B19FFFF8CBB09B709D85BFC84FC84FB5C
:108480007CDB84FD7CDB7CDC84DB84BA01B801B856
:108490004359FFFFFFFFFFFFFFFFFFFFFFFFFFFF4E
:1084A000FFFFFFFFFFFFFFFFFFFFFFFFFFFFFFFFDC
:1084B000FFFFFFFFFFFFFFFFFFFFFFFFFFFFFFFFCC
:1084C000FFFFFFFFFFFFFFFFFFFFFFFFFFFFFFFFBC
:1084D000FFFFFFFFFFFFFFFFFFFFFFFFFFFFFFFFAC
:1084E000FFFFFFFFFFFFFFFFFFFFFFFFFFFFFFFF9C
:1084F000FFFFFFFFFFFFFFFFFFFFFFFFFFFFFFFF8C
:10850000FFFFFFFFFFFFFFFFFFFFFFFFFFFFFFFF7B
:10851000FFFFFFFFFFFFFFFFFFFFFFFFFFFFFFFF6B
:10852000FFFFFFFFFFFFFFFFFFFFFFFFFFFFFFFF5B
:10853000FFFFFFFFFFFFFFFFFFFFFFFFFFFFFFFF4B
:10854000FFFFFFFFFFFFFFFFFFFFFFFFFFFFFFFF3B
:10855000FFFFFFFFFFFFFFFFFFFFFFFFFFFFFFFF2B
:10856000FFFFFFFFFFFFFFFFFFFFFFFFFFFFFFFF1B
:10857000FFFFFFFFFFFFFFFFFFFFFFFFFFFFFFFF0B
:10858000FFFFFFFFFFFFFFFFFFFFFFFFFFFFFFFFFB
:10859000FFDFFFFEFFFEFFFEFFFFFFFFBE5E09B82D
:1085A000099884DBFFFFFFFFFFFFFFDFFFBFFFFD39
:1085B000FFDFFFFF4B5B01B90996FFFFFFFFFFFFE6
:1085C000E75F017709B853B9FFFFFFFFFFDFFFDF68
:1085D000FFFFFFFFFFFFFFFFFFFFFFFFFFFFFFFFAB
:1085E000FFFFFFFFFFFFFFFFFFFFFFFFFFFFFFFF9B
:1085F000FFFFFFFFFFFFFFFFFFFFFFFFFFFFFFFF8B
:10860000FFFFFFFFFFFFFFFFFFFFFFFFFFFFFFFF7A
:10861000FFFFFFFFFFFFFFFFFFFFFFFFFFFFFFFF6A
:10862000FFFFFFFFFFFFFFFFFFFFFFFFFFFFFFFF5A
:10863000FFFFFFFFFFFF84DB09B801B784DCFFFF0A
:10864000FFFFFFFFFFFFFFFFFFFFFFFFFFFFC67DF5
:1086500001B709B884DBFFFFFFFFFFFFFFFFFFFF4C
:10866000FFFFFFFFFFFFFFFFFFFFFFFFC67E09B712
:1086700001B7435AFFFFFFFFFFFFFFFFFFFFFFFFB1
:10868000FFFFFFFFFFFFFFFFFFFFFFFFFFFFFFFFFA
:10869000FFFFFFFFFFFFFFFFFFFFFFFFFFFFFFFFEA
:1086A000FFFFFFFFFFFFFFFFFFFFFFFFFFFFFFFFDA
:1086B000FFFFFFFFFFFFFFFFFFFFFFFFFFFFFFFFCA
:1086C000FFFFFFFFFFFFFFFFFFFFFFFFFFFFFFFFBA
:1086D000FFFEFFFE84DB01D709D7BE9EFFFFFFFF31
:1086E000FFFFFFFFFFFFF7FFFFFFFFFFFFFFFFFFA2
:1086F000119709974B3AFFFFFFDFFFFFFFFFFFDFF7
:10870000FFFFFFFFFFFFFFFFFFFEFFFF8CDC09986D
:1087100009B7C67EFFFFFFFFFFFFFFFFFFFFFFFF61
:10872000FFFFFFFFFFFFFFFFFFFFFFFFFFFFFFFF59
:10873000FFFFFFFFFFFFFFFFFFFFFFFFFFFFFFFF49
:10874000FFFFFFFFFFFFFFFFFFFFFFFFFFFFFFFF39
:10875000FFFFFFFFFFFFFFFFFFFFFFFFFFFFFFFF29
:10876000FFFFFFFFFFFFFFFFFFFFFFFFFFFFFFFF19
:10877000FFFFFFFFFFFFFFFFFFFFFFFF09B609B984
:108780004319FFFFFFFFFFFFFFFFFFFFFFFFFFFF9B
:1087900009F609D84319FFFFDF5E9D3D329709B7FF
:1087A00001D901B809B76439FFFFFFDDA5FD01B7A5
:1087B0000197951BFFDFFFFFFFFFFFFFFFFFFFFF9D
:1087C000FFFFFFFFFFFFFFFFFFFFFFFFFFFFFFFFB9
:1087D000FFFFFFFFFFFFFFFFFFFFFFFFFFFFFFFFA9
:1087E000FFFFFFFFFFFFFFFFFFFFFFFFFFFFFFFF99
:1087F000FFFFFFFFFFFFFFFFFFFFFFFFFFFFFFFF89
:10880000FFFFFFFFFFFFFFFFFFFFFFFFFFFFFFFF78
:10881000F7FF437A01B712194B5A433B3AD901D9B2
:1088200001D72A7743384B592A9901D701B73AF82B
:10883000747CF7FF84DC01970998C69EFFFEFFFF5A
:10884000FFFFFFFFFFFFFFFFFFFFFFFF09F709B576
:108850004359FFFFFFFFFFFFFFFFFFFFFFFFFFFF8A
:10886000FFFFFFFFFFFFFFFFFFFFFFFFFFFFFFFF18
:10887000FFFFFFFFFFFFFFFFFFFFFFFFFFFFFFFF08
:10888000FFFFFFFFFFFFFFFFFFFFFFFFFFFFFFFFF8
:10889000FFFFFFFFFFFFFFFFFFFFFFFFFFFFFFFFE8
:1088A000FFFFFFFFFFFFFFFFFFFFFFFFFFFFFFFFD8
:1088B000FFFFFFFFFFFFFFFFFFFFFFFFFFFFFFFFC8
:1088C000FFFFFFFFFFFFFFFFFFFFFFFFFFFFFFFFB8
:1088D000FFFFFFFFFFFFFFFFFFFFFFFFFFFFFFFFA8
:1088E000FFFFFFFFFFFFFFFFFFFFFFFFFFFFFFFF98
:1088F000FFFFFFFFFFFFFFFFFFFFFFFFFFFFFFFF88
:10890000FFFFFFFFFFFFFFFFFFFFFFFFFFFFFFFF77
:10891000FFFFFFFFFFFFFFFFFFFFFFFFFFFFFFFF67
:10892000FFFFFFFFFFFFFFFFFFFFFFFFFFFFFFFF57
:10893000FFFFFFFFFFFFFFFFFFFFFFFFFFFFFFFF47
:10894000FFFFFFFFFFFFFFFFFFFFFFFFFFFFFFFF37
:10895000FFDFFFDFFFFFFFFFFFFFFFFFD6BE4B1A6A
:108960004B59A5BCFFFFFFFFFFFECEBD4B7A3B3945
:10897000ADBDF7FF747B43395359FFFFFFFFFFFF86
:10898000BE7D01D9099884DCFFFFFFDFFFFFFFFFF9
:10899000FFFFFFFFFFFFFFFFFFFFFFFFFFFFFFFFE7
:1089A000FFFFFFFFFFFFFFFFFFFFFFFFFFFFFFFFD7
:1089B000FFFFFFFFFFFFFFFFFFFFFFFFFFFFFFFFC7
:1089C000FFFFFFFFFFFFFFFFFFFFFFFFFFFFFFFFB7
:1089D000FFFFFFFFFFFFFFFFFFFFFFFFFFFFFFFFA7
:1089E000FFFFFFFFFFFFFFFFFFFFFFFFFFFFFFFF97
:1089F000FFFFFFFFFFFF84DB09B801B784DCFFFF47
:108A0000FFFFFFFFFFFFFFFFFFFFFFFFFFFFC67D31
:108A100001B709B884DBFFFFFFFFFFFFFFFFFFFF88
:108A2000FFFFFFFFFFFFFFFFFFFFFFFFC67E09B74E
:108A300001B7435AFFFFFFFFFFFFFFFFFFFFFFFFED
:108A4000FFFFFFFFFFFFFFFFFFFFFFFFFFFFFFFF36
:108A5000FFFFFFFFFFFFFFFFFFFFFFFFFFFFFFFF26
:108A6000FFFFFFFFFFFFFFFFFFFFFFFFFFFFFFFF16
:108A7000FFFFFFFFFFFFFFFFFFFFFFFFFFFFFFFF06
:108A8000FFFFFFFFFFFFFFFFFFFFFFFFFFFFFFFFF6
:108A9000FFFFFFFF84BD01D809B6BE7CFFDFFFFFEB
:108AA000FFDFFFFEFFFFFFFFFFFFFFFEFFFEFFFFF9
:108AB00001D601D8431AF7FFE71EC67CBE7DC67EED
:108AC0007CDC84FB84DB643A43584B392A9809B731
:108AD00009B7C67EFFFFFFFFFFFFFFFFFFFFFFFF9E
:108AE000FFFFFFFFFFFFFFFFFFFFFFFFFFFFFFFF96
:108AF000FFFFFFFFFFFFFFFFFFFFFFFFFFFFFFFF86
:108B0000FFFFFFFFFFFFFFFFFFFFFFFFFFFFFFFF75
:108B1000FFFFFFFFFFFFFFFFFFFFFFFFFFFFFFFF65
:108B2000FFFFFFFFFFFFFFFFFFFFFFFFFFFFEF5F05
:108B3000C67DBE5CC69FBE9EBE9EB65E09F609B7E8
:108B400042F8BE3EBE7FC67EC63EC69EC69EBE7D67
:108B5000097A01971A193AB909D8019901B809B6E1
:108B600009B809B784DCF7FFFFFFFFDFC67C01D837
:108B700009B88CDBFFFFFFFFFFFFFFFFFFFFFFFFD9
:108B8000FFFFFFFFFFFFFFFFFFFFFFFFFFFFFFFFF5
:108B9000FFFFFFFFFFFFFFFFFFFFFFFFFFFFFFFFE5
:108BA000FFFFFFFFFFFFFFFFFFFFFFFFFFFFFFFFD5
:108BB000FFFFFFFFFFFFFFFFFFFFFFFFFFFFFFFFC5
:108BC000FFFFFFFFFFFFFFFFFFFFFFFFFFFFFFFFB5
:108BD000FFFF3B3901D84359FFFFFFFFC67E09B7AE
:108BE00009B784DCFFFFF7FF84BD099711D6BE5D8E
:108BF000FFFFFFFF84BC09F70997C69DFFFFFFFF3A
:108C0000FFDFFFDFFFDFFFFFFFDFFFFF01B709D857
:108C10004359FFFFFFFFFFFFFFFFFFFFFFFFFFFFC6
:108C2000FFFFFFFFFFFFFFFFFFFFFFFFFFFFFFFF54
:108C3000FFFFFFFFFFFFFFFFFFFFFFFFFFFFFFFF44
:108C4000FFFFFFFFFFFFFFFFFFFFFFFFFFFFFFFF34
:108C5000FFFFFFFFFFFFFFFFFFFFFFFFFFFFFFFF24
:108C6000FFFFFFFFFFFFFFFFFFFFFFFFFFFFFFFF14
:108C7000FFFFFFFFFFFFFFFFFFFFFFFFFFFFFFFF04
:108C8000FFFFFFFFFFFFFFFFFFFFFFFFFFFFFFFFF4
:108C9000FFFFFFFFFFFFFFFFFFFFFFFFFFFFFFFFE4
:108CA000FFFFFFFFFFFFFFFFFFFFFFFFFFFFFFFFD4
:108CB000FFFFFFFFFFFFFFFFFFFFFFFFFFFFFFFFC4
:108CC000FFFFFFFFFFFFFFFFFFFFFFFFFFFFFFFFB4
:108CD000FFFFFFFFFFFFFFFFFFFFFFFFFFFFFFFFA4
:108CE000FFFFFFFFFFFFFFFFFFFFFFFFFFFFFFFF94
:108CF000FFFFFFFFFFFFFFFFFFFFFFFFFFFFFFFF84
:108D0000FFFFFFFFFFFFFFFFFFFFFFFFFFFFFFFF73
:108D1000FFDFFFFFFFFFFFFFFFFFFFBFFFFDEFFFD5
:108D2000F7FFFFDFFFDFFFFFFFFFC69D01B701D8A1
:108D300084BBFFFEFFFEFFFFFFDFFFFEFFDFFFDF65
:108D4000D6BD84DB953BDF5FFFFEFFFFFFFFFFFF2C
:108D5000FFFFFFFFFFFFFFFFFFFFFFFFFFFFFFFF23
:108D6000FFFFFFFFFFFFFFFFFFFFFFFFFFFFFFFF13
:108D7000FFFFFFFFFFFFFFFFFFFFFFFFFFFFFFFF03
:108D8000FFFFFFFFFFFFFFFFFFFFFFFFFFFFFFFFF3
:108D9000FFFFFFFFFFFFFFFFFFFFFFFFFFFFFFFFE3
:108DA000FFFFFFFFFFFFFFFFFFFFFFFFFFFFFFFFD3
:108DB000FFFFFFFFFFFF84DB09B801B784DCFFFF83
:108DC000FFFFFFFFFFFFFFFFFFFFFFFFFFFFC67D6E
:108DD00001B709B884DBFFFFFFFFFFFFFFFFFFFFC5
:108DE000FFFFFFFFFFFFFFFFFFFFFFFFC67E09B78B
:108DF00001B7435AFFFFFFFFFFFFFFFFFFFFFFFF2A
:108E0000FFFFFFFFFFFFFFFFFFFFFFFFFFFFFFFF72
:108E1000FFFFFFFFFFFFFFFFFFFFFFFFFFFFFFFF62
:108E2000FFFFFFFFFFFFFFFFFFFFFFFFFFFFFFFF52
:108E3000FFFFFFFFFFFFFFFFFFFFFFFFFFFFFFFF42
:108E4000FFFFFFFFFFFFFFFFFFFFFFFFFFFFFFFF32
:108E5000FFFFFFFE84DC01B809D7B67EE75FC65D81
:108E6000C67DBE7D8CBB8CDB84DB6C1B4B593B39D8
:108E700009B701B709B909B5099801D801D701B9EE
:108E800009B809970997019701D809D7099709B92E
:108E900009B7C67EFFFFFFFFFFFFFFFFFFFFFFFFDA
:108EA000FFFFFFFFFFFFFFFFFFFFFFFFFFFFFFFFD2
:108EB000FFFFFFFFFFFFFFFFFFFFFFFFFFFFFFFFC2
:108EC000FFFFFFFFFFFFFFFFFFFFFFFFFFFFFFFFB2
:108ED000FFFFFFFFFFFFFFFFFFFFFFFFFFFFFFFFA2
:108EE000FFFFFFFFFFFFFFFFFFFFFFFFFFFFCE9C26
:108EF00009B811B70199099709971197019909992B
:108F000001B811D601B709F709B701F701B709D7B9
:108F100001D601F701B811B701D601D701B809F799
:108F20004B39D6BEF7FFF7FFFFDFFFFFBE5D0999A4
:108F300001D8849BFFFFFFFFFFFFFFFFFFFFFFFF45
:108F4000FFFFFFFFFFFFFFFFFFFFFFFFFFFFFFFF31
:108F5000FFFFFFFFFFFFFFFFFFFFFFFFFFFFFFFF21
:108F6000FFFFFFFFFFFFFFFFFFFFFFFFFFFFFFFF11
:108F7000FFFFFFFFFFFFFFFFFFFFFFFFFFFFFFFF01
:108F8000FFFFFFFFFFFFFFFFFFFFFFFFFFFFFFFFF1
:108F9000FFFF435901B74339FFFFFFFFC67E099624
:108FA00001B884DDFFFFFFFF84FC01B80197C69E76
:108FB000FFFFFFBF84DC01D80997BE5DFFFFFFFF05
:108FC000FFFFFFDFFFFFFFFEFFFFFFFF019509B877
:108FD0004359FFFFFFFFFFFFFFFFFFFFFFFFFFFF03
:108FE000FFFFFFFFFFFFFFFFFFFFFFFFFFFFFFFF91
:108FF000FFFFFFFFFFFFFFFFFFFFFFFFFFFFFFFF81
:10900000FFFFFFFFFFFFFFFFFFFFFFFFFFFFFFFF70
:10901000FFFFFFFFFFFFFFFFFFFFFFFFFFFFFFFF60
:10902000FFFFFFFFFFFFFFFFFFFFFFFFFFFFFFFF50
:10903000FFFFFFFFFFFFFFFFFFFFFFFFFFFFFFFF40
:10904000FFFFFFFFFFFFFFFFFFFFFFFFFFFFFFFF30
:10905000FFFFFFFFFFFFFFFFFFFFFFFFFFFFFFFF20
:10906000FFFFFFFFFFFFFFFFFFFFFFFFFFFFFFFF10
:10907000FFFFFFFFFFFFFFFFFFFFFFFFFFFFFFFF00
:10908000FFFFFFFFFFFFFFFFFFFFFFFFFFFFFFFFF0
:10909000FFFFFFFFFFFFFFFFFFFFFFFFFFFFFFFFE0
:1090A000FFFFFFFFFFFFFFFFFFFFFFFFFFFFFFFFD0
:1090B000FFFFFFFFFFFFFFFFFFFFFFFFFFFFFFFFC0
:1090C000FFFFFFFFFFFFFFFFFFFFFFFFFFFFFFFFB0
:1090D000FFFFFFFFFFFFFFFFFFFFFFFFC65D11B8B0
:1090E00009B88CDCFFFFFFFFFFFFC67D01B801B8A8
:1090F0008CDCFFFFFFFFFFFFFFFFF7FFF7FFFFFF26
:10910000FFFFFFFFF7DFA5BBC67DFFDFFFFFFFFE11
:10911000FFFFFFFFFFFFFFFFFFFFFFFFFFFFFFFF5F
:10912000FFFFFFFFFFFFFFFFFFFFFFFFFFFFFFFF4F
:10913000FFFFFFFFFFFFFFFFFFFFFFFFFFFFFFFF3F
:10914000FFFFFFFFFFFFFFFFFFFFFFFFFFFFFFFF2F
:10915000FFFFFFFFFFFFFFFFFFFFFFFFFFFFFFFF1F
:10916000FFFFFFFFFFFFFFFFFFFFFFFFFFFFFFFF0F
:10917000FFFFFFFFFFFF84DB09B801B784DCFFFFBF
:10918000FFFFFFFFFFFFFFFFFFFFFFFFFFFFC67DAA
:1091900001B709B884DBFFFFFFFFFFFFFFFFFFFF01
:1091A000FFFFFFFFFFFFFFFFFFFFFFFFC67E09B7C7
:1091B00001B7435AFFFFFFFFFFFFFFFFFFFFFFFF66
:1091C000FFFFFFFFFFFFFFFFFFFFFFFFFFFFFFFFAF
:1091D000FFFFFFFFFFFFFFFFFFFFFFFFFFFFFFFF9F
:1091E000FFFFFFFFFFFFFFFFFFFFFFFFFFFFFFFF8F
:1091F000FFFFFFFFFFFFFFFFFFFFFFFFFFFFFFFF7F
:10920000FFFFFFFFFFFFFFFFFFFFFFFFFFFFFFFF6E
:10921000FFDFFFDF8CBC09B801B809D711780999C5
:1092200001B909D8019901B809D8019801B701D746
:1092300001B80198099909B709B809B901B601D669
:1092400001D901B809B709D801B709B701B701F8C1
:1092500009B7C67EFFFFFFFFFFFFFFFFFFFFFFFF16
:10926000FFFFFFFFFFFFFFFFFFFFFFFFFFFFFFFF0E
:10927000FFFFFFFFFFFFFFFFFFFFFFFFFFFFFFFFFE
:10928000FFFFFFFFFFFFFFFFFFFFFFFFFFFFFFFFEE
:10929000FFFFFFFFFFFFFFFFFFFFFFFFFFFFFFFFDE
:1092A000FFFFFFFFFFFFFFFFFFFFFFFFFFFFC65CAA
:1092B00001D809B701D901B809B809B701B909B886
:1092C00009B9119609B70998117709B70998119941
:1092D0000997019809D8099601F71A386BFAD6BE92
:1092E000FFFEFFFFFFFFFFFFFFDFF7FFC67E1198C6
:1092F00001D784BCFFFFFFFFFFFFFFFFFFFFFFFF62
:10930000FFFFFFFFFFFFFFFFFFFFFFFFFFFFFFFF6D
:10931000FFFFFFFFFFFFFFFFFFFFFFFFFFFFFFFF5D
:10932000FFFFFFFFFFFFFFFFFFFFFFFFFFFFFFFF4D
:10933000FFFFFFFFFFFFFFFFFFFFFFFFFFFFFFFF3D
:10934000FFFFFFFFFFFFFFFFFFFFFFFFFFFFFFFF2D
:10935000FFDF4B5B09974B39FFFFFFFFBE5D11B786
:1093600001B784DCFFFFFFFF84DB01F809B8BE5DB5
:10937000FFFFFFFF7CDB01D601D73AFA433B437A7C
:1093800043594B5A3B3943594359435901F701D883
:109390004359FFFFFFFFFFFFFFFFFFFFFFFFFFFF3F
:1093A000FFFFFFFFFFFFFFFFFFFFFFFFFFFFFFFFCD
:1093B000FFFFFFFFFFFFFFFFFFFFFFFFFFFFFFFFBD
:1093C000FFFFFFFFFFFFFFFFFFFFFFFFFFFFFFFFAD
:1093D000FFFFFFFFFFFFFFFFFFFFFFFFFFFFFFFF9D
:1093E000FFFFFFFFFFFFFFFFFFFFFFFFFFFFFFFF8D
:1093F000FFFFFFFFFFFFFFFFFFFFFFFFFFFFFFFF7D
:10940000FFFFFFFFFFFFFFFFFFFFFFFFFFFFFFFF6C
:10941000FFFFFFFFFFFFFFFFFFFFFFFFFFFFFFFF5C
:10942000FFFFFFFFFFFFFFFFFFFFFFFFFFFFFFFF4C
:10943000FFFFFFFFFFFFFFFFFFFFFFFFFFFFFFFF3C
:10944000FFFFFFFFFFFFFFFFFFFFFFFFFFFFFFFF2C
:10945000FFFFFFFFFFFFFFFFFFFFFFFFFFFFFFFF1C
:10946000FFFFFFFFFFFFFFFFFFFFFFFFFFFFFFFF0C
:10947000FFFFFFFFFFFFFFFFFFFFFFFFFFFFFFFFFC
:10948000FFFFFFFFFFFFFFFFFFFFFFFFFFFFFFFFEC
:10949000FFFFFFFFFFFFFFFFFFFFFFFFC67E01B8DB
:1094A00001D784DBFFFFFFFFFFFFC67C09B80997E8
:1094B0007CDCEFBFB5FC641A19D801B909B67CFB96
:1094C000FFFFEF9E741901992A78EF9FFFFFFFFFBE
:1094D000FFFFFFFFFFFFFFFFFFFFFFFFFFFFFFFF9C
:1094E000FFFFFFFFFFFFFFFFFFFFFFFFFFFFFFFF8C
:1094F000FFFFFFFFFFFFFFFFFFFFFFFFFFFFFFFF7C
:10950000FFFFFFFFFFFFFFFFFFFFFFFFFFFFFFFF6B
:10951000FFFFFFFFFFFFFFFFFFFFFFFFFFFFFFFF5B
:10952000FFFFFFFFFFFFFFFFFFFFFFFFFFFFFFFF4B
:10953000FFFFFFFFFFFF84DB09B801B784DCFFFFFB
:10954000FFFFFFFFFFFFFFFFFFFFFFFFFFFFC67DE6
:1095500001B709B884DBFFFFFFFFFFFFFFFFFFFF3D
:10956000FFFFFFFFFFFFFFFFFFFFFFFFC67E09B703
:1095700001B7435AFFFFFFFFFFFFFFFFFFFFFFFFA2
:10958000FFFFFFFFFFFFFFFFFFFFFFFFFFFFFFFFEB
:10959000FFFFFFFFFFFFFFFFFFFFFFFFFFFFFFFFDB
:1095A000FFFFFFFFFFFFFFFFFFFFFFFFFFFFFFFFCB
:1095B000FFFFFFFFFFFFFFFFFFFFFFFFFFFFFFFFBB
:1095C000FFFFFFFFFFFFFFFFFFFFFFFFFFFFFFFFAB
:1095D000FFFFF7FF7CDB09B701B801B701B701D680
:1095E00009D7019609B709B701B701D809B8099792
:1095F00009B709D701B701D701D8099811B63ADAE6
:109600004359433953B97CDC84FB84DC4B3A01B7C2
:1096100009B7C67EFFFFFFFFFFFFFFFFFFFFFFFF52
:10962000FFFFFFFFFFFFFFFFFFFFFFFFFFFFFFFF4A
:10963000FFFFFFFFFFFFFFFFFFFFFFFFFFFFFFFF3A
:10964000FFFFFFFFFFFFFFFFFFFFFFFFFFFFFFFF2A
:10965000FFFFFFFFFFFFFFFFFFFFFFFFFFFFFFFF1A
:10966000FFFFFFFFFFFFFFFFFFFFFFFFFFFFD6BE74
:10967000435A4B39437A43594359435901B709B7C0
:10968000121843393B7A3B3A4B5B3B78437A433A77
:1096900009B801D82277A57ECEFEFFFFFFFFFFDFCE
:1096A000FFFFFFFEFFFFFFFFFFFFFFFEBE7D01D7B5
:1096B00001D78CBCFFFFFFFFFFFFFFFFFFFFFFFF96
:1096C000FFFFFFFFFFFFFFFFFFFFFFFFFFFFFFFFAA
:1096D000FFFFFFFFFFFFFFFFFFFFFFFFFFFFFFFF9A
:1096E000FFFFFFFFFFFFFFFFFFFFFFFFFFFFFFFF8A
:1096F000FFFFFFFFFFFFFFFFFFFFFFFFFFFFFFFF7A
